:10000000D0570020393700006D7D010025370000F2
:1000100025370000253700002537000000000000CC
:100020000000000000000000000000007137000028
:10003000253700000000000041390000253700008E
:10004000AD39000019080100AD390000AD390000DC
:10005000AD390000AD390000AD390000AD39000008
:10006000AD390000AD390000AD390000AD390000F8
:10007000AD390000AD390000AD390000AD390000E8
:10008000AD390000AD390000AD390000AD390000D8
:10009000AD390000AD390000AD390000AD390000C8
:1000A000AD390000AD390000AD390000AD390000B8
:1000B000AD390000AD390000AD390000AD390000A8
:1000C000AD390000AD390000AD390000AD39000098
:1000D000AD390000AD390000AD390000AD39000088
:1000E000AD390000AD390000AD390000AD39000078
:1000F000AD390000AD390000AD390000AD39000068
:100100007BB972B90029BEBF00204FF0004106E064
:1001100008BF00281CBF6FF000414FF0FF3000F017
:1001200057B8ADF1080C6DE904CE002909DB002BAE
:100130001ADB00F061F8DDF804E0DDE9022304B029
:100140007047404261EB4101002B1BDB00F054F88B
:10015000DDF804E0DDE9022304B0404261EB410137
:10016000524263EB43037047524263EB430300F098
:1001700043F8DDF804E0DDE9022304B0404261EB1E
:1001800041017047524263EB430300F035F8DDF85C
:1001900004E0DDE9022304B0524263EB43037047FD
:1001A00053B94AB9002908BF00281CBF4FF0FF31DE
:1001B0004FF0FF3000F00CB8ADF1080C6DE904CE43
:1001C00000F01AF8DDF804E0DDE9022304B070471E
:1001D000704700BF10F8012B11F8013B012A28BF1E
:1001E0009A42F7D0D01A7047034613F8012B002A21
:1001F000FBD1181A013870472DE9F0478C468E461E
:10020000089E154604461946002B40F0D0807245E2
:1002100047D9B2FA82F74FB1C7F120030EFA07FCB3
:1002200020FA03F3BD4043EA0C0CBC404FEA154EE4
:10023000A8B2BCFBFEF8230C0EFB18CC08FB00F99F
:1002400043EA0C43994528D9EB1808F1FF3204D250
:10025000994502D9A8F102022B44A3EB0903A4B2E9
:10026000B3FBFEFC0EFB1C330CFB00F044EA034422
:10027000A04214D92C190CF1FF3304D2A04202D9A8
:10028000ACF102032C44241A43EA02401EB1FC40A4
:10029000002334607360BDE8F0874246DDE76346C3
:1002A000F1E7002A79D0B2FA82F3002B3FD0194649
:1002B000C1F1200302FA01F52EFA03F20EFA01FE53
:1002C00020FA03F343EA0E034FEA154E00FA01F455
:1002D000B2FBFEFCAFB20EFB1C201A0C0CFB07F8A5
:1002E00042EA004290455AD9AA180CF1FF3004D2D4
:1002F000904502D9ACF102002A44A2EB08029BB25D
:10030000B2FBFEFC0EFB1C220CFB07F743EA024388
:100310009F4246D9EB180CF1FF3204D29F4202D91A
:10032000ACF102022B44DB1B42EA004202E0AEEBDE
:10033000020301224FEA154EAFB2B3FBFEFC200CC4
:100340000EFB1C330CFB07F840EA034398452AD9FF
:10035000EB180CF1FF3004D2984502D9ACF1020041
:100360002B44A3EB0803A4B2B3FBFEFC0EFB1C332F
:100370000CFB07F744EA0344A74216D92C190CF1E9
:10038000FF3304D2A74202D9ACF102032C44E41B90
:1003900043EA00400F46114678E71F2188E7604690
:1003A000ABE76246BFE76046DBE76346EFE77345CE
:1003B00006D916B9002108466DE7C6E9000EF9E72F
:1003C000B3FA83F787B9734501D3824207D8841AF9
:1003D0006EEB030301209C461EB900215BE7384603
:1003E000FAE7C6E9004CF8E7C7F1200CBB4022FA57
:1003F0000CF51D4320FA0CF12EFA0CF30EFA07FE51
:1004000041EA0E014FEA154900FA07F4B3FBF9F887
:100410001FFA85FE09FB18300B0C08FB0EFA43EAA5
:1004200000439A4502FA07F240D9EB1808F1FF3071
:1004300004D29A4502D9A8F102002B44A3EB0A0387
:1004400089B2B3FBF9F809FB183308FB0EFE41EA49
:1004500003418E452CD9691808F1FF3304D28E452B
:1004600002D9A8F10203294443EA0040A0FB029804
:10047000A1EB0E014145CE46434602D306D14C4581
:1004800004D2B9EB020E68EB05030138002EA4D0AC
:10049000B4EB0E0261EB030101FA0CFC22FA07F344
:1004A0004CEA0303F940C6E9003196E74046C5E748
:1004B0004346D9E7000000002DE9F04F054687B01C
:1004C000214FBB68029304AA5B6800213846984715
:1004D000002832DBDDE9044B1C4BDFF87490A4FBF1
:1004E000031203FB0B28039115A3D3E9002308464D
:1004F0004146FFF755FE039B4FF0FF3A9A4579EBD3
:100500000803064619D3A5FB044305FB0B35294612
:100510000BA3D3E900232046FFF742FEA24579EB67
:100520000505034609D3864207D300220092029AAA
:100530000021146838463246A04707B0BDE8F08F66
:1005400000CA9A3B000000002CC00100002D3101C0
:10055000FFC99A3B000000002DE9F843D0E90738B5
:10056000856903EB08042F34A5420F46164619D8B7
:10057000DFF86C80A3FB080117A3D3E90023FFF782
:100580000FFE0346601BA0FB080123F07F4412A36B
:10059000D3E90023FFF704FE20F07F403C60306089
:1005A000BDE8F883DFF838900BA3D3E90023A5FB5F
:1005B0000901FFF7F5FD20F07F440A480A2106A350
:1005C000D3E90023E8FB0901FFF7EAFD20F07F40B3
:1005D0003C603060BDE8F8838D49FD1A07000000DB
:1005E00000CA9A3B00166BF1002800F044812DE907
:1005F000F04FC74C94F85E30DA078DB000F13781C8
:10060000627F94F8293004EB820204EB8303166ABC
:10061000D3F82C800EB3354615F8020BC0F38010CA
:1006200008F040FD0368C6F802308388AB80337859
:100630005B0606D50621284607F0C0F9002800F021
:100640004C81454615F8020BC0F3801008F02AFDD6
:100650000368C8F802308388AB80337813F00E0F3C
:1006600040F0918063691BB10C200DB0BDE8F08FA4
:1006700009F09CF98146002800F0388109F0A2F9C0
:100680008246002800F02F810BF048FB0546002829
:1006900000F03381D0F888004FF6FF73AB8405F18A
:1006A000100B002800F0248105F17C0205F178018F
:1006B00007F090F9B5F8763023F4EF6323F00703E1
:1006C00043F48C7343F00103A5F8763095F8373086
:1006D00003F03F0363F07F0385F8373095F88E30E1
:1006E00023F0070385F88E3095F83C3023F00F0394
:1006F000002785F83C304FF4C023C5F88E312846DA
:10070000C5E91277C5F88870A5F88C7085F839703E
:100710006F85C5F82E702F65A5F86071A5F89471E6
:10072000A5F88A710DF08EFA85F86471C5F86891A4
:100730000BF0B8FD95F89C3160F3020385F89C310D
:100740000BF0B6FD95F89C3160F3C50385F89C313C
:1007500095F8623167F34103012185F8623128463B
:100760000CF048F905F1E0000DF08CF8C4E9159A99
:10077000C4F814B0C5E902772F702D6110F0F2FCB7
:10078000002840F0AC80237E0121C3F342030DF129
:100790002B008DF82B3007F0BFFA024600286CD0F2
:1007A000414630460AF0D6FE5A4A5B4BB4F85C80AC
:1007B0000721E0FB023100251846C4E9025552A387
:1007C000D3E900232570FFF7EBFC606008F02EFCF6
:1007D00000F10907B8F1000F07D1357805F00F05D2
:1007E000A5F10105B5FA85F56D09207E636865F30D
:1007F000000010F00105207646D0484A09920020FA
:1008000010600225464ADFF81C8104930BAE019369
:1008100005920321CDE90200069400903B46CDF8F5
:100820001C8008962A460B9508F024FB314609F0F7
:100830003FF910BB3C4905914AF2D8330093CDE90A
:100840000300CDE90100CDF81C80089606943B46D4
:10085000012203210B9508F0F1FA314609F028F93D
:1008600058B994F85E3043F0010384F85E300020FC
:100870000DB0BDE8F08F0AF007BE6369002B3FF4AE
:10088000F3AE0AF0D7FDEFE6244A2848049303F2BA
:1008900047130694029591211360A8FB000301FB06
:1008A0000831204B07931E4B05934FF6FF730992B7
:1008B0004FF0020803930BAE13A3D3E90023CDF846
:1008C0002C800896FFF76CFC3B46CDE90050424671
:1008D0002846032108F0CEFABFE71220C5E60AF049
:1008E000A9FD0320C1E6484609F066F80720BCE6EA
:1008F00005F18000C5F88800D6E6504609F068F892
:10090000484609F059F8F1E78D49FD1A0700000043
:100910006423002000CA9A3B8C49FD1A582300200A
:10092000CDB5000029910000F1B20000002AE78453
:1009300070B5037E8AB0C3F342030D46044601211D
:100940000DF1230016468DF8233007F0E5F9314606
:10095000024628460AF0FEFD1D4A1E4B0721E0FB19
:100960000231184618A3D3E90023FFF719FC636886
:100970009842054621D21B1A00220192164A029380
:10098000164BA21AA3FB02320221920900230A4449
:1009900009AE099112490591CDE903330321069669
:1009A000D2B20093184608F0BBFA314609F080F83D
:1009B00038B9656000200AB070BDFBD9C21A0023A7
:1009C000DBE70C200AB070BD8D49FD1A070000005E
:1009D00000CA9A3B8C49FD1A64230020ABAAAAAA3C
:1009E00029910000000000002DE9F04F05468BB072
:1009F0008B46012002219946144612F03BF8002252
:100A000002218246012007F039F82F494FF4D472B1
:100A1000284606F0BFFFC61C2C4B0093F6B201958A
:100A20004B4632460121002008F0C8FA10F0FD0FB5
:100A300042D1274BA4FB0348204621A3D3E900233E
:100A40004146FFF7ADFB089506956B680493214B73
:100A500020F07F47A7FB0331E01A1F4B07934FF0AD
:100A600007021E4B059302FB07114FF6FE7368EB5E
:100A7000010103934FF47A720023FFF791FBCDF845
:100A800000B0CDE901704B4632460121002008F04C
:100A9000D5F910F0FD0F0DD1BAF1000F02D10BB056
:100AA000BDE8F08F0122022110460BB0BDE8F04FE7
:100AB00006F0E4BF00DEEFE700DEBAE7AFF3008048
:100AC0008D49FD1A07000000700B0020D9BB000003
:100AD00000CA9A3B8D49FD1AC1BB000061050100A7
:100AE0002DE9F0418468A28C4FF6FF739A428CB0D6
:100AF00000F0C080054620460DF020FB2B7D012B29
:100B000000F0E680022B00F0B88033B994F88E3004
:100B100003F01803182B00F01C8194F86471002F67
:100B200040F0AE802B8AE68D94F93720CDE90A7724
:100B3000002B00F0AC80002AC0F221810023A4F831
:100B40009031AB7CA28D03F00303551C012BADB299
:100B500000F0BA80B4F89431002B00F0BF80AB42B3
:100B600040F237815B1B9BB2062BA4F894314FF007
:100B700000028CBF00230123E2851F4694F83C202D
:100B800063F3820284F83C2029460DF127022046B7
:100B90000DF094F8743000F01681B4F88E312BB15A
:100BA000AB4240F2BF805B1BA4F88E31B4F88A31AF
:100BB0002BB1AB4240F2C6805B1BA4F88A31E58DB5
:100BC00017B9AE4200F0AC800135ADB294F8D13027
:100BD00013F0010609D1DDE90AC3B3BBBCF1000F74
:100BE00000F0E9801E46194630E094F9372023F0E2
:100BF0000103002A84F8D130C0F28A8094F876008C
:100C0000C0F3C00100F0070010F02EF9B4F86E2018
:100C1000B4F86C301344E28B03F23F1313441844CE
:100C20008D4A8E4B0721E0FB0231184688A3D3E999
:100C30000023FFF7B5FA616820F07F408142DDE9CB
:100C40000AC380F0B280461A60600021A28C246939
:100C50000694CDE903570332814D0291CDE900C6D8
:100C6000D2B201210020059508F05AF910F0FD0FCD
:100C700040F0B4800CB0BDE8F0813D2784F8647189
:100C8000394620460CB0BDE8F0410BF0CBBB002A42
:100C9000B8BF84F8D570AB7CA28D03F00303551C5C
:100CA000012BADB210D0B4F89031002B3FF452AF0D
:100CB000AB4240F29A805B1BA4F89031B4F89431B7
:100CC000002B7FF44CAF59E70023A4F8943155E78B
:100CD0000023A4F88E31A4F88A311EE7E38C052B9B
:100CE0008BBF40F2E2424FF4FA725A4303FB0222F6
:100CF000B4F8923142F2107101FB0323013BB3FBC4
:100D0000F2F39BB2A4F89431002B7FF428AF35E7BF
:100D100094F87700012100F0070010F0A7F875E7BC
:100D20003D4653E708F094FE0146002864D00023B6
:100D3000A4F88E31A38CC3801B230371006808F0D4
:100D400059FE33E70023A4F88A3120460DF048F815
:100D500035E7218DB4F88C218B1D9A42C4BF931FB7
:100D60005B1AB4F88811CCBF9BB21346994256D097
:100D7000A4F88831A4F88A31A4F88E21CDE694F83D
:100D8000D530002B3CD0013B84F8D53004F1E0088D
:100D900040460CF0B9FD002855D040460CF0B4FD9B
:100DA000002842D00023E385C8E6091A6060A3BB8F
:100DB00051EA0C021ED115B9002F3FF45BAF00269B
:100DC0003146334642E79DF8271020460BF02AFBB8
:100DD00050E7082120460BF025FB4BE708F092FE78
:100DE00084423FF447AF00DE44E73E2120460BF04B
:100DF00019FB3FE71E4629E70123A4F88E31D5E60B
:100E00000AAA0BA92846FFF7A7FBDDE90A2313432B
:100E1000BCD0237884F8D530B8E7002616E7B4F8BC
:100E20008E1100297FF479AEA4E70246D4E91E01B1
:100E300006F0E8FD0028B5D194F83C301B0744BF0C
:100E4000238DE3857AE6FF200BF0AEFAA5E700BF1D
:100E50008D49FD1A0700000000CA9A3B8C49FD1A13
:100E600019BC0000000000002DE9F04F87B0B0F879
:100E70006071BDF84C900091CDE90423B0F82431A5
:100E8000BDF840A01F44BFB20446A7EB090390F889
:100E90007600D4F81C819EB2BDF844300193C0F3B3
:100EA000C001BDF84830039600F0070002930FF030
:100EB000DBFFE58C052D40F2A38015FB06F5ADB2F6
:100EC00040F2E24BBAF1050F40F28E80B4F86E208A
:100ED000B4F86C30134403F2D5130344764A7748D0
:100EE0000721E3FB02014FF09613E361962323846D
:100EF0006FA3D3E90023FFF753F9564620F07F4054
:100F000040F2E2430BFB05F203FB06F6531E3344AB
:100F1000B3FBF6F31FFA83FB60600BFB06F0824223
:100F20005D4653D26449801AA0FB010160A3D3E956
:100F30000023FFF735F920F07F408044B4F82421E6
:100F4000B4F86031A9EB07094D44ADB213442B440A
:100F5000A4F86031638D13441D4494F837306585DF
:100F6000DB0955D100DE00273546019B2385029B16
:100F7000A4F8923131462046A4F826A00CF0CAFE0F
:100F80004F4B218D3344881DB3FBF6F39AB2904248
:100F9000A4F88C2104D2C1F57F41FA310A4492B2FF
:100FA000009BA4F8882113B10023A4F89431434690
:100FB0002A4639462046FFF717FD94F8623143F080
:100FC000010384F8623107B0BDE8F08F121A3A4885
:100FD000A2FB000136A3D3E90023FFF7E1F820F0DC
:100FE0007F40A8EB0008A9E74FF096130AF101062D
:100FF000E36196232384B6B20A204FF4FA7381E7A3
:10100000039B013515FB03F5ADB24FF4FA7B59E7AD
:10101000216CA36C284F01FB0233039A01FB1233AE
:10102000A3640023C4F8DC3010F0EEF8054694F811
:10103000D400C0F3420010F0E9F8054406FB05F5C2
:10104000204B1E4805F5742505F23F25A3FB053509
:10105000AD0CA36C25640BFB05FB72085B44963A50
:10106000934228BF1346C4E91123049B40F2E2498E
:1010700009FB03F307212365EBFB07010CA3D3E96D
:101080000023FFF78DF8104B059AA8EB0008A3FB8F
:101090000230800A09FB00F0A0FB070104A3D3E99A
:1010A0000023FFF77DF8751B20F07F475DE700BF49
:1010B0008D49FD1A0700000000CA9A3B8C49FD1AB1
:1010C0007FC3C90183DE1B435917B7D1000000005D
:1010D0002DE9F04F0D460968B0F82EE0D1F80090E8
:1010E0000146144651F82EAB52F8086B91F802C035
:1010F000834691B0D0F81E00BBF822109BF81C70FC
:10110000A4F808E082F802C0DBF82A206260DBF86D
:101110003A20C4F82220ADF83C109BF83E100E9007
:1011200084F8261010AB13E9030004F122020C909E
:10113000ADF834101046052106F0EEFD94F8272096
:1011400000F03F0060F3050284F827209BF83F2061
:10115000C2F3040184F82810BBF83410E18201289E
:10116000C7F380170DD902F01F021B3202F01F02D5
:101170000B2A06D889B2063989B240F67A429142E2
:1011800019D90021C9F8081094F82C2061F3000245
:1011900084F82C200125DBF80C408BF804505046D5
:1011A000594608F01BFC20682571214611B0BDE8A6
:1011B000F04F08F01FBC2A6800215160BBF83620B0
:1011C0002283B4F81680BBF832300A9340F2E24230
:1011D000304602FB08F80CF0B1FD9BF83F1096F882
:1011E000D400490961F3430086F8D40010F00CF8EC
:1011F0000B9096F8D400C0F3420010F007F80B995A
:10120000084408FB00F0984900F5742000F23F20E4
:10121000A1FB00104FEA5801800C963920636163EE
:101220009BF8311040F2E24201FB02F26264BBF82B
:101230003820A6F89221414630460CF06BFD8B4ACF
:101240008B49C6F898114244B2FBF8F290B2A6F866
:101250008C01218B01F1060C604504DDC1F57F4155
:10126000FA31014488B25946A6F8880111F81C2FBA
:10127000C907C2F3401200F1E680BDF83410ABF8A4
:1012800023100C988BF81E704FF48071CBF81F0060
:10129000ABF81C10E18AABF82610218BABF82810B4
:1012A000B6F89211ABF82A1096F8D4100B92C1F34D
:1012B00042018BF82C1030460AF03CFD5946A082C2
:1012C000ABF8060050466F6808F088FB0B9AA18ABD
:1012D000D7F800A0F9801C233B71002A40F09F80C2
:1012E0003A773946504608F085FB94F86700B4F821
:1012F0005CA0B4F85E70012100F007000FF0B6FDAD
:10130000574407F2D5173B1882465A4F5A480721CF
:10131000E3FB07014FF09613C4E9033350A3D3E96D
:101320000023FEF73DFF20F07F407060EB680A98D5
:10133000226B40F2E24101FB003404F2B34402218B
:10134000A41A0120A8EB0208002206F097FB4846E9
:101350000AF0CCFAA4EB0A0441A3D3E900238246A5
:10136000A4FB0701FEF71CFFCDF80490AB684349CE
:10137000009120F07F470AF10202363BD2B23B4493
:101380000121002007F01AFE01285ED099F81830DC
:10139000DB0750D430460AF0CDFC364CA8FB04489D
:1013A0002FA3D3E90023834641462046FEF7F8FEEB
:1013B000AB68334A0792A3F1360A324B069620F007
:1013C0007F49A9FB0331E01A2F4B05934FF4F873C3
:1013D0000893736804934FF0070303FB091168EB4C
:1013E000010100244FF47A7200230394FEF7D8FE23
:1013F0000BF10305EDB2CDE90190009753462A4663
:101400000121204607F01AFD10F0FD0F23D1012223
:101410000221104611B0BDE8F04F06F02FBB94F842
:10142000273043F0400384F82730201D0FF086F961
:101430000122208554E7002301220093184611461B
:1014400007F086FDA6E700DE17E708F05BFB8145A5
:101450009CD000DE9AE700DED9E700BFAFF3008042
:101460008D49FD1A0700000083DE1B437FC3C901BD
:10147000404B4C0000CA9A3B8C49FD1AE90501001B
:10148000390501008D49FD1A6105010000000000C9
:10149000F0B5C468636883B00546002B40D110F0F6
:1014A000F5FE002010F016FF0021084610F004FFA2
:1014B00000222521082010F06BFF374B019301A873
:1014C00010F052FF354940F25B6011F00FF8237ABB
:1014D000C3F3420262F306132372204610F01AF897
:1014E00027682E6838460FF079FC06446A6806F1D2
:1014F0000901012011F022F911F0E2F920460AF069
:1015000001FA811C3246C9B238460FF069FC054623
:1015100098B920460FF03EFC68B9002003B0F0BD3A
:1015200093F82C309B07BAD01D48214610F082FE5C
:1015300010F07AFFF1E700DEEFE71A4A1A491B487C
:1015400040F2114316F02FF9194B0721A5FB0303B5
:1015500001FB05310EA3D3E90023FEF721FE154957
:101560000246154816F01FF9002585F31188BFF3D0
:101570006F8F0323184602DF1048214610F05AFEF1
:1015800010F052FF6FF08B00C8E700BFAFF3008090
:1015900000CA9A3B00000000D6BE898E5555550002
:1015A0001D0F01001CC8010068C80100E4C701004C
:1015B0008D49FD1AB0C901006CC801001912010063
:1015C0002DE9F043C468A28A4FF6FF739A4283B0B4
:1015D00000F0FD80064610F0C3F93389628B208C41
:1015E00094F82710A3831A4492B2104480B2431C8B
:1015F00023840023638301F03F034906E28300F163
:10160000A48094F82810009304F1290004F1220327
:101610000FF056F80546D4E90C31A26BA08BA363FA
:1016200003FB0022E36B8A4294BF9B185B188B423A
:1016300028BF0B46626CE363236C94F867101A446E
:1016400094F82C3061F306130021C4E9101294F8C9
:101650007E2084F82C3012F0040200F0898010F013
:1016600015FE002010F036FE201D10F07DFE2389AF
:10167000A17A40F25B6043EA014110F037FF28464F
:101680000FF0BEFB2146584810F0D4FDA08911F0A0
:1016900049F894F8662094F86700C2F3C00300216B
:1016A00002F0070200F0070010F086FF204610F05D
:1016B000F1F9D4F80080376840460FF08FFB0744FB
:1016C000726807F10901002011F038F8814611F025
:1016D000CBF8002011F0E2F8E36B94F8670003F117
:1016E0002F02636C012100F0070003EB420510F0AC
:1016F0008DFE4D44054494F8670000F00700022871
:1017000034D004280CBF4FF4BC73282301211D449E
:1017100010F07EFE284411F099F8A18A03313A4670
:10172000C9B240460FF05CFB0546A8B1B37A13F08E
:1017300002062BD000252D48214610F07BFD10F02D
:1017400073FE284603B0BDE8F083218D04F1220228
:101750000EF0F8FF05465EE720460FF01BFB002861
:101760003CD10025284603B0BDE8F0831823CDE71F
:10177000D4E91A0106F046F900287FF470AF94F816
:101780007E3043F0040384F87E3068E7184A194934
:1017900019484FF4AC7316F006F818480721A5FB5A
:1017A000000301FB05310EA3D3E90023FEF7F8FC8B
:1017B00013490246134815F0F6FF86F31188BFF36C
:1017C0006F8F0323184602DF6FF08B05B3E70E48D7
:1017D000214610F02FFD10F027FEC2E700DEC0E723
:1017E00000CA9A3B00000000B91C0100FD0E010078
:1017F00098C8010068C80100E4C701008D49FD1ABE
:10180000BCC901006CC801001D0F010000000000F0
:10181000032973B50546144661D8002A40D0072A2B
:101820005DD15A681C683848D1171346C4FB003193
:10183000012B71F1000225DB00F56E1000F65D70E2
:1018400018182FA3D3E9002341F10001FEF758FC3B
:1018500080B202282A691DD004281DD008281DD076
:10186000102832D10323294951F8231011615268FD
:1018700014691B01302223212846A44602B0BDE88A
:10188000704060472248181861F100011CA3D3E999
:101890000023DBE70023E6E70123E4E70223E2E796
:1018A0001A8806691B4B33F8021B8A420AD17368F7
:1018B0000DF107029B68202128469847002807DA87
:1018C00002B070BD01340B2CEDD16FF01500F7E7BD
:1018D0009DF807201107234604D4082C05D16FF08A
:1018E0008500EDE7092CA8BF092302F00F0242EAA8
:1018F00003127368D2B2DB68202128469847DFE7DD
:101900003AA395000000000040420F00100500209F
:10191000632EB5FF00CC010038B500F0F9F900F0F6
:10192000DBFC0E4C0E4D00F083FA002802DD20682F
:10193000EE280AD92146284601F014F800F008FDE7
:10194000002121201AF0E1F8EDE7C0F1EF01284471
:1019500000F036FA236803442360E4E7C80F002050
:10196000A6340020036803F01F025B09026004D064
:10197000012B034818BF002070474FF0A04070476C
:101980000003005007B5019001A8FFF7EBFF019B92
:1019900000EB8300054BD0F80027134043F003030E
:1019A000C0F8003703B05DF804FB00BFF0F8FCFF9F
:1019B00037B50B460446054800218268009115683A
:1019C00021464FF48062A84703B030BD10C001002B
:1019D00008B50D4819F04CFDA0B10B4819F048FDB1
:1019E00080B109484FF4B012032115F076FB48B9D5
:1019F00005484FF4B012042115F06FFB10B9034BEA
:101A000001221A7008BD00BF84BF01009535002077
:101A1000104B1B780A46DBB1012817D0022817D1DA
:101A20000D4B19790D48012303FA01F103691B6875
:101A3000003A03EA010318BF0122003B18BF01234B
:101A40009A42836814BFDB681B691847044BE8E7B8
:101A5000704700BF95350020E0C3010084BF01003E
:101A6000E8C30100012837B514462AD880F00103E5
:101A7000154AD55C154A494252F82300144A49B226
:101A80000029D35C0ADD63B1019001A8FFF76AFF6A
:101A9000019A01239340C0F8083504E00ED0002BD2
:101AA000F2D015F035FBC4EB8421FF23B1FBF3F139
:101AB000284603B0BDE83040FFF77ABF15F028FB99
:101AC000F6E703B030BD00BF16CC0100D8C301005B
:101AD00016CC010000487047F0C3010007491420EC
:101AE000034601380A5C12F0DF0F01D0184601E00E
:101AF0000028F5D1012838BF012070477205002069
:101B00004B1E59425941014B1970704796350020C0
:101B100030B51C4B1B688DB0002B30D140F2011347
:101B2000ADF80C3006238DF8083002AB049309237E
:101B30008DF81430FFF7D2FF134D144B8DF81500BC
:101B400006930FCD07AC0FC42B68236001230093CD
:101B500003A90F4B022207A803F0C6FA014670B191
:101B600010F1780F0BD00B4815F010FE0A4842F226
:101B7000676200230DB0BDE8304014F033BA0DB0F9
:101B800030BD00BFCC0F0020A0C3010072050020B3
:101B9000F8C3010018CC01000000002010B5044675
:101BA00019B1BDE81040FFF7B3BF044819F0B5FE06
:101BB000204616F0A5FE024B186010BD0000002064
:101BC000CC0F002008B5054B1B682BB903F0ACFB0C
:101BD000BDE80840FFF79CBF08BD00BFCC0F002048
:101BE000014813F0E5BE00BF70060020F8B51546A9
:101BF0001E464FF0FF324FF0FF33124813F066FEDF
:101C0000114B124819880488DFF844C077186A1EFF
:101C1000BFB20025B94202D0B1F5007F06D30DB1A5
:101C200004801980FFF7DCFF3046F8BD12F8015F31
:101C30000CF8045001310134C4F3080489B20125C1
:101C4000E8E700BF70060020EC300020EE300020F6
:101C50009735002010B50E4C206818B103F0D8FC61
:101C6000002323600B4B00241C704FF0FF324FF019
:101C7000FF33094813F02AFE084B1C80084B1C80D8
:101C8000084B1C80FFF7ACFFBDE81040FFF740BFDA
:101C9000CC0F00209635002070060020F030002088
:101CA000EE300020EC30002070B50D46064600B343
:101CB000D9B1FFF713FF0428044618D90E490F487D
:101CC00004221AF067F8B0FA80F35B099B00E41A6B
:101CD000A5420A4998BF05F1FF341944224630460F
:101CE0001AF029F8002333552546284670BD0023F5
:101CF000EDE70546F9E700BF3CCC01007205002086
:101D0000024B1868003818BF01207047CC0F002024
:101D100030B5134887B003F0C1FF002002F046FE43
:101D2000054630B101460F4807B0BDE8304015F018
:101D30002DBDFFF7D3FE0C4902460446684619F054
:101D4000FAFF04F118030DEB0304684604F8185C6D
:101D500002F05CFA07B0BDE83040FFF7D9BE00BF23
:101D6000B001002041CC01007205002070B5114B7C
:101D70001E6886B005460C4616B9002006B070BD38
:101D80000D4B1B78002BF8D00028F6D00029F4D09A
:101D900000211822684619F0F5FF084BADF80C40F9
:101DA00069463046CDE9013505F04EFC0028E4D106
:101DB0002046E3E7CC0F00209635002028C4010020
:101DC000F8B50D46044640B3A1B14FF0FF324FF0D5
:101DD000FF33134813F07AFD1248134902880B8829
:101DE000DFF848C00027013C3E462BB997B9FFF702
:101DF000F7FE35462846F8BD01361CF8027004F897
:101E0000017F0132013BB542C2F308029BB24FF0A1
:101E10000107EAD102800B80E9E70546EAE700BF47
:101E200070060020F0300020EC30002097350020B4
:101E300010B54FF0FF324FF0FF33044813F046FD6A
:101E4000034B1C88FFF7CCFE204610BD7006002017
:101E5000EC300020F7B5074640F2E730002300EBF6
:101E6000C130104E4FF47A72490CFEF799F933687D
:101E700005460C4653B911F001FC306030B92846D4
:101E8000214603B0BDE8F04015F0A4B900F07CF89D
:101E90000121009130683B464FF0FF3211F060FBAA
:101EA000EDE700BFD00F002070B5334C88B000259F
:101EB000FFF726FFB8B17DB930484FF4E171FFF765
:101EC000C9FF2F484FF46171FFF7C4FF206818B1B4
:101ED00018F016F800F05EF84FF40050002115F0ED
:101EE00079F90125E4E702AE15213046FFF7DCFE63
:101EF0004FF42F7105462148FFF7ACFFFFF700FFB5
:101F0000E0B92368E3B100F03FF81E4B206800966B
:101F10004FF42F72022111F063FB00260435B54205
:101F200014D82368EBB90A25FFF7EAFE30B94FF45D
:101F30000050002115F04EF9013DF5D10025B7E71D
:101F400011F09CFB20600028E7D0DCE7FFF7D8FE0B
:101F50000028E6D145F69A10002115F03BF901362C
:101F6000DDE7FFF7CDFE0028DDD1206817F0C8FFC0
:101F700000F010F8D7E700BFD00F0020CFD301004A
:101F8000CAD3010058CC0100014BFF221A707047E0
:101F900097370020014B00221A70704797370020B6
:101FA00008B511F06BFB014B186008BDD40F002081
:101FB00037B50F4B0446186820B12CB917F0A0FFB5
:101FC0000C4B1C7003B030BD0A2CFBD8094D2B788C
:101FD000A342F7D0084A631E012103EB8303134495
:101FE00000914FF0FF3211F0BBFA2C70EAE700BF0E
:101FF000D40F002097370020D4D3010008B5044B3C
:10200000186820B117F07CFF024B00221A7008BD3F
:10201000D40F00209737002037B50F4B0F4A012807
:1020200008BF13460E4A1078A0B118681C790569DC
:10203000836801A95B68984740B92B6801985840AC
:102040000123A3401840003818BF01200028D4BF46
:102050000020012003B030BD78C4010080C401001D
:102060009B37002038B5431E012B04461FD8104D66
:102070002B78BBB90F4819F0FBF998B10D4819F04E
:10208000F7F978B10B484FF001120E2115F0A4F8C2
:1020900040B908484FF00112172115F09DF808B912
:1020A00001232B702046FFF7B7FF034B185538BDAF
:1020B0009B37002084BF010098370020431E012B6E
:1020C00010B504460AD8FFF7A7FF0549024618B124
:1020D0000B5DB3FA83F040090A5510BD0020FCE700
:1020E00098370020024B00225A709A70704700BF48
:1020F0009837002008B5064819F0BAF938B1054BF1
:10210000054801221A70BDE80840FEF7D5B908BDA0
:102110002CC001009C37002060E31600064B1B78A2
:102120004BB1002803DC04D10448FEF7C5B90448CC
:10213000FBE70448F9E770479C37002060E316008E
:1021400080841E0040420F00034B1B7813B1002017
:10215000FFF7E4BF704700BF9C370020F0B5104A7E
:102160001088E0B1002313800E4A2C24164640F25A
:10217000022504FB03F1715AA9420BD1117B4F1EBA
:10218000082F07D820FA01F1C90741BF01211170BA
:10219000002151700133052B02F12C02E9D1F0BD71
:1021A000F2300020D80F002001480321FFF7DEBDE8
:1021B0000BD4010001480421FFF7D8BD06D401006B
:1021C0000D4B10B5002418462C22002119F0DAFD21
:1021D000847401340346052C03F12C03F3D1074A20
:1021E00000231380064A1370064A1370FFF77AFF24
:1021F000BDE8104014F0DCBFD80F0020F230002002
:10220000C33700209D3700202DE9F04101460546E7
:10221000244815F0C5F80446FFF7D2FF14F0C7FFB5
:10222000214B1D700CB1237833B920480022294678
:10223000BDE8F04114F0CDBF00211D4B221D04F17B
:10224000090704F10E0001264FF0020C8E4692F8A9
:102250000580B8F1010F16D9117800EB0108415C37
:10226000102901D0A12903D1A3F810C01E7009E0E4
:10227000112913D198F8018083F80C80022119826A
:102280001970597001210132BA4203F12C03DED1D9
:10229000084B6288197008482946C9E7A3F810E07E
:1022A000E4E700BFF4300020C43700206ECC01000A
:1022B000D80F0020C337002076CC0100431E082B26
:1022C00006D8044A012303FA00F01388184310804B
:1022D000704700BFF230002008B5164815F023F80B
:1022E0000021DC22144819F04DFD134A1348012344
:1022F00082F83E30022382F86A30032382F8963057
:10230000042382F8C2300E4A002313700D4A137062
:102310000D4A13700D4A138015F08AF8FFF758FB29
:10232000FFF73EFE14F016FFFFF7E4FEBDE808409D
:1023300014F03EBFF4300020D80F00209E3700205C
:10234000C4370020C33700209D370020F230002022
:102350002DE9F04FAB4B1B7885B0002B00F0C98105
:1023600014F0E3FEA84C0546FFF7F8FE00232246D2
:1023700026462C2001279C4600FB03F1715AB1F53B
:10238000817F06D15168691A0029A4BF177082F8AD
:1023900001C00133052B02F12C02EDD1DFF8688278
:1023A00000274FF02C0940F2023A09FB07F3F35AD9
:1023B000534510D198F80C00431E012B0BD8FFF7A2
:1023C0007DFE40B1012388F80030002388F80130F9
:1023D000F8B214F0EEFF0137052F08F12C08E4D114
:1023E000894F4FF000084FF02C0940F2027A09FBA8
:1023F00008F3F35A534512D17B68EB1A002B0EDB1E
:10240000797B387B14F0A3FE00285FFA88FB3DDD62
:1024100001233B7000237B70584614F0CAFF08F17B
:102420000108B8F1050F07F12C07E0D1764F4FF006
:1024300000084FF02C0940F2026A09FB08F3F35A36
:1024400053450CD17B68EB1A002B08DB04233B704F
:1024500000233A7B6D487B70414614F0BAFE08F1C8
:102460000108B8F1050F07F12C07E6D1DFF8A091BC
:10247000684899F8001014F093FF074608B10378F4
:102480006BBB05B0BDE8F04FFFF79ABE04D1B86052
:1024900005F119037B60C2E701300CD101233B70C9
:1024A000002358467B7014F084FF3A7B5A4841461B
:1024B00014F08FFEB3E7BB6823B9012D2B4638BF5C
:1024C0000123BB60EB1A41F287329342E0D9042327
:1024D0003B7000233A7B51487B704146E8E7504807
:1024E000DFF8248114F0A4FF4D4800F085FA4FF086
:1024F000000A40F2024B2C2303FB0AF3F35A5B451C
:102500000CD1D8F80430EB1A002B52DB14F039FE52
:10251000012388F80030002388F801300AF1010A0D
:10252000BAF1050F08F12C08E5D1DFF8DC804FF097
:10253000000A4FF02C0B0BFB0AF340F20252F35A45
:1025400093421AD1D8F8043098F82610EB1A002BD1
:102550003BDB042902D10020FFF7E0FD0BFB0A63FF
:1025600043F20322DB8C934201D1FFF747FD0123A5
:1025700088F80030002388F801300AF1010ABAF126
:10258000050F08F12C08D6D1002507F1040AA8464A
:102590000E372378012B49D1228A9AF80530511C35
:1025A00099421DDB03231F482370294614F011FEB6
:1025B0003CE098F82530009398F8243098F81220E1
:1025C0001748002114F038FFA8E798F82830009346
:1025D00098F8273098F81220114814F02DFFCCE716
:1025E0009AF800303B44204613F802B01344594691
:1025F0005A7800F007FA052818D8DFE800F05415DB
:1026000052577D88C3370020D80F00208BCC0100A3
:10261000C4370020F43000207BCC010082CC0100C4
:102620009E37002094CC0100638C23820135052D58
:1026300004F12C040AF1010AABD14E4C002000F049
:10264000DBF9204600F018FC94F82430002B64D10C
:10265000494D94F823302A789A4275D100232C21D1
:1026600001FB03F2B25C013A012A42D90133052B86
:10267000F6D1B8F1000F0AD1B4238DF80C30022145
:1026800099F800308DF80D3003A8FFF76FFB3B4B36
:1026900000241C7014F08CFD99F800103848224674
:1026A00010E002232370238A0233BEE7002000F0EB
:1026B000A3F92C2303FB0563DC7C032C07D93148E9
:1026C0000022214605B0BDE8F04F14F082BDB323CF
:1026D000022103A88DF80C308DF80D40FFF746FB62
:1026E000294899F80010224614F073FD2046FFF7A0
:1026F0008BFD05B0BDE8F08F0323228A23482370A9
:10270000BBF1510F08BF48F0010829464EE70423EA
:102710001F4823705A46294648E700252C274FF0CA
:10272000030A94F82430EB40DB0709D507FB05F3D7
:1027300094F82320174806F803A0294614F049FD11
:102740000135052DEDD183E783B1B72194F824201D
:102750008DF80C108DF80D30042199F800308DF8AB
:102760000E2003A88DF80F30FFF700FB94F82330FC
:102770002B7073E79E3700209D370020C337002061
:10278000BCCC01009ACC0100A1CC0100A7CC010077
:10279000AECC0100B4CC0100F0B50C46BDB005468E
:1027A00000B149B900225D48114614F012FD3DB058
:1027B000BDE8F040FFF7FEBC0178A1F1A003052BB6
:1027C00000F2A980DFE803F06A031D30A755022C50
:1027D00003D0534800222146E7E74478032C03D96D
:1027E000504800222146E0E72046FFF70DFDFFF7A5
:1027F000DBFC4D48002221463DB0BDE8F04014F01E
:10280000E8BC4478631E082B03D9484800222146BF
:10281000CBE72046FFF752FDFFF7A0FCFFF7C4FC13
:10282000434800222146E7E7022C1AD14378D3B966
:10283000404A2C21144640F2026001251E4601FB4D
:1028400003F70133E75B874204BF15705670052B11
:1028500002F12C02F3D1FFF7A7FC00223648114603
:10286000CAE7012C03D06A78344821469DE7FF224D
:10287000FAE7022C0AD1467856B9FFF7A1FCFFF718
:1028800093FC2F4B2F4819783246B5E7012C03D023
:102890006A782D48214688E7FF22FAE72B4B1B7800
:1028A0000BB1FFF78DFC002304A88DF80F3014F056
:1028B00041FDFFF70FF983880093064604AB0DF145
:1028C0000F022146284614F0D6FC60B9012C18BF2F
:1028D00069781F4808BFFF21224614F07AFCFFF7F1
:1028E00069FC3DB0F0BD9DF80F101A48334604AAAC
:1028F00014F026FD28B9BDF812209DF80F101648D7
:10290000EBE7FFF751FCBDF812209DF80F101348BC
:1029100014F05FFCE5E71248224646E7C1CC01000F
:10292000C7CC0100CECC0100D4CC0100DACC010030
:10293000E2CC0100D80F0020F5CC0100E9CC010069
:10294000C437002006CD0100FDCC0100C3370020B4
:102950000ECD0100F430002015CD01001ECD010088
:1029600024CD01002DE9F3470D460646A8B3A1B3D7
:102970000024A1462F68A74225D9335D0A2B06EB18
:10298000040A01D00D2B01D10134F3E73F1B01AA4A
:1029900039465046CDF8049014F039FC3A4680464A
:1029A0000146134814F015FCB8F1000F0BD0B8F134
:1029B000010F15D19AF800100E483A4614F009FCA0
:1029C000FFF7F8FB2C6844B12A68171B04D03A467D
:1029D0003119304619F0BDF92F6002B0BDE8F0871B
:1029E00001995046FFF7D8FE019B1C44C2E700BF87
:1029F0002FCD010035CD0100014B1860704700BF9D
:102A0000B4100020F0B5622985B004460E46154684
:102A10005AD80F295BD9A1F11003522B57D8DFE800
:102A200013F0290129012B015600560056005600CB
:102A300056005600560056005600560056005600E6
:102A400056005A005A005A005A0075007500560088
:102A500056005600560056005600560056005600C6
:102A600056009500AB00EA00FA00BB00D200BB00A4
:102A7000D200E500E500E500E500560056005600EE
:102A800056000C0124010C01560056005600560059
:102A90005600560056005600560056005600560086
:102AA00056003D01ED0176019701BC015901550128
:102AB000CA01CA01CA01CA01CA01CA0156005600A8
:102AC00056008701E701F401A12900F0D380AA484C
:102AD0002A4631468CE0D5B1A84B186828B100953C
:102AE0000B46A27C002114F0A7FC0423637014F0B1
:102AF0001CFB29460746204614F068FC0744676023
:102B000084F8246084F8255002207FE10DB9052067
:102B10007CE19A4B186828B100950B46A27C0421F1
:102B200014F08AFC0523637014F0FFFA4FF47A73F3
:102B30006B430C22B3FBF2F303446360042384F879
:102B4000263084F8276084F82850DDE76B1EDBB25E
:102B5000082BDCD8894B186828B10095A27C30235B
:102B6000012114F069FC0323009330222B4601213C
:102B7000204614F044FCC7E7002DC8D17F4B1868ED
:102B800028B10095A27C3123012114F055FC0121CC
:102B9000009100233122EBE76B1EDBB2082BB6D885
:102BA000764B1868342914BF0627052728B10095ED
:102BB0000B46A27C394614F03FFC032300932B46BE
:102BC00032463946D4E7002DA1D16C4B186835291F
:102BD00014BF0627052728B100950B46A27C39466D
:102BE00014F02AFC012300930023E9E764482A46F5
:102BF00014F0EFFA8BE7002D89D0604B186828B1EC
:102C00000095A27C3223032114F016FC03210091CD
:102C10002B463222ACE7002D7FF479AF574B186872
:102C200028B10095A27C3323032114F005FC012375
:102C300000933322002303219AE76B1EDBB2082B9B
:102C40003FF665AFB123022103A88DF80C308DF853
:102C50000D50FFF78BF806236370257314F065FAA7
:102C600000F5EA40303060604EE746482A46412190
:102C700014F0AFFA0020C9E06B1EDBB2082B3FF660
:102C800046AF2846FFF71AFBB023022103A88DF8B0
:102C90000C308DF80D50FFF769F8EBE70123437016
:102CA00014F043FA94F82930012D03F1FF3238BFB4
:102CB0000125082A88BF0523C3F105037D2253435C
:102CC000EDB203F57A7305FB0300CCE702236370D2
:102CD000257319E70A2D12D00B2D16D06B1EDBB20F
:102CE000022B3FF614AF032D0AD1072343700423B0
:102CF000838114F01AFA00236060A36004E70125C1
:102D00002846FFF7AFF90323E1E70225F8E7002D96
:102D10003FF4FDAE037D032B3FF6F9AE028A00EBD4
:102D200043010232CA82C218957701332375A1E7A5
:102D3000002D7FF4ECAE037D032B3FF6E8AE028A54
:102D400000EB43010232CA82C218FF219177ECE7FF
:102D5000002D7FF4DCAE037D002B3FF4D8AE013BA9
:102D6000DAB250FA83F3997FFF290DD104EB4202C6
:102D7000D38A6384012049E060CD0100B4100020B3
:102D80003DCD01004DCD01000139C9B2997700292F
:102D9000ECD1038A02750233EBE76B1EDBB2082B22
:102DA0003FF6B5AE012180F8295014F00FFB2946FB
:102DB000024617485CE75B2910D16B1EDBB2032B80
:102DC0003FF6A5AE0423134AD35C23735B2E4FF06A
:102DD000070218BF0025627065738AE7002D7FF433
:102DE00096AEA1F15703DBB2052BECD10323ECE740
:102DF000032D3FF68CAEC574032007E0B6230221F5
:102E000003A8ADF80C30FEF7B1FF042005B0F0BD0B
:102E10005ACD01000FD401003038072829D8DFE847
:102E200000F00C1C282804231E2601204B1E082B12
:102E300017D8092916D114F088B909290BD8012906
:102E400038BF01210B4801EB4103C118C05C8A78EF
:102E5000497814F077B90121F4E714F074B902202D
:102E6000E4E7012114F070B9012014F06FB90220D9
:102E7000FBE7704714D401002DE9F843002604460F
:102E800080F8236080F8246007464FF001083B7803
:102E9000F3B17A78F3B28AB394F8232008FA06F1F2
:102EA0000A4384F82320B97894F824200A4384F84C
:102EB0002420062B07D8DFE803F004120615181BA0
:102EC0001F0014F05EF9BA783D48314614F081F9DC
:102ED0000136072E07F10507D9D1BDE8F88314F0B4
:102EE00032F9F0E7FFF78AF8EDE7FFF72DF9EAE7A7
:102EF000012014F02BF9E6E70220FAE7013B052B4D
:102F000004D8DFE803F0303F3543555894F8039078
:102F100014F048F9A9F120030546032B18D8DFE87F
:102F200003F0020B1B1E024601210020FEF79AFD52
:102F300001212A46084609E002464FF0FF310020F1
:102F4000FEF790FD2A464FF0FF310120FEF78AFD83
:102F50001C482A464946B9E702460121EFE70246E6
:102F60004FF0FF31E1E7617A207AFFF755FFAFE7D5
:102F7000A37C322B03D1E07CFFF71AF8A8E7FFF718
:102F80003DF8A5E7A27B617B0F489FE7E57D242DF7
:102F900014BF4FF0FF394FF001094846FFF7BEF864
:102FA000B9F1010F094814BF0222012229468DE719
:102FB000617F207FD9E794F8221094F82100D4E7AC
:102FC00068CD010071CD010075CD01007ECD0100FD
:102FD000014B1B68184700BFF0010020014B18602F
:102FE000704700BFF001002030B5044685B00D46A3
:102FF00010220021684618F0C5FE02238DF8023029
:103000002A46044B01932146684613F0FBFD05B0A8
:1030100030BD00BFD12F000080B505460E461746D3
:10302000984613F093FA034600F0D2FCDFF81890AC
:10303000044649F80030424630463946A84754F81D
:10304000090000F067FC00BF080000002DE9F04710
:10305000858B0446280717460CD501290CBF45F07F
:10306000100545F02005A58387F31188BFF36F8F06
:10307000BDE8F087022905F0070540F0948020465E
:1030800014F0B9FB052864D801A353F820F000BF61
:1030900069300000A73100005331000015310000F5
:1030A0002F3100004131000001F007035A1F012AAF
:1030B0001FD8002221F00701062BD4F8008089B226
:1030C000C4E9002209D1434603E0E28B0132E283E6
:1030D0001B68002BF9D141F00201A183204614F0B6
:1030E0008AFB4FF0000900286DD041F02001A18338
:1030F00069E0042B0AD121F0070189B2A18320469F
:1031000014F079FB10B141F02001A1834FF00008C9
:10311000C14658E02369D3F80090A38B23F007033E
:1031200043F00603A3834FF0000846464BE02369B3
:10313000D3F80490A38B23F0070343F00403F1E7D3
:103140002369D3F80890A38B23F0070343F005030A
:10315000E8E74FF00008C146E7E7012243F0080323
:10316000A38387F31188BFF36F8F002A3BD1B8F197
:10317000000F4AD1B9F1000F02D02D492046C847AF
:10318000EFF31187202383F31288BFF36F8FA38B94
:1031900023F008039BB2A383D9063FD523F0100286
:1031A000A28303F00705A669A18B002EBFF67CAFB2
:1031B0000023D4F8008021F00701C4E9003341F076
:1031C0000101A1839946A38B03F0070AAA4502D007
:1031D000A268002AC1D1B8F1000F02D1B9F1000FE5
:1031E000DAD00022BAE7A1680029C0D00D68002912
:1031F000BDD04F68334652462046B8471DB12B68B4
:1032000029461D46F3E72B46FAE741463346524628
:103210002046D8F8008014F01AFBA8E79A067FF53C
:1032200023AF23F02002A28303F0070527E700BFA6
:103230007B78010010B5DFF824C086B04FF4281465
:10324000CDE904C40824029404AC0194BDF82040E4
:10325000009416F043FA06B010BD00BF1800280015
:1032600008B50348034A0021121A14F077FD08BD7F
:10327000C0070020F43700200748084A084908B56D
:10328000121A14F06DFD0748074A0849BDE80840C6
:10329000121A14F065BD00BF00000020C007002016
:1032A0007CD6010000000020000000207CD6010038
:1032B00038B505460C4699B1D1E901230F48096894
:1032C00014F064FAD4E90423E1680D4814F05EFABE
:1032D000E1690C4814F05AFAA1690B4814F056FA47
:1032E000012D05D1EFF305810848103914F04EFA8D
:1032F00021462846BDE8384012F060B982CD010071
:10330000B2CD0100E2CD0100F2CD010021CE0100DD
:1033100030BFFFF7FDBF00BF2DE9F0410B4EDFF8D6
:10332000308006EB0807CC1B05463246094920468B
:1033300018F001FDA01942460021083C18F022FDBA
:103340006C6607F10800BDE8F08100BF00000000D6
:1033500004000000A0C3010010B51D4C1D4814F06E
:1033600015FAA36A990130D51B4814F00FFA1E20F4
:10337000A36ADA0103D5194814F008FA1F20144C87
:10338000A36A1B0303D5164814F000FA2120A36A90
:10339000590303D5134814F0F9F922200C4CA36A01
:1033A0009A0303D5104814F0F1F92320A36ADB0334
:1033B00003D50E4814F0EAF92420054A936A6FEA0F
:1033C00003436FEA1343936210BD1D20D0E700BF93
:1033D00000ED00E035CE01004ECE010062CE0100CE
:1033E0007DCE01009CCE0100C2CE0100DDCE0100E9
:1033F00070B5244C064624480D4614F0C7F9A36A5C
:10340000D90435D5214814F0C1F91720A36A1A054B
:1034100003D51F4814F0BAF918201A4CA36A9B056B
:103420000FD51C4814F0B2F9A16BA36A180407D594
:10343000194814F0ABF91EB1A36A23F40043A36248
:103440001920104CA36A590503D5144814F09EF9AD
:103450001A20A36ADA050DD5114814F097F91B203C
:10346000084A936A43F47F43936200232B7070BD34
:103470001620CBE7A36A9B04F2D50A4814F086F91C
:103480001C20EDE700ED00E009CF010020CF010096
:1034900032CF010046CF010060CF010076CF01009E
:1034A00092CF0100ABCF010070B5264C06462648EE
:1034B0000D4614F06BF9A36AD80640D5234814F0E2
:1034C00065F91120A36A190703D5214814F05EF9A4
:1034D00012201C4CA36A9A070FD51E4814F056F907
:1034E000616BA36A1B0607D51B4814F04FF91EB188
:1034F000A36A23F08003A3621320124CA36ADE07A1
:1035000003D5164814F042F91420A36A9C0603D58B
:10351000134814F03BF915200A4B9A6AD10658BF9C
:103520009A6A9A6A920642BF5A6A22F400525A6212
:103530009A6A42F0FF029A6200232B7070BD10203D
:10354000C0E700BF00ED00E0DBCF0100F2CF0100DB
:1035500032CF010026D001003FD0010056D001003B
:10356000ABCF01002DE9F0415D4B5F688AB00446A6
:10357000C7F30806002585F31188BFF36F8F02F0AB
:103580007F43B3F17F4F06D102F00C03082B13D118
:10359000544814F0FBF800252C464FF00008F31EA9
:1035A0008DF80780092B00F28B80DFE803F00A7F9B
:1035B000837B89898989898710074CBF0C4601253F
:1035C000EBE74948464E14F0E1F88DF80780F36ABE
:1035D0009A0704D5454814F0D9F800232AE0F36A85
:1035E000002B01DA4248F6E7F36A5B00F5D5414863
:1035F00014F0CCF87369A26943F480737361BFF36C
:103600004F8FBFF36F8F32F8023C726922F48072E1
:103610007261BFF34F8FBFF36F8F03F47F42B2F538
:103620005F4F27D1DBB2022B24D12168324814F03E
:10363000ADF823689DF80720CAB902AE04F120074F
:1036400020686168324603C20834BC421646F7D18E
:10365000099A002D40D0C2F3080121B96FEA522225
:103660006FEA4222099202A91846FFF721FE0AB02A
:10367000BDE8F0811A4B9A6AD2B22AB10DF1070166
:103680000120FFF711FF0FE09A6A12F47F4F05D077
:103690000DF107010120FFF7ABFE05E09B6AB3F5D2
:1036A000803F9AD3FFF758FE0346C3E70DF10701A9
:1036B0000020E6E70DF107010020ECE70F488AE75C
:1036C0000F4B1049104817F4F87FA6F1100208BFFD
:1036D000194614F05BF880E76FF30802C2E700BFF9
:1036E00000ED00E0A4D00100D0D00100E8D001003E
:1036F0000AD1010019D1010039D1010056D10100D0
:1037000076D001008BD001007BD10100044B5A69B7
:1037100042F010025A615A6922F008025A61704759
:1037200000ED00E0EFF30880EFF3098101B5724688
:10373000FFF718FF01BD00BF0B4880F3088811F0A8
:10374000AFF8202080F3118808484FF4006140183A
:1037500080F30988EFF314800221084380F3148872
:10376000BFF36F8F00F06CF8D0570020904A002014
:103770001EF0040F0CBFEFF30880EFF3098081699E
:1037800011F8021C0229FFD001B5724614F0EAFAC2
:1037900001BD00BF40B2002807DB044A41090123F4
:1037A00000F01F00834042F82130704700E100E044
:1037B00040B200280CDB4309064900F01F0020330B
:1037C0000122824041F82320BFF34F8FBFF36F8F58
:1037D000704700BF00E100E0054B420900F01F0008
:1037E00053F82220012303FA00F01040704700BF75
:1037F00000E100E040B20028A8BF00F1604001F104
:103800000101B8BF064B4FEA4111ACBF00F5614062
:1038100000F00F00C9B2B4BF195480F8001370470C
:1038200014ED00E0044B054A23F07F039360BFF3DF
:103830004F8FBFF36F8F70470000000000ED00E076
:1038400008B5FFF7EFFF0B4AD2F8883023F4700376
:10385000C2F88830EFF3148323F0040383F3148851
:10386000BFF36F8FFFF7FCFCFFF706FD00F092F847
:1038700011F076FF00ED00E042F8203C009B42F89A
:103880001C3C0A49019B42F8183C029B42F8143C3C
:1038900021F001014FF0807342F8043C42F8081C0B
:1038A0000023203A02658366704700BF193000008C
:1038B00000B50B4B98600B4B1546426E1A600E46D6
:1038C0002C4686F309880020034B984720460021A8
:1038D00000220023014C2047897D0100193000009F
:1038E000B8300020B8100020014B10221A61704738
:1038F00000ED00E0054B5A699B689A421FBF044ADD
:10390000536843F080535360704700BFB8300020C5
:1039100000ED00E0084B9B6883420BD1EFF3058379
:1039200043B1064B5A6842F080525A605A6A22F4F8
:1039300000425A6212F010BEB830002000ED00E0E4
:1039400011498A684FF030001044EFF3098C80E889
:10395000F01F202080F31288BFF36F8F0B4F4FF0C2
:1039600000664A698A603E60506E094C2060906E25
:103970000023936680F3118802F1300090E8F01F75
:103980008CF3098870470000B830002004ED00E097
:10399000B8100020044800232021C2180133302B26
:1039A00082F80013F9D1704700E100E008B5EFF3A9
:1039B0000583064A103B02EBC30152F83300496805
:1039C0008847BDE80840FFF795BF00BFB8C00100B9
:1039D0000148006870470000B810002008B5024B8D
:1039E0001B689847002008BDBC100020034B044A08
:1039F0001860937843F0020393707047BC10002066
:103A00000C02002008B50649064821F00701C1F163
:103A1000005202F5003213F076FE002008BD00BF10
:103A2000AF730020C010002070B54169867A0B4D3D
:103A3000044659B1437ADB0706D4282303FB065317
:103A40001B6A1B689B6898470023636128202146F6
:103A500000FB0650BDE8704017F076BEA8060020B7
:103A6000024B282202FB0030704700BFA80600204E
:103A7000827A064B282101FB02335A6A9B7E1B3354
:103A8000801A23F00303B0FBF3F07047A806002070
:103A900038B5074B827A282404FB02331B6AD3E92A
:103AA00001240C601568FFF7E3FF04FB005038BDEC
:103AB000A80600202DE9F04385B00546684603912D
:103AC00090461C4618F0CEF8DDE90067EFF3118947
:103AD000202383F31288BFF36F8F2B8B002B41D0F1
:103AE000EA8A9A4225D900220023284611F0B0FF25
:103AF0000446F0B189F31188BFF36F8F039B002B4D
:103B000041D032463B46684618F0D1F8A27A264B9F
:103B1000282101FB023320461B6A1B6803A91D688C
:103B2000DDE90023A847606170BB2046FFF77CFFFA
:103B300024E0298B4B1E2B8389F31188BFF36F8FF1
:103B4000AB7EEA8A6C6A1B3323F00303521A02FB32
:103B50000344154B154AEB1ADB105343A372AB7E9B
:103B6000E372CBE789F31188BFF36F8F2346424698
:103B7000284611F06DFF04460028BFD100242046DE
:103B800005B0BDE8F0836361012300252381039B19
:103B90006382E27A6560294604F1180018F0F2F8B1
:103BA00063692582E360EAE7A8060020CDCCCCCC8F
:103BB00070B50D4C282500B970BD037A4668002BFE
:103BC000FAD0013BDBB20372002BF5D1C360436036
:103BD000837A05FB0343DB6913B198473046EAE774
:103BE000FFF722FFFAE700BFA8060020024B0122E0
:103BF000C3F840250020704700E0014048B1054B64
:103C0000054A1B68B3FBF2F35843044B43F001032E
:103C1000184770472805002040420F00D0C301001C
:103C200008B5054A054B136010463C23536010F05D
:103C3000A9FE002008BD00BFCC1000203FC00F002F
:103C400030B50378012B11D0022B21D06BB9154B65
:103C50000A4603F1100453F8045B42F8045BA342E4
:103C6000F9D143881A0A8A70CB7030BD0D4B0A46D1
:103C700003F1100453F8045B42F8045BA342F9D14A
:103C800043681A0C180E4A700870C3F30722EAE75B
:103C900000F11003013913F8012901F8012F9842AE
:103CA000F9D1E2E74CD4010010B514F0B9F917F0DE
:103CB00072FE044608B912F085FBBFF35B8F064B1A
:103CC0001B68BFF35B8F0BB10A2098471CB9BDE896
:103CD000104012F08BBB10BDD410002038B5044644
:103CE000084814F07FF8054648B1631EDBB21F2B6D
:103CF00096BF054A0021D15C0C3014F0EEF828463E
:103D000038BD00BF700700205CD401000F2810B53B
:103D10000CD80D280CD90A4814F064F8044618B1E0
:103D200004210C3014F0D9F8204610BD1328F2D02D
:103D300009B10448F0E7BDE810400220FFF7CEBF0C
:103D400098070020F806002038B5C5682B7893B98D
:103D5000B5F801400F21204601F048FDEB780546FB
:103D600050B90A4A118831B96FEA04506FEA10500D
:103D70001080074A137038BD4372012101F09EFC88
:103D80002846BDE8384001F043BC00BF763400202F
:103D9000C537002010B586B003AB00240093074957
:103DA000074805944FF0FF334FF48062CDE9034498
:103DB00012F07CF8204606B010BD00BFF83B002092
:103DC0003008002010B5084C0146062294F86F0018
:103DD00001F0C0FF38B994F86F000449BDE8104005
:103DE000052201F0B7BF10BD3000002032D4010021
:103DF00010B5012104460C3014F090F82146034A16
:103E00000078BDE81040002314F0D7B9F4C50100D4
:103E100010B5012104460C3014F080F82146034A05
:103E20000078BDE81040072314F0C7B9BCC50100F5
:103E300070B5314813F0EFFF044600285AD000F166
:103E40000C05284614F072F8022805D004282FD05B
:103E50002046FFF7ADFE21E0238A032BF8D9042189
:103E6000284614F05BF8FF22438806882276228ACF
:103E7000C6F30B009A426083EAD10F2101F0B6FC31
:103E800005460028E4D001F0CDFC320B2076214617
:103E9000284614F0E5FC284601F0BAFB174BD3F88E
:103EA00034313BB3BDE870401549164817F0F8BCF3
:103EB0002846022114F032F8054600783E2812D038
:103EC00014F00BF910F002060DD10F4A0F491048FB
:103ED00040F69A4313F067FC86F31188BFF36F8FA7
:103EE0000323184602DF0B4A28780423214614F0E6
:103EF00064F9ADE770BD00BF640100203000002010
:103F0000B0020020C00800208FD10100C3D1010001
:103F1000F1D101009CC5010010B5012104460C300F
:103F200013F0FCFF2146034A0078BDE8104002234D
:103F300014F043B98CC501002DE9F0470C4612F08E
:103F400041FAE5682B78022B67D0042B05D0204678
:103F5000FFF72EFE6FF0150408E0B4F81080B8F1FA
:103F6000020F08D82046FFF723FE002412F03EFA85
:103F70002046BDE8F08768783E2809D1B8F1030FE4
:103F8000F0D0EB78012B01D00A2B46D1032704E0B7
:103F900014F0A3F80746F8073FD504F10C060121F9
:103FA0003046D4F814A013F0B1FF0221304613F0CC
:103FB000B5FF814600783E2807D1E3681B78012BC6
:103FC00001D00A2B06D1032614E014F086F8C107AD
:103FD00006460FD4174A1849184841F2681313F0DF
:103FE000E2FB002383F31188BFF36F8F032318468E
:103FF00002DF0226124A99F800000623214614F037
:10400000DCF8B20712D56369A4F81080A5EB0A05A5
:1040100013FA85F5E560BB07A7D52146094813F0DB
:10402000E5FE0949094817F03BFC9EE72046FFF7EB
:10403000BFFDF0E78FD101000ED20100F1D10100E8
:104040005CC5010064010020B0020020C00800200F
:104050002DE9F047884616468246002870D0BFF307
:104060005B8FDFF8E090002359E8004F49E8003209
:10407000002AF9D1BFF35B8F002C61D02046FFF7F7
:10408000F7FC314D0C2303FB005027464388534572
:1040900011D0BFF35B8F59E8003F49E80072002A56
:1040A000F9D1BFF35B8F002B4AD01F463846BDE8DD
:1040B000F047FFF77DBDA64208D0204613F08DFEE5
:1040C000328AF16804F10C0013F0FEFE2046FFF77F
:1040D000CFFC0C2606FB00504368ABB1B8F1000FD3
:1040E00012D12046FFF7C4FC06FB005001214268B4
:1040F000536803F01F00814010685B0900EB8300E8
:10410000137ACBB114F028F82046FFF7B1FC0C2647
:1041100006FB00508368002BC8D02046FFF7A8FCA0
:10412000704305F800802046FFF7A2FC06FB00550F
:10413000A86811F0BFFCB9E7C94314F055F8E3E7EC
:10414000BDE8F08760010020D8100020094BBFF3C4
:104150005B8F1A68BFF35B8F02F00B02BFF35B8FBC
:1041600053E8001F43E800200028F9D1BFF35B8F1C
:10417000704700BF0401002010B5C1E900239DF87D
:1041800008300B720C46FFF773FC034B0C2202FB4A
:1041900000335C6010BD00BFD8100020F8B50246A7
:1041A0000B46104813F01EFE0446C0B104210C302B
:1041B00013F079FE2046FFF75BFC0B4D0C2707FB45
:1041C0000050002646802046FFF752FC07FB0050B7
:1041D00086602046FFF74CFC07FB00556E602046CA
:1041E000F8BD00BF48070020D8100020034B01464F
:1041F000D3F8500182689268104700BF3000002059
:104200000148042113F0A8BF0401002038B5054679
:10421000FBF7EAFF1428044610D80A482946FBF7A2
:10422000D9FF48B122460748294617F084FD064BBE
:104230002344002283F85421002038BD6FF00B0086
:10424000FBE700BF840100203000002000487047D9
:10425000840100200149024817F022BBA00200207F
:104260003008002070B505460C4639B1CB684A6964
:104270009B1A032B0ED86FF0150509E04FF0FF30A5
:104280004FF0FF31FFF78AFF044618B96FF0680559
:10429000284670BD2046FFF7EBFB144B0C2202FBB7
:1042A0000033A618032130465D8013F01EFE058002
:1042B000238A033B83700121304613F01EFE40F633
:1042C00035439D4209D12046FFF790FF054600285F
:1042D000DED02046FFF76CFCDAE70548214617F0F0
:1042E00028FA0025FFF7B6FFD2E700BFD81000205C
:1042F0006C0100202DE9F043064685B017460C46B8
:1043000069B94FF0FF304FF0FF31FFF747FF044628
:1043100058B96FF06805284605B0BDE8F083887A83
:10432000FFF79EFB304B834258D1012200216846A3
:1043300017F018FA2046FFF79BFBDFF8B0900C232C
:1043400003FB0090C0F808D0204613F07AFD014628
:104350003046FFF787FF054618B12046FFF728FCD7
:10436000D9E74FF4A0220023684611F0D7FB80461E
:1043700090B14FF4F1731E4A1E491F4813F013FA0F
:104380001E484246314613F00EFA85F31188BFF3FA
:104390006F8F0323184602DF2046FFF769FB0C23CB
:1043A000584319F80060AEB12046093EFFF700FC03
:1043B000092E0CD8DFE806F0050B0B08150B0B0BCC
:1043C0000B126FF06E05A6E76FF00C05A3E76FF018
:1043D0000405A0E7002FC0D03C609CE76FF01505F6
:1043E00099E76FF00B0596E748070020D8100020EA
:1043F0008FD1010027D20100F1D1010030D201009C
:104400002DE9F0434F4BB0F80180198848F4704211
:1044100091424FF0000685B002BF1E804A4B1E78C5
:10442000C378012B08BF494B00F104040546204620
:104430000CBF93F86F904FF0000913F0EDFD02AF41
:104440002146B0B1384613F0DCFDD5F81130CDF877
:104450000130B5F81530ADF805304FF00109EB78B3
:10446000012B1BD01321404613F0EAFF05B0BDE835
:10447000F083484614F0E0F80346006802909A88FA
:104480009B796868BA80BB71A288A37995F804907B
:104490000090ADF804208DF80630E0E73846FFF7CD
:1044A00091FC04460028DDD00346B5F8012023F82E
:1044B000702B0298BA79B98820679A719980B5F8FB
:1044C000173040F2E2425343C4F88830B5F819304F
:1044D000A4F89030B5F81B30A4F89230EB78E37074
:1044E0000022012B62721CD18DF80090BDF80420CF
:1044F0009DF806300098A4F87B2084F87D30C4F83D
:10450000770000F0EDFD237A1049C3EBC3035A187E
:10451000CB58C4F87E309388A4F88230937984F81D
:1045200084300721204601F0C9F826B166720121C6
:10453000204601F0C3F8204601F0A6F9204601F01C
:1045400067F893E776340020C5370020300000205C
:1045500000B5C3681A7889B032B13C2A32D109B0AB
:104560005DF804EB13F016BF8DF80020B3F80120BE
:10457000ADF80120DA788DF80320B3F80B20ADF800
:104580001720B3F80D20ADF81920B3F80F20ADF8BF
:104590001B205A7C8DF81D20586801901A899B7A3F
:1045A0008DF80A30094BADF8082068461A689B88D8
:1045B000CDF80B20ADF80F30CDF81120ADF8153047
:1045C000FFF71EFF09B05DF804FB00BF46D40100F1
:1045D000F7B50022114640F60340FFF78BFE044674
:1045E000002853D1FFF7B2FD214601AA41F2030092
:1045F000FFF780FE0446002848D1019A254DD16876
:10460000D1F80100D1F8051005F1780303C3104675
:10461000FFF7CEFA214601AA41F20100FFF76AFE38
:10462000044698BB0198C3685A7885F870205A8868
:10463000A5F872201A7985F87120B3F80720A5F83B
:104640007420B3F80530A5F87630FFF7B1FA2146AB
:1046500001AA41F20200FFF74DFE0446B0B9019FE6
:10466000FA6805F18006531C4132186859683446CF
:1046700003C4083393422646F7D13846FFF798FA29
:1046800095F87C305A0607D46FF01204204603B028
:10469000F0BD00BF3000002001AA002142F203005B
:1046A000FFF728FE04460028F0D1019BB64EDA68D9
:1046B000D2F80100D2F8051003C61846FFF778FAC1
:1046C000214601AA42F20200FFF714FE0446002828
:1046D000DCD1019CE368B3F8012091B249B1D978EB
:1046E00039B1A5F8FC20DA78114606F1200017F060
:1046F00039F82046FFF75CFA95F87C601F2316F026
:104700002006A5F8103119D14FF0FF304FF0FF31DE
:10471000FFF744FD0446002800F01B8102210C3005
:1047200013F0CCFB0123037046702146324640F65D
:104730006D40FFF7DFFD04460028A7D195F89C30B7
:104740001B0712D501AA002142F21C00FFF7D2FD7F
:10475000044600289AD10198C368D3F80120D3F801
:104760000530C5E93823FFF723FA95F8D8309F06BE
:1047700025D50DF10201684613F04AFE04460028D3
:1047800084D14FF0FF304FF0FF31FFF707FD0646B1
:10479000002800F0DE8004210C3013F08FFBBDF800
:1047A00000300380BDF8023043802246314642F299
:1047B0002400FFF79FFD044600287FF467AF4FF009
:1047C000FF304FF0FF31FFF7E9FC0446002800F00E
:1047D000C08008210C3013F071FB95F8D82012F03E
:1047E000020F14BF2F230F23960695F8D92048BF38
:1047F00043F0400312F0090F18BF43F40063002296
:104800000370C3F3072343708270C2700271427158
:104810008271C271214642F20100FFF76BFD04462E
:1048200000287FF433AF95F87C30B5F8FC1098067B
:104830007BD4C9B901AA41F20500FFF75BFD04462C
:1048400000287FF423AFB5F8FC30019C4BB9E36836
:10485000B3F80120A5F8FC209A884C48114616F0C0
:1048600081FF2046FFF7A4F94FF0FF304FF0FF31F2
:10487000FFF794FC044600286BD008210C3013F09D
:104880001DFB102303708823437002230022C37092
:1048900020238270027142718271C371214640F6F9
:1048A0000140FFF727FD044600287FF4EFAE0146E4
:1048B00001AA4FF60140FFF71DFD044620BB0198F9
:1048C000FFF776F9214601AA4FF60240FFF712FDE5
:1048D0000446C8B90198C368B3F80130A5F8C130DF
:1048E000FFF766F995F8C1305A070DD501AA2146A0
:1048F0004FF60340FFF7FEFC30B90198C3685B78C0
:1049000085F8C030FFF754F9EB799BB900F02EFB26
:10491000044600287FF4BAAE01F0F2FA04460028FB
:104920007FF4B4AEFFF76CFCB0E600299CD16FF0C9
:104930000404ABE62E78002EE8D195F8C1309B0632
:104940001ED54FF0FF304FF0FF31FFF727FC044634
:1049500010B96FF0680499E606210C3013F0AEFA36
:10496000D5F8013003600A4B9B888380214632468C
:104970004FF60640FFF7BEFC04460028C6D085E689
:104980006FF0850482E600BF08010020300100209E
:104990003100002010B5FFF71BFE034B1B6813B15D
:1049A000BDE81040184710BDFC10002073B5274D1E
:1049B0000646D5F8500116F05BFD00283FD06FF099
:1049C000020105F1D40013F00FFC012113F0C4FB28
:1049D00010EA010436D11E48FFF718FC1D4B1E607B
:1049E0000122114605F5907016F0BCFE05F59E708B
:1049F00016F06EFE184816F07EFF1849164800940F
:104A00006FF007034FF4966211F050FA1449124800
:104A100016F0C7FFD5F85001124983681B68984704
:104A2000044648B926B902B0BDE87040FFF7D0BDD2
:104A300005F1C40011F034FA204602B070BD6FF0E9
:104A40001204F9E76FF07704F6E700BF30000020AA
:104A500075D20100FC100020C0080020F83F0020A3
:104A60007FD20100393F000038B5032104460C30E5
:104A700013F054FA0346B0F8010040F63542904274
:104A80000DD01D78E36822461978FFF7E1FA35B1B9
:104A9000034811F00FF8BDE83840FFF7DBBB38BD25
:104AA0005001002038B511F08DFC284DD5F83C316F
:104AB000002B48D00022002305F5907011F02EF84D
:104AC000002840D10022002305F59E7010F0C0FFA1
:104AD000044668B91E4A1F491F4840F6AA4312F00F
:104AE00062FE84F31188BFF36F8F0323184602DF41
:104AF000D5F8300120B1FFF75BF80023C5F830315D
:104B0000204613F09EF9C5F830012046FFF76EFBF2
:104B100098B1124810F0CEFF2046FEF7A9FF104BC7
:104B20000C2202FB00301F2140882246FFF790FA3A
:104B30002046FFF73DF8FFF78DFBFFF78BFBBDE845
:104B4000384011F053BC00F0AFFEF8E73000002011
:104B50008FD1010088D20100F1D101005001002065
:104B6000D810002038B5042104460C3013F0D6F9D3
:104B70004578017840882246FFF76AFA35B1044843
:104B800010F098FFBDE83840FFF764BB38BD00BFA8
:104B90005001002070B54FF0FF320D464FF0FF334B
:104BA00000210646FFF7B2F8044660B90A4A0B49ED
:104BB0000B481A2312F0F7FD84F31188BFF36F8FAF
:104BC0000323184602DF022104F10C0013F076F9EA
:104BD00006704570204670BD8CD2010088D201005D
:104BE000F1D10100F8B50A4DEF7906460024E3B291
:104BF0009F4202D86FF0010007E02946304613F0CB
:104C000013FD0735631C08B12046F8BD1C46EEE7CE
:104C10003000002070B5144E06223146044617F0CD
:104C2000B9F8E0B14FF0FF304FF0FF31FFF7B6FABF
:104C30000546A8B1062221460C3013F045F90022A2
:104C4000294642F20500FFF755FB40B9334622687A
:104C500043F86929A288B280012283F8682070BDD8
:104C60006FF06800FBE700BF9900002073B50446B1
:104C70000D4689B11749284613F0D6FC60B9164A8B
:104C80002968C4EBC404A3181151AA889A80AA7990
:104C90009A71002002B070BD6E46304613F0A3F941
:104CA0000028F7D13046FFF79DFF0028F5DA0A4AC1
:104CB0000098B179C4EBC404A3181051B08898804F
:104CC0009971002DE5D012592A609A88AA809B79A3
:104CD000AB71DEE739D401003000002070B5044626
:104CE00011B16FF0150070BDF0B1234913F09CFCB9
:104CF000D0B92046FFF776FF002837DA237863B96A
:104D00001E4AD37993BB20681060A179A088917165
:104D100001219080D1711846E5E7012BE1D1A379FB
:104D200003F0C003C02BDCD1144DEB79012B20D054
:104D3000BFF35B8FD5F8D430BFF35B8FDB0707D4AD
:104D4000002CCED00C49204613F06EFC0028C8D1B0
:104D5000EE792146731C3046EB71FFF787FF08B9E7
:104D60003046C0E7EB79013BEB71BCE76FF07700B1
:104D7000B9E76FF00B00B6E739D40100300000202E
:104D80002DE9F3410446D8B101AA002141F20900FE
:104D9000FFF7B0FA054698B9019E1249D6F80C8083
:104DA00008F101070622384616F0F4FF28B10E4933
:104DB0000622384616F0EEFF30B93046FEF7F8FE10
:104DC000002002B0BDE8F081D8F80130C4F801300D
:104DD000BB88A4F8053030462570FEF7E9FE0120B7
:104DE000EFE700BF46D4010040D4010007B5684694
:104DF000FFF7C6FF044BD87118B169460020FFF7D2
:104E000035FF03B05DF804FB30000020F0B5294DFC
:104E1000EE7989B0002E46D195F8C230DB0722D555
:104E20006A4631464FF60940FFF764FAD8B9DDF813
:104E300000C0DCF80C406378012B1E4628BF012619
:104E400073B1A31C02AA123418685968174603C725
:104E50000833A3423A46F7D1186838609B88BB8074
:104E60006046FEF7A5FEEE71002416260127EB79B9
:104E7000E0B2984202D3B3B1002012E008AB06FBC7
:104E80000033694653F8182C33F8143CCDF8012050
:104E9000ADF805308DF80070FFF7E8FE013400280A
:104EA000E5D009B0F0BD0021084609B0BDE8F040EA
:104EB000FFF714BF300000202DE9F0411D460E46DB
:104EC00017460346002849D0002D47D00A0307D5CE
:104ED0004C0743D413F0BDFB10BB01232B701FE024
:104EE000B10704781ED020492FB1B20603D591F83E
:104EF000D820500635D5C4EBC40411F80480B8F1AD
:104F0000010F08D101342144184613F09AFB38B937
:104F100085F8008002E0B8F1000FF9D0A7B90020B1
:104F2000BDE8F081720716D50F49C4EBC4040F5DCC
:104F3000012F07D10134214413F083FB0028EFD166
:104F40002F7001E0002FFBD0B306E8D52B7843F09B
:104F500002032B70E3E713F07CFBBEE76FF0150054
:104F6000DEE76FF08500DBE73000002010B50A4C6B
:104F7000E3790BB1002010BDFFF738FF0028FAD10C
:104F8000E379002BF6D1FFF741FF0028F3D1601C35
:104F9000BDE81040FFF73EBE30000020F8B5456880
:104FA0006A05064633D4046914B115F003032ED004
:104FB000184F3078FB79834229D9C0EBC0001649DD
:104FC0000722384416F0E6FEA8B115F0030306D117
:104FD00097F87020082A02D8B2689F2A17D915F0CE
:104FE000300F09D09CB1EB0608D405F46035B5F557
:104FF000603018BF0120F8BD002CF6D1D6E902239D
:105000009A4204D81F2A02D9B3F5804FEDD9002067
:10501000F1E700BF3000002039D40100F7B5CDE939
:105020000001694642F208009DF8207016461D46B0
:1050300013F03FFB044668B97FB9BFF35B8F0C4B9D
:1050400053E8001F41F0040143E80012002AF7D1A1
:10505000BFF35B8F204603B0F0BD694642F2090002
:10506000CDE9006513F025FB0028E6D00446F1E702
:1050700058000020F8B50446164B14F8097B83F855
:105080006F7006460D4607221349204616F082FE31
:1050900070B91249384600F019FE044610B96FF095
:1050A0000B00F8BD052100F009FB2C600020F8E79B
:1050B0002146384613F080FC40B92146307800F094
:1050C00005FE04460028EAD00621ECE76FF0150043
:1050D000E7E700BF3000002039D4010032D40100DE
:1050E00000487047480000202DE9F04F884ED0F866
:1050F00010A089B09B460023BAEB03040546304656
:1051000018BF0124039313F0CEFA0F4641079146CE
:1051100040F1DE802846FFF741FF60B96FF01504CB
:105120003846002340F20111994540F0DA802046CC
:1051300009B0BDE8F08F284613F0A2FA8046002897
:10514000ECD0A6F1AC0013F0AEFAC205C0F3002318
:1051500000F1C180CDE90533CDF81B30AB6868683C
:10516000ADF81030EB68ADF8123013F08DFA8DF811
:105170001D00BFF35B8F56E8003F23F4807346E8C1
:105180000032002AF7D1BFF35B8F2A7806F8BC2CD7
:1051900006F8652C696822460DF11503A6F1BC00DE
:1051A000FFF78AFE04460028BAD1A6F1B303BAF18C
:1051B000000F21D02A69116846F8B31C91889980A4
:1051C00092799A716B689C0718D0BAF1000F1CD0C5
:1051D00013F0100F0CBF012304238DF814302B693A
:1051E0001A68CDF816209A88ADF81A209B798DF8A8
:1051F0001C304FF000080BE0464ADCE7980502D46B
:10520000BBF1000F34D0022300E053468DF8143078
:105210004FF0FF304FF0FF31FEF7C0FF044600288B
:105220005CD00F2204A90C3012F04EFE2146002261
:1052300042F20600FFF75EF8044600287FF470AFE4
:10524000BAF1000F18D06B68990721D132480121BB
:1052500013F0A4FA039E044610B3002E3FF460AF8F
:105260003046002100F02AFA304600F0D1F957E725
:1052700003238DF81430BCE7129BCDF800805A460A
:1052800049463846FFF7CAFE04460028DBD047E708
:10529000214803A9FFF7EEFE04460028D6D03FE7D9
:1052A00016B1304600F0B4F96A681C4812F00302E7
:1052B00018BF0122092113F056FA42460A2113F0C1
:1052C00052FA2A790C21C2F3800213F04CFA27E734
:1052D0006FF00A0424E76FF0770421E76FF06804A9
:1052E0001EE702888A4204D1426812B11278D207BE
:1052F00002D40133083017E709490A4816F001FBC8
:105300004FF470220023074810F06CFE0FE700BF37
:105310000401002039D4010048000020580000207A
:10532000EF8701006000002010B5184813F05CFA08
:10533000174813F0B8F90346DA05C0F3002023D567
:10534000134813F0B0F9830515D512491248072206
:1053500016F020FD11490346087E93B91049052235
:1053600000F0F8FC044630B10021417200F0A6F9CB
:10537000204600F04DF9BDE810400448002113F02C
:105380000DBA06222131EBE710BD00BF4800002016
:105390005800002039D401005100002030000020C6
:1053A00032D4010070B50C4B1C68054644B154F86A
:1053B000143C143C13B1697A284698476469F5E7B0
:1053C000064C074EB44200D370BD236813B1697A0E
:1053D000284698471834F5E73411002088C30100A7
:1053E00088C3010010B50446FEF742FB044901EBF7
:1053F0000011204612F051FEBDE81040FEF72ABF12
:105400000011002070B5D1E9015600220446C1E91F
:105410000122064816F08DF93DB1314620462B4653
:105420006FF06D02BDE87040184770BD9406002013
:1054300037B5837A072B04462FD1BFF35B8F031D4B
:1054400053E8002F42F4806143E80015002DF7D1A6
:10545000BFF35B8F510520D4BFF35B8F6368BFF34D
:105460005B8FDA0301D413F011F8A37A072B14D160
:105470000B4B93F8D8309B060FD512F0A3FF60B109
:105480000DF1060101A812F0C3FF30B9BDF80620E6
:10549000BDF80410204613F014F803B030BD00BF6F
:1054A0003000002070B505460F480022002310F0A0
:1054B00035FBB8B90D4B1C6834B154F80C3C143CA6
:1054C00003B198476469F7E7094C0A4EB44204D324
:1054D0002846BDE8704010F0E3BCA36803B19847CC
:1054E0001834F3E770BD00BF84060020341100209B
:1054F00088C3010088C301002DE9F041044620273C
:105500000025EFF3118287F31288BFF36F8FE169F3
:1055100029B1206A0B68E361814208BF236282F3EC
:105520001188BFF36F8F71B1D1E901680748C1E9F4
:10553000015516F0FEF81EB1002241462046B04744
:10554000FEF788FEDDE7BDE8F08100BF940600208D
:105550000448B0F8FC30002B00F5807008BF002034
:10556000704700BF3000002030B50446FEF730FA27
:105570000C4A0D460C490858116F884289B005D174
:10558000204609B0BDE83040FFF7B6BF24342146BD
:10559000104616F085F91DB16946204616F090F9BF
:1055A00009B030BDA80E00200800000038B5002268
:1055B00004468A4202D10024204638BD04F1C803C3
:1055C0000120BFF35B8F53E8005F002D04D143E857
:1055D000000CBCF1000FF6D1BFF35B8F02D0D034CA
:1055E0000244E6E7002CE6D0C8220021204616F04F
:1055F000C9FB04F14000044916F083F9034904F1A2
:10560000240016F031F9D7E7055E00001388010089
:1056100008B500F1C803BFF35B8F53E8002F013AD0
:1056200043E800210029F8D1BFF35B8FAAB90B4BE7
:10563000984212D303F1D00290420ED2C01AD02366
:10564000B0FBF3F203FB120038B9054810F032FA50
:10565000BDE80840034810F023BC08BD50090020F5
:1056600084060020D002002010B5044613F048F94B
:1056700010F0A8FE104AD2F8141104F1BC0361B96D
:10568000C4F8BC10D2F8181159B9C2E9453310F06A
:10569000ADFEBDE81040FEF7DDBD8B4205D00968C8
:1056A000EDE70B60C2F81831F1E710F09FFE2046DD
:1056B000FFF7AEFFEDE700BF3000002070B5857A40
:1056C0008D42044613D081720DB913F019F9A37AF3
:1056D000012B09D1344D05F580766169002950D13F
:1056E000BDE87040FEF7B6BD072B01D0ABB170BD71
:1056F0000023C4E90D33E378012BF8D1A378012B03
:1057000004BF032384F8983004F140004FF42032A2
:10571000BDE87040002310F031BC082DE7D801A38C
:1057200053F825F0EF560000495700006F5700006E
:105730007957000079570000795700006F57000033
:10574000EF560000EF56000004F14005284616F021
:10575000E4F820460121FFF707FF204613F077F811
:1057600028460022BDE87040002310F03BBC637A5D
:1057700013B12046FFF716FE2046BDE87040FFF744
:1057800047BFA2690B686361914208BFA3612046CD
:10579000FFF738FEB5F8FC30002B14BF3046002070
:1057A00010F088F999E700BF30000020F8B50746EF
:1057B00009480D46164613F0A3F8044650B1837805
:1057C0001F4203D1BDE8F840FFF722BF3146A8478A
:1057D0002046F7E7F8BD00BF50090020024900222B
:1057E0000120FFF7E3BF00BF3154000038B5054684
:1057F0000B480C4613F084F8034670B1827A012AF4
:1058000002D0073A012A06D81A88AA4202D19A7809
:10581000144203D11846FFF7FBFE0023184638BD9B
:1058200050090020034BC01A034B00115843C0B26B
:10583000704700BF50090020C54EECC470B51C462F
:10584000144305460E4607D0FEF7C2F80B49085828
:105850000B49096F884201D1002213460949002DE6
:1058600014BF2846084612F0BDFA044618B1711D4F
:105870000C3012F018FB204670BD00BF080000007D
:10588000A80E0020A806002010B50446054810F018
:1058900007FB204600F0ECFB2046BDE81040FFF778
:1058A00081BD00BFC00200202DE9F04F87B000236A
:1058B00003930593AD4B1A8B32B1AD4DD5F814411E
:1058C00034B907B0BDE8F08F1B68002BF5D1F8E7BD
:1058D00054F8BC3903B1BC3BA649002601E01C4684
:1058E0001346B5F8FC20002A00F03D81D5F80821C8
:1058F0004AB904F1BC06002BE3D0D3F8BC20002A3F
:10590000EDD0BC3AEBE70A68002AF2D0D4F8A82020
:10591000002AEED0D4F8AC20002AEAD0D4F8B02087
:10592000002AE6D0A37A072B68D1204690470028AA
:1059300064D0BFF35B8FD4F8C030BFF35B8F022B12
:105940005CDC204612F0DCFF04460028B9D0A37AC4
:10595000072B40F0FF80D4F8A830B5F8FC1004AA5B
:10596000204698470746002800F0D480B5F8FC2070
:10597000049B9A4206D30146D4F8AC6005AB03AA57
:105980002046B047059B01933B8ADDF80C90002B25
:1059900000F0E3803846DDF810A012F094FB80465A
:1059A000002840F0DD80B5F8FC30DFF8CCB1002BEA
:1059B00014BF584600200022002310F0AFF878B939
:1059C0006C480022002310F043F8064600283BD123
:1059D000B5F8FC30002B18BF5E46304610F06AF870
:1059E0006FF00B053846FEF7E3F8B9F1000F00F051
:1059F0008D8001992A462046C84787E0D4F8BC30FC
:105A000004F1BC02C6B9D5F81811C5F814318A42A0
:105A100001D1C5F818310023C4F8BC302046D4F8B1
:105A2000B0309847002892D0A37A072B40F092809C
:105A30002046FFF719FE8AE73360D5F818319A42FD
:105A400008BFC5F81861E6E7019BC0F804908360C1
:105A5000B5F8FCB04548DA454FF000024FF00003BE
:105A60004FF0000198BF1FFA8AFBFEF723F881462A
:105A700050B1FDF7FDFF414B5A4603EB0013394689
:105A8000484612F0E5FA8146B5F8FC3094F8C47047
:105A90009A458CBF4FF00108023784F8C48098BF44
:105AA000FFB204F1C008BFF35B8F58E8003F013339
:105AB00048E80032002AF8D1BFF35B8F002333603F
:105AC000A3695BBBC4E90566A378012B29D0BFF3AA
:105AD0005B8F58E8003F013B48E80032002AF8D1CC
