:10000000605A0020855000004FB30100715000007D
:10001000715000007150000071500000000000009D
:10002000000000000000000000000000BD500000C3
:1000300071500000000000008D520000715000005F
:10004000F952000065210100F9520000F952000048
:10005000F9520000F9520000F9520000F952000074
:10006000F9520000F9520000F9520000F952000064
:10007000F9520000F9520000F9520000F952000054
:10008000F9520000F9520000F9520000F952000044
:10009000F9520000F9520000F9520000F952000034
:1000A000F9520000F9520000F9520000F952000024
:1000B000F9520000F9520000F9520000F952000014
:1000C000F9520000F9520000F9520000F952000004
:1000D000F9520000F9520000F9520000F9520000F4
:1000E000F9520000F9520000F9520000F9520000E4
:1000F000F9520000F9520000F9520000F9520000D4
:1001000081F0004102E000BF83F0004330B54FEAC8
:1001100041044FEA430594EA050F08BF90EA020F35
:100120001FBF54EA000C55EA020C7FEA645C7FEAC8
:10013000655C00F0E2804FEA5454D4EB5555B8BFEB
:100140006D420CDD2C4480EA020281EA030382EA5C
:10015000000083EA010180EA020281EA0303362DEE
:1001600088BF30BD11F0004F4FEA01314FF4801CC1
:100170004CEA113102D0404261EB410113F0004FD3
:100180004FEA03334CEA133302D0524263EB43038A
:1001900094EA050F00F0A780A4F10104D5F1200E28
:1001A0000DDB02FA0EFC22FA05F2801841F1000183
:1001B00003FA0EF2801843FA05F359410EE0A5F157
:1001C00020050EF1200E012A03FA0EFC28BF4CF088
:1001D000020C43FA05F3C01851EBE37101F000453E
:1001E00007D54FF0000EDCF1000C7EEB00006EEB4B
:1001F0000101B1F5801F1BD3B1F5001F0CD34908D5
:100200005FEA30004FEA3C0C04F101044FEA44522B
:1002100012F5800F80F09A80BCF1004F08BF5FEAB2
:10022000500C50F1000041EB045141EA050130BD92
:100230005FEA4C0C404141EB0101013C28BFB1F5A4
:10024000801FE9D291F0000F04BF01460020B1FAEF
:1002500081F308BF2033A3F10B03B3F120020CDAC2
:100260000C3208DD02F1140CC2F10C0201FA0CF0A0
:1002700021FA02F10CE002F11402D8BFC2F1200C05
:1002800001FA02F120FA0CFCDCBF41EA0C019040BB
:10029000E41AA2BF01EB0451294330BD6FEA040404
:1002A0001F3C1CDA0C340EDC04F11404C4F12002EF
:1002B00020FA04F001FA02F340EA030021FA04F301
:1002C00045EA030130BDC4F10C04C4F1200220FA58
:1002D00002F001FA04F340EA0300294630BD21FA96
:1002E00004F0294630BD94F0000F83F4801306BF5C
:1002F00081F480110134013D4EE77FEA645C18BF50
:100300007FEA655C29D094EA050F08BF90EA020FE6
:1003100005D054EA000C04BF1946104630BD91EADE
:10032000030F1EBF0021002030BD5FEA545C05D1E1
:100330004000494128BF41F0004130BD14F5800420
:100340003CBF01F5801130BD01F0004545F0FE4194
:1003500041F470014FF0000030BD7FEA645C1ABFC9
:10036000194610467FEA655C1CBF0B46024650EA00
:10037000013406BF52EA033591EA030F41F400212C
:1003800030BD00BF90F0000F04BF0021704730B5B2
:100390004FF4806404F132044FF000054FF0000187
:1003A00050E700BF90F0000F04BF0021704730B548
:1003B0004FF4806404F1320410F0004548BF40421D
:1003C0004FF000013EE700BF42004FEAE2014FEA72
:1003D00031014FEA02701FBF12F07F4393F07F4F4D
:1003E00081F06051704732F07F4208BF704793F050
:1003F0007F4F04BF41F40021704730B54FF4607463
:1004000001F0004521F000411CE700BF50EA010265
:1004100008BF704730B54FF000050AE050EA01020E
:1004200008BF704730B511F0004502D5404261EB7E
:1004300041014FF4806404F132045FEA915C3FF4BF
:10044000D8AE4FF003025FEADC0C18BF03325FEA5C
:10045000DC0C18BF033202EBDC02C2F1200300FA0D
:1004600003FC20FA02F001FA03FE40EA0E0021FA32
:1004700002F11444BDE600BF70B54FF0FF0C4CF420
:10048000E06C1CEA11541DBF1CEA135594EA0C0FD2
:1004900095EA0C0F00F0DEF82C4481EA030621EA0D
:1004A0004C5123EA4C5350EA013518BF52EA033548
:1004B00041F4801143F4801338D0A0FB02CE4FF0FA
:1004C0000005E1FB02E506F00042E0FB03E54FF02A
:1004D0000006E1FB03569CF0000F18BF4EF0010E22
:1004E000A4F1FF04B6F5007F64F5407404D25FEA1E
:1004F0004E0E6D4146EB060642EAC62141EA5551D1
:100500004FEAC52040EA5E504FEACE2EB4F1FD0C12
:1005100088BFBCF5E06F1ED8BEF1004F08BF5FEA90
:10052000500E50F1000041EB045170BD06F0004642
:1005300046EA010140EA020081EA0301B4EB5C04EF
:10054000C2BFD4EB0C0541EA045170BD41F48011E7
:100550004FF0000E013C00F3AB8014F1360FDEBF0C
:10056000002001F0004170BDC4F10004203C35DAE8
:100570000C341BDC04F11404C4F1200500FA05F36B
:1005800020FA04F001FA05F240EA020001F000420C
:1005900021F0004110EBD37021FA04F642EB060182
:1005A0005EEA430E08BF20EAD37070BDC4F10C04AC
:1005B000C4F1200500FA04F320FA05F001FA04F270
:1005C00040EA020001F0004110EBD37041F100015C
:1005D0005EEA430E08BF20EAD37070BDC4F1200567
:1005E00000FA05F24EEA020E20FA04F301FA05F2CF
:1005F00043EA020321FA04F001F0004121FA04F277
:1006000020EA020000EBD3705EEA430E08BF20EA46
:10061000D37070BD94F0000F0FD101F00046400080
:1006200041EB010111F4801F08BF013CF7D041EA02
:10063000060195F0000F18BF704703F00046520006
:1006400043EB030313F4801F08BF013DF7D043EAD7
:100650000603704794EA0C0F0CEA135518BF95EA8D
:100660000C0F0CD050EA410618BF52EA4306D1D114
:1006700081EA030101F000414FF0000070BD50EA33
:10068000410606BF1046194652EA430619D094EABD
:100690000C0F02D150EA013613D195EA0C0F05D1A7
:1006A00052EA03361CBF104619460AD181EA0301FB
:1006B00001F0004141F0FE4141F470014FF00000B3
:1006C00070BD41F0FE4141F4780170BD70B54FF04E
:1006D000FF0C4CF4E06C1CEA11541DBF1CEA1355CE
:1006E00094EA0C0F95EA0C0F00F0A7F8A4EB0504B0
:1006F00081EA030E52EA03354FEA013100F08880A7
:100700004FEA03334FF0805545EA131343EA12636F
:100710004FEA022245EA111545EA10654FEA002624
:100720000EF000419D4208BF964244F1FD0404F5DD
:10073000407402D25B084FEA3202B61A65EB030539
:100740005B084FEA32024FF480104FF4002CB6EBF6
:10075000020E75EB030E22BFB61A754640EA0C0076
:100760005B084FEA3202B6EB020E75EB030E22BFB6
:10077000B61A754640EA5C005B084FEA3202B6EBF7
:10078000020E75EB030E22BFB61A754640EA9C00B6
:100790005B084FEA3202B6EB020E75EB030E22BF86
:1007A000B61A754640EADC0055EA060E18D04FEA44
:1007B000051545EA16754FEA06164FEAC30343EAE4
:1007C00052734FEAC2025FEA1C1CC0D111F4801FB1
:1007D0000BD141EA00014FF000004FF0004CB6E7AA
:1007E00011F4801F04BF01430020B4F1FD0C88BF49
:1007F000BCF5E06F3FF6AFAEB5EB030C04BFB6EB54
:10080000020C5FEA500C50F1000041EB045170BD46
:100810000EF0004E4EEA113114EB5C04C2BFD4EB73
:100820000C0541EA045170BD41F480114FF0000EF7
:10083000013C90E645EA060E8DE60CEA135594EA73
:100840000C0F08BF95EA0C0F3FF43BAF94EA0C0F76
:100850000AD150EA01347FF434AF95EA0C0F7FF4EB
:1008600025AF104619462CE795EA0C0F06D152EA3F
:1008700003353FF4FDAE1046194622E750EA410623
:1008800018BF52EA43067FF4C5AE50EA41047FF434
:100890000DAF52EA43057FF4EBAE12E780F0004063
:1008A00002E000BF81F0004142001FBF5FEA410348
:1008B00092EA030F7FEA226C7FEA236C6AD04FEA48
:1008C0001262D2EB1363C1BFD2184140484041408D
:1008D000B8BF5B42192B88BF704710F0004F40F43F
:1008E000000020F07F4018BF404211F0004F41F45B
:1008F000000121F07F4118BF494292EA030F3FD027
:10090000A2F1010241FA03FC10EB0C00C3F1200339
:1009100001FA03F100F0004302D5494260EB4000C8
:10092000B0F5000F13D3B0F1807F06D340084FEA33
:10093000310102F10102FE2A51D2B1F1004F40EB28
:10094000C25008BF20F0010040EA03007047490090
:1009500040EB0000013A28BFB0F5000FEDD2B0FA2D
:1009600080FCACF1080CB2EB0C0200FA0CF0AABF50
:1009700000EBC25052421843BCBFD04018437047EE
:1009800092F0000F81F4000106BF80F400000132F4
:10099000013BB5E74FEA41037FEA226C18BF7FEACB
:1009A000236C21D092EA030F04D092F0000F08BF0D
:1009B0000846704790EA010F1CBF0020704712F0F4
:1009C0007F4F04D1400028BF40F00040704712F133
:1009D00000723CBF00F50000704700F0004343F098
:1009E000FE4040F4000070477FEA226216BF0846CE
:1009F0007FEA23630146420206BF5FEA412390EA91
:100A0000010F40F4800070474FF0000304E000BF86
:100A100010F0004348BF40425FEA000C08BF704737
:100A200043F0964301464FF000001CE050EA0102FB
:100A300008BF70474FF000030AE000BF50EA010210
:100A400008BF704711F0004302D5404261EB4101FD
:100A50005FEA010C02BF84460146002043F0B64322
:100A600008BFA3F18053A3F50003BCFA8CF2083A47
:100A7000A3EBC25310DB01FA02FC634400FA02FC50
:100A8000C2F12002BCF1004F20FA02F243EB020057
:100A900008BF20F00100704702F1200201FA02FCB9
:100AA000C2F1200250EA4C0021FA02F243EB0200AC
:100AB00008BF20EADC7070474FF0FF0C1CEAD052F0
:100AC0001EBF1CEAD15392EA0C0F93EA0C0F6FD0B1
:100AD0001A4480EA010C400218BF5FEA41211ED08F
:100AE0004FF0006343EA501043EA5111A0FB01317B
:100AF0000CF00040B1F5000F3EBF490041EAD37150
:100B00005B0040EA010062F17F02FD2A1DD8B3F1CB
:100B1000004F40EBC25008BF20F00100704790F03A
:100B2000000F0CF0004C08BF49024CEA502040EA8C
:100B300051207F3AC2BFD2F1FF0340EAC250704752
:100B400040F400004FF00003013A5DDC12F1190F90
:100B5000DCBF00F000407047C2F10002410021FA02
:100B600002F1C2F1200200FA02FC5FEA310040F11A
:100B7000000053EA4C0308BF20EADC70704792F093
:100B8000000F00F0004C02BF400010F4000F013ACB
:100B9000F9D040EA0C0093F0000F01F0004C02BFC6
:100BA000490011F4000F013BF9D041EA0C018FE735
:100BB0000CEAD15392EA0C0F18BF93EA0C0F0AD03B
:100BC00030F0004C18BF31F0004CD8D180EA010061
:100BD00000F00040704790F0000F17BF90F0004FFA
:100BE000084691F0000F91F0004F14D092EA0C0FDC
:100BF00001D142020FD193EA0C0F03D14B0218BF6F
:100C0000084608D180EA010000F0004040F0FE40B4
:100C100040F40000704740F0FE4040F44000704750
:100C20004FF0FF0C1CEAD0521EBF1CEAD15392EACF
:100C30000C0F93EA0C0F69D0A2EB030280EA010CBF
:100C400049024FEA402037D04FF0805343EA111158
:100C500043EA10130CF000408B4238BF5B0042F1B6
:100C60007D024FF4000C8B4224BF5B1A40EA0C005B
:100C7000B3EB510F24BFA3EB510340EA5C00B3EB8D
:100C8000910F24BFA3EB910340EA9C00B3EBD10F7B
:100C900024BFA3EBD10340EADC001B0118BF5FEACD
:100CA0001C1CE0D1FD2A3FF650AF8B4240EBC250F6
:100CB00008BF20F0010070470CF0004C4CEA5020B7
:100CC0007F32C2BFD2F1FF0340EAC250704740F406
:100CD00000004FF00003013A37E792F0000F00F0F8
:100CE000004C02BF400010F4000F013AF9D040EA76
:100CF0000C0093F0000F01F0004C02BF490011F40A
:100D0000000F013BF9D041EA0C0195E70CEAD15301
:100D100092EA0C0F08D142027FF47DAF93EA0C0FE8
:100D20007FF470AF084676E793EA0C0F04D14B02CC
:100D30003FF44CAF08466EE730F0004C18BF31F07E
:100D4000004CCAD130F000427FF45CAF31F0004378
:100D50007FF43CAF5FE700BF4FF0FF3C06E000BF11
:100D60004FF0010C02E000BF4FF0010C4DF804CD34
:100D70004FEA40024FEA41037FEA226C18BF7FEA44
:100D8000236C11D001B052EA530C18BF90EA010F46
:100D900058BFB2EB030088BFC81738BF6FEAE170D5
:100DA00018BF40F0010070477FEA226C02D15FEA71
:100DB000402C05D17FEA236CE4D15FEA412CE1D0DD
:100DC0005DF8040B704700BF844608466146FFE7A4
:100DD0000FB5FFF7C9FF002848BF10F1000F0FBD86
:100DE0004DF808EDFFF7F4FF0CBF012000205DF87F
:100DF00008FB00BF4DF808EDFFF7EAFF34BF012004
:100E000000205DF808FB00BF4DF808EDFFF7E0FF9C
:100E100094BF012000205DF808FB00BF4DF808EDED
:100E2000FFF7D2FF94BF012000205DF808FB00BF50
:100E30004DF808EDFFF7C8FF34BF012000205DF832
:100E400008FB00BF4FEA4002B2F1FE4F0FD34FF054
:100E50009E03B3EB12620DD94FEA002343F0004327
:100E600010F0004F23FA02F018BF404270474FF0D5
:100E70000000704712F1610F01D1420205D110F05C
:100E8000004008BF6FF0004070474FF0000070470F
:100E90007BB972B90029BEBF00204FF0004106E0C7
:100EA00008BF00281CBF6FF000414FF0FF3000F07A
:100EB00077B8ADF1080C6DE904CE002909DB002BF1
:100EC0001ADB00F0B4F8DDF804E0DDE9022304B039
:100ED0007047404261EB4101002B1BDB00F0A7F89B
:100EE000DDF804E0DDE9022304B0404261EB41019A
:100EF000524263EB43037047524263EB430300F0FB
:100F000096F8DDF804E0DDE9022304B0404261EB2D
:100F100041017047524263EB430300F088F8DDF86B
:100F200004E0DDE9022304B0524263EB430370475F
:100F300053B94AB9002908BF00281CBF4FF0FF3140
:100F40004FF0FF3000F02CB8ADF1080C6DE904CE85
:100F500000F06DF8DDF804E0DDE9022304B070472D
:100F6000D0B5FFF731FA0C4B002206460F46FFF7CB
:100F700083FA00F017F80446FFF704FA074B002243
:100F8000FFF77AFA02460B4630463946FFF7BCF8BF
:100F900000F008F82146D0BD0000F03D0000F0410F
:100FA000704700BF4A0011D212F5001211D20DD5C0
:100FB0006FF47873B3EB62520ED44FEAC12343F05F
:100FC000004343EA505323FA02F070474FF0000009
:100FD000704750EA013002D14FF0FF3070474FF0B8
:100FE0000000704710F8012B11F8013B012A28BFBF
:100FF0009A42F7D0D01A7047034613F8012B002A03
:10100000FBD1181A0138704710B500210446FFF7CC
:10101000F1FE20B92046BDE81040FFF7A1BF04F162
:101020000040FFF79DFF404261EB410110BD2DE9FB
:10103000F0478C468E46089E154604461946002BFE
:1010400040F0D080724547D9B2FA82F74FB1C7F16C
:1010500020030EFA07FC20FA03F3BD4043EA0C0C10
:10106000BC404FEA154EA8B2BCFBFEF8230C0EFBA9
:1010700018CC08FB00F943EA0C43994528D9EB1832
:1010800008F1FF3204D2994502D9A8F102022B449B
:10109000A3EB0903A4B2B3FBFEFC0EFB1C330CFB59
:1010A00000F044EA0344A04214D92C190CF1FF3398
:1010B00004D2A04202D9ACF102032C44241A43EA20
:1010C00002401EB1FC40002334607360BDE8F0872D
:1010D0004246DDE76346F1E7002A79D0B2FA82F3AF
:1010E000002B3FD01946C1F1200302FA01F52EFA78
:1010F00003F20EFA01FE20FA03F343EA0E034FEA6D
:10110000154E00FA01F4B2FBFEFCAFB20EFB1C2040
:101110001A0C0CFB07F842EA004290455AD9AA186B
:101120000CF1FF3004D2904502D9ACF102002A4400
:10113000A2EB08029BB2B2FBFEFC0EFB1C220CFBD6
:1011400007F743EA02439F4246D9EB180CF1FF32FE
:1011500004D29F4202D9ACF102022B44DB1B42EACB
:10116000004202E0AEEB020301224FEA154EAFB29D
:10117000B3FBFEFC200C0EFB1C330CFB07F840EA13
:10118000034398452AD9EB180CF1FF3004D2984557
:1011900002D9ACF102002B44A3EB0803A4B2B3FBC9
:1011A000FEFC0EFB1C330CFB07F744EA0344A7428A
:1011B00016D92C190CF1FF3304D2A74202D9ACF195
:1011C00002032C44E41B43EA00400F46114678E733
:1011D0001F2188E76046ABE76246BFE76046DBE772
:1011E0006346EFE7734506D916B9002108466DE757
:1011F000C6E9000EF9E7B3FA83F787B9734501D35F
:10120000824207D8841A6EEB030301209C461EB964
:1012100000215BE73846FAE7C6E9004CF8E7C7F17A
:10122000200CBB4022FA0CF51D4320FA0CF12EFADB
:101230000CF30EFA07FE41EA0E014FEA154900FAD7
:1012400007F4B3FBF9F81FFA85FE09FB18300B0C05
:1012500008FB0EFA43EA00439A4502FA07F240D926
:10126000EB1808F1FF3004D29A4502D9A8F1020028
:101270002B44A3EB0A0389B2B3FBF9F809FB18333B
:1012800008FB0EFE41EA03418E452CD9691808F18E
:10129000FF3304D28E4502D9A8F10203294443EA60
:1012A0000040A0FB0298A1EB0E014145CE4643460B
:1012B00002D306D14C4504D2B9EB020E68EB05030C
:1012C0000138002EA4D0B4EB0E0261EB030101FA49
:1012D0000CFC22FA07F34CEA0303F940C6E900319B
:1012E00096E74046C5E74346D9E700000000000006
:1012F0002DE9F04F054687B0214FBB68029304AA41
:101300005B68002138469847002832DBDDE9044B52
:101310001C4BDFF87490A4FB031203FB0B28039112
:1013200015A3D3E9002308464146FFF701FE039BBE
:101330004FF0FF3A9A4579EB0803064619D3A5FB0F
:10134000044305FB0B3529460BA3D3E900232046B4
:10135000FFF7EEFDA24579EB0505034609D386426A
:1013600007D300220092029A0021146838463246C0
:10137000A04707B0BDE8F08F00CA9A3B000000000C
:1013800094F60100002D3101FFC99A3B00000000D6
:101390002DE9F843D0E90738856903EB08042F34B9
:1013A000A5420F46164619D8DFF86C80A3FB08014A
:1013B00017A3D3E90023FFF7BBFD0346601BA0FB87
:1013C000080123F07F4412A3D3E90023FFF7B0FD07
:1013D00020F07F403C603060BDE8F883DFF8389053
:1013E0000BA3D3E90023A5FB0901FFF7A1FD20F022
:1013F0007F440A480A2106A3D3E90023E8FB090138
:10140000FFF796FD20F07F403C603060BDE8F88338
:101410008D49FD1A0700000000CA9A3B00166BF1C7
:10142000002800F044812DE9F04FC74C94F85E305D
:10143000DA078DB000F13781627F94F8293004EB30
:10144000820204EB8303166AD3F82C800EB3354670
:1014500015F8020BC0F3801009F0CAFA0368C6F849
:1014600002308388AB8033785B0606D50621284698
:1014700007F04AFF002800F04C81454615F8020BA2
:10148000C0F3801009F0B4FA0368C8F8023083880A
:10149000AB80337813F00E0F40F0918063691BB17D
:1014A0000C200DB0BDE8F08F09F026FF8146002822
:1014B00000F0388109F02CFF8246002800F02F81CF
:1014C0000CF0D2F80546002800F03381D0F88800EF
:1014D0004FF6FF73AB8405F1100B002800F0248158
:1014E00005F17C0205F1780107F01AFFB5F87630B6
:1014F00023F4EF6323F0070343F48C7343F00103F9
:10150000A5F8763095F8373003F03F0363F07F039A
:1015100085F8373095F88E3023F0070385F88E3044
:1015200095F83C3023F00F03002785F83C304FF44A
:10153000C023C5F88E312846C5E91277C5F88870F2
:10154000A5F88C7085F839706F85C5F82E702F65F9
:10155000A5F86071A5F89471A5F88A710EF018F8D5
:1015600085F86471C5F868910CF042FB95F89C31E0
:1015700060F3020385F89C310CF040FB95F89C3138
:1015800060F3C50385F89C3195F8623167F3410338
:10159000012185F8623128460CF0D2FE05F1E00009
:1015A0000DF016FEC4E9159AC4F814B0C5E9027727
:1015B0002F702D6111F07CFA002840F0AC80237E62
:1015C0000121C3F342030DF12B008DF82B3008F0FD
:1015D00049F8024600286CD0414630460BF060FCCA
:1015E0005A4A5B4BB4F85C800721E0FB02310025CE
:1015F0001846C4E9025552A3D3E900232570FFF72A
:1016000097FC606009F0B8F900F10907B8F1000F24
:1016100007D1357805F00F05A5F10105B5FA85F577
:101620006D09207E636865F3000010F001052076E7
:1016300046D0484A0992002010600225464ADFF849
:101640001C8104930BAE019305920321CDE90200A6
:10165000069400903B46CDF81C8008962A460B95D0
:1016600009F0AEF8314609F0C9FE10BB3C490591BE
:101670004AF2D8330093CDE90300CDE90100CDF85B
:101680001C80089606943B46012203210B9509F025
:101690007BF8314609F0B2FE58B994F85E3043F059
:1016A000010384F85E3000200DB0BDE8F08F0BF030
:1016B00091BB6369002B3FF4F3AE0BF061FBEFE6E7
:1016C000244A2848049303F2471306940295912173
:1016D0001360A8FB000301FB0831204B07931E4B4E
:1016E00005934FF6FF7309924FF0020803930BAE78
:1016F00013A3D3E90023CDF82C800896FFF718FC3C
:101700003B46CDE9005042462846032109F058F8EF
:10171000BFE71220C5E60BF033FB0320C1E64846C5
:1017200009F0F0FD0720BCE605F18000C5F888004F
:10173000D6E6504609F0F2FD484609F0E3FDF1E730
:101740008D49FD1A070000007824002000CA9A3B4A
:101750008C49FD1A6C24002019CF000075AA0000E6
:101760003DCC0000002AE78470B5037E8AB0C3F345
:1017700042030D46044601210DF1230016468DF863
:10178000233007F06FFF3146024628460BF088FBF6
:101790001D4A1E4B0721E0FB0231184618A3D3E96E
:1017A0000023FFF7C5FB63689842054621D21B1A48
:1017B00000220192164A0293164BA21AA3FB023290
:1017C0000221920900230A4409AE099112490591A8
:1017D000CDE9033303210696D2B20093184609F0EF
:1017E00045F8314609F00AFE38B9656000200AB0B4
:1017F00070BDFBD9C21A0023DBE70C200AB070BD14
:101800008D49FD1A0700000000CA9A3B8C49FD1A59
:1018100078240020ABAAAAAA75AA00000000000044
:101820002DE9F04F05468BB08B46012002219946E9
:10183000144612F0C5FD002202218246012007F065
:10184000C3FD2F494FF4D472284607F049FDC61C4A
:101850002C4B0093F6B201954B46324601210020F5
:1018600009F052F810F0FD0F42D1274BA4FB0348BA
:10187000204621A3D3E900234146FFF759FB0895F1
:1018800006956B680493214B20F07F47A7FB03313B
:10189000E01A1F4B07934FF007021E4B059302FB04
:1018A00007114FF6FE7368EB010103934FF47A7250
:1018B0000023FFF73DFBCDF800B0CDE901704B46AA
:1018C00032460121002008F05FFF10F0FD0F0DD11E
:1018D000BAF1000F02D10BB0BDE8F08F0122022156
:1018E00010460BB0BDE8F04F07F06EBD00DEEFE72D
:1018F00000DEBAE7AFF300808D49FD1A0700000053
:10190000800C002025D5000000CA9A3B8D49FD1AA5
:101910000DD50000AD1E01002DE9F0418468A28CB8
:101920004FF6FF739A428CB000F0C0800546204607
:101930000EF0AAF82B7D012B00F0E680022B00F0C0
:10194000B88033B994F88E3003F01803182B00F0E8
:101950001C8194F86471002F40F0AE802B8AE68DD4
:1019600094F93720CDE90A77002B00F0AC80002AEB
:10197000C0F221810023A4F89031AB7CA28D03F04A
:101980000303551C012BADB200F0BA80B4F89431BA
:10199000002B00F0BF80AB4240F237815B1B9BB253
:1019A000062BA4F894314FF000028CBF00230123D2
:1019B000E2851F4694F83C2063F3820284F83C20C1
:1019C00029460DF1270220460DF01EFE743000F06E
:1019D0001681B4F88E312BB1AB4240F2BF805B1B55
:1019E000A4F88E31B4F88A312BB1AB4240F2C680F4
:1019F0005B1BA4F88A31E58D17B9AE4200F0AC80CC
:101A00000135ADB294F8D13013F0010609D1DDE90A
:101A10000AC3B3BBBCF1000F00F0E9801E461946B3
:101A200030E094F9372023F00103002A84F8D13004
:101A3000C0F28A8094F87600C0F3C00100F007007D
:101A400010F0B8FEB4F86E20B4F86C301344E28B9A
:101A500003F23F13134418448D4A8E4B0721E0FBD9
:101A60000231184688A3D3E90023FFF761FA6168C1
:101A700020F07F408142DDE90AC380F0B280461A3F
:101A800060600021A28C24690694CDE903570332DB
:101A9000814D0291CDE900C6D2B201210020059509
:101AA00008F0E4FE10F0FD0F40F0B4800CB0BDE88B
:101AB000F0813D2784F86471394620460CB0BDE8BA
:101AC000F0410CF055B9002AB8BF84F8D570AB7C52
:101AD000A28D03F00303551C012BADB210D0B4F856
:101AE0009031002B3FF452AFAB4240F29A805B1B27
:101AF000A4F89031B4F89431002B7FF44CAF59E73F
:101B00000023A4F8943155E70023A4F88E31A4F8FB
:101B10008A311EE7E38C052B8BBF40F2E2424FF483
:101B2000FA725A4303FB0222B4F8923142F2107166
:101B300001FB0323013BB3FBF2F39BB2A4F8943106
:101B4000002B7FF428AF35E794F87700012100F0EF
:101B5000070010F031FE75E73D4653E709F01EFC23
:101B60000146002864D00023A4F88E31A38CC380E2
:101B70001B230371006809F0E3FB33E70023A4F89B
:101B80008A3120460DF0D2FD35E7218DB4F88C2145
:101B90008B1D9A42C4BF931F5B1AB4F88811CCBF47
:101BA0009BB21346994256D0A4F88831A4F88A31E2
:101BB000A4F88E21CDE694F8D530002B3CD0013B23
:101BC00084F8D53004F1E00840460DF043FB0028CE
:101BD00055D040460DF03EFB002842D00023E3855F
:101BE000C8E6091A6060A3BB51EA0C021ED115B900
:101BF000002F3FF45BAF00263146334642E79DF8A5
:101C0000271020460CF0B4F850E7082120460CF0CD
:101C1000AFF84BE709F01CFC84423FF447AF00DE0D
:101C200044E73E2120460CF0A3F83FE71E4629E793
:101C30000123A4F88E31D5E60AAA0BA92846FFF79E
:101C4000A7FBDDE90A231343BCD0237884F8D53001
:101C5000B8E7002616E7B4F88E1100297FF479AEB4
:101C6000A4E70246D4E91E0107F072FB0028B5D1B3
:101C700094F83C301B0744BF238DE3857AE6FF20B0
:101C80000CF038F8A5E700BF8D49FD1A07000000E9
:101C900000CA9A3B8C49FD1A65D50000000000007F
:101CA0002DE9F04F87B0B0F86071BDF84C9000910D
:101CB000CDE90423B0F82431BDF840A01F44BFB2E1
:101CC0000446A7EB090390F87600D4F81C819EB275
:101CD000BDF844300193C0F3C001BDF8483003960D
:101CE00000F00700029310F065FDE58C052D40F231
:101CF000A38015FB06F5ADB240F2E24BBAF1050F39
:101D000040F28E80B4F86E20B4F86C30134403F2C5
:101D1000D5130344764A77480721E3FB02014FF0CD
:101D20009613E361962323846FA3D3E90023FFF77F
:101D3000FFF8564620F07F4040F2E2430BFB05F2ED
:101D400003FB06F6531E3344B3FBF6F31FFA83FB83
:101D500060600BFB06F082425D4653D26449801AF4
:101D6000A0FB010160A3D3E90023FFF7E1F820F015
:101D70007F408044B4F82421B4F86031A9EB07090E
:101D80004D44ADB213442B44A4F86031638D134429
:101D90001D4494F837306585DB0955D100DE0027F6
:101DA0003546019B2385029BA4F89231314620469B
:101DB000A4F826A00DF054FC4F4B218D3344881D10
:101DC000B3FBF6F39AB29042A4F88C2104D2C1F589
:101DD0007F41FA310A4492B2009BA4F8882113B1E2
:101DE0000023A4F8943143462A4639462046FFF79B
:101DF00017FD94F8623143F0010384F8623107B0B3
:101E0000BDE8F08F121A3A48A2FB000136A3D3E9CD
:101E10000023FFF78DF820F07F40A8EB0008A9E72A
:101E20004FF096130AF10106E36196232384B6B2BC
:101E30000A204FF4FA7381E7039B013515FB03F584
:101E4000ADB24FF4FA7B59E7216CA36C284F01FB2C
:101E50000233039A01FB1233A3640023C4F8DC307D
:101E600010F078FE054694F8D400C0F3420010F05C
:101E700073FE054406FB05F5204B1E4805F5742549
:101E800005F23F25A3FB0535AD0CA36C25640BFBC8
:101E900005FB72085B44963A934228BF1346C4E997
:101EA0001123049B40F2E24909FB03F30721236558
:101EB000EBFB07010CA3D3E90023FFF739F8104B24
:101EC000059AA8EB0008A3FB0230800A09FB00F08A
:101ED000A0FB070104A3D3E90023FFF729F8751B32
:101EE00020F07F475DE700BF8D49FD1A0700000025
:101EF00000CA9A3B8C49FD1A7FC3C90183DE1B438C
:101F00005917B7D1000000002DE9F04F0D460968C0
:101F1000B0F82EE0D1F800900146144651F82EABEF
:101F200052F8086B91F802C0834691B0D0F81E00B9
:101F3000BBF822109BF81C70A4F808E082F802C0DD
:101F4000DBF82A206260DBF83A20C4F82220ADF8E2
:101F50003C109BF83E100E9084F8261010AB13E94D
:101F6000030004F122020C90ADF834101046052154
:101F700007F078FB94F8272000F03F0060F305029B
:101F800084F827209BF83F20C2F3040184F828102E
:101F9000BBF83410E1820128C7F380170DD902F095
:101FA0001F021B3202F01F020B2A06D889B2063923
:101FB00089B240F67A42914219D90021C9F8081035
:101FC00094F82C2061F3000284F82C200125DBF822
:101FD0000C408BF804505046594609F0A5F920688A
:101FE0002571214611B0BDE8F04F09F0A9B92A6862
:101FF00000215160BBF836202283B4F81680BBF86C
:1020000032300A9340F2E242304602FB08F80DF00B
:102010003BFB9BF83F1096F8D400490961F343005D
:1020200086F8D40010F096FD0B9096F8D400C0F31B
:10203000420010F091FD0B99084408FB00F098490C
:1020400000F5742000F23F20A1FB00104FEA580178
:10205000800C9639206361639BF8311040F2E242B4
:1020600001FB02F26264BBF83820A6F892214146D7
:1020700030460DF0F5FA8B4A8B49C6F89811424468
:10208000B2FBF8F290B2A6F88C01218B01F1060C9C
:10209000604504DDC1F57F41FA31014488B25946FB
:1020A000A6F8880111F81C2FC907C2F3401200F1ED
:1020B000E680BDF83410ABF823100C988BF81E7036
:1020C0004FF48071CBF81F00ABF81C10E18AABF81D
:1020D0002610218BABF82810B6F89211ABF82A1015
:1020E00096F8D4100B92C1F342018BF82C103046B5
:1020F0000BF0C6FA5946A082ABF8060050466F684E
:1021000009F012F90B9AA18AD7F800A0F9801C23D4
:102110003B71002A40F09F803A773946504609F0DB
:102120000FF994F86700B4F85CA0B4F85E70012170
:1021300000F0070010F040FB574407F2D5173B189A
:1021400082465A4F5A480721E3FB07014FF0961386
:10215000C4E9033350A3D3E90023FEF7E9FE20F0DE
:102160007F407060EB680A98226B40F2E24101FB0D
:10217000003404F2B3440221A41A0120A8EB02089F
:10218000002207F021F948460BF056F8A4EB0A04A8
:1021900041A3D3E900238246A4FB0701FEF7C8FE52
:1021A000CDF80490AB684349009120F07F470AF1D5
:1021B0000202363BD2B23B440121002008F0A4FBCE
:1021C00001285ED099F81830DB0750D430460BF068
:1021D00057FA364CA8FB04482FA3D3E900238346C3
:1021E00041462046FEF7A4FEAB68334A0792A3F1AE
:1021F000360A324B069620F07F49A9FB0331E01ADC
:102200002F4B05934FF4F8730893736804934FF0C2
:10221000070303FB091168EB010100244FF47A72F4
:1022200000230394FEF784FE0BF10305EDB2CDE924
:102230000190009753462A460121204608F0A4FA4F
:1022400010F0FD0F23D101220221104611B0BDE88C
:10225000F04F07F0B9B894F8273043F0400384F802
:102260002730201D0FF010FF0122208554E70023A6
:10227000012200931846114608F010FBA6E700DE85
:1022800017E709F0E5F881459CD000DE9AE700DE0B
:10229000D9E700BFAFF300808D49FD1A07000000A9
:1022A00083DE1B437FC3C901404B4C0000CA9A3BED
:1022B0008C49FD1A351F0100851E01008D49FD1A4C
:1022C000AD1E010000000000F0B5C468636883B073
:1022D0000546002B40D111F07FFC002011F0A0FC3E
:1022E0000021084611F08EFC00222521082011F063
:1022F000F5FC374B019301A811F0DCFC354940F2A5
:102300005B6011F099FD237AC3F3420262F3061376
:102310002372204610F0A4FD27682E68384610F07E
:1023200003FA06446A6806F10901012011F0ACFEC7
:1023300011F06CFF20460AF08BFF811C3246C9B2B7
:10234000384610F0F3F9054698B9204610F0C8F960
:1023500068B9002003B0F0BD93F82C309B07BAD0C9
:102360001D48214611F00CFC11F004FDF1E700DEE0
:10237000EFE71A4A1A491B4840F2114318F004FDCE
:10238000194B0721A5FB030301FB05310EA3D3E97C
:102390000023FEF7CDFD15490246154818F0F4FC60
:1023A000002585F31188BFF36F8F0323184602DFE2
:1023B0001048214611F0E4FB11F0DCFC6FF08B00BB
:1023C000C8E700BFAFF3008000CA9A3B00000000DE
:1023D000D6BE898E555555006928010098FE01002A
:1023E000E4FE010060FE01008D49FD1A2C00020090
:1023F000E8FE0100652B01002DE9F043C468A28AC4
:102400004FF6FF739A4283B000F0FD80064610F04D
:102410004DFF3389628B208C94F82710A3831A44D4
:1024200092B2104480B2431C23840023638301F0E2
:102430003F034906E28300F1A48094F8281000933A
:1024400004F1290004F122030FF0E0FD0546D4E970
:102450000C31A26BA08BA36303FB0022E36B8A42C7
:1024600094BF9B185B188B4228BF0B46626CE363DA
:10247000236C94F867101A4494F82C3061F3061317
:102480000021C4E9101294F87E2084F82C3012F058
:10249000040200F0898011F09FFB002011F0C0FBC6
:1024A000201D11F007FC2389A17A40F25B6043EA0A
:1024B000014111F0C1FC284610F048F92146584866
:1024C00011F05EFBA08911F0D3FD94F8662094F81A
:1024D0006700C2F3C003002102F0070200F007000A
:1024E00011F010FD204610F07BFFD4F80080376813
:1024F000404610F019F90744726807F109010020FD
:1025000011F0C2FD814611F055FE002011F06CFE65
:10251000E36B94F8670003F12F02636C012100F074
:10252000070003EB420511F017FC4D44054494F8F5
:10253000670000F00700022834D004280CBF4FF4D5
:10254000BC73282301211D4411F008FC284411F01C
:1025500023FEA18A03313A46C9B2404610F0E6F89C
:102560000546A8B1B37A13F002062BD000252D48FA
:10257000214611F005FB11F0FDFB284603B0BDE834
:10258000F083218D04F122020FF082FD05465EE703
:10259000204610F0A5F800283CD10025284603B0BD
:1025A000BDE8F0831823CDE7D4E91A0106F0D0FE88
:1025B00000287FF470AF94F87E3043F0040384F871
:1025C0007E3068E7184A194919484FF4AC7318F07F
:1025D000DBFB18480721A5FB000301FB05310EA317
:1025E000D3E90023FEF7A4FC13490246134818F070
:1025F000CBFB86F31188BFF36F8F0323184602DFEE
:102600006FF08B05B3E70E48214611F0B9FA11F0CF
:10261000B1FBC2E700DEC0E700CA9A3B0000000041
:10262000053601004928010014FF0100E4FE010005
:1026300060FE01008D49FD1A38000200E8FE01002D
:102640006928010000000000032973B505461446FF
:1026500061D8002A40D0072A5DD15A681C683848E2
:10266000D1171346C4FB0031012B71F1000225DBA9
:1026700000F56E1000F65D7018182FA3D3E9002343
:1026800041F10001FEF704FC80B202282A691DD046
:1026900004281DD008281DD0102832D10323294931
:1026A00051F823101161526814691B013022232153
:1026B0002846A44602B0BDE870406047224818187A
:1026C00061F100011CA3D3E90023DBE70023E6E767
:1026D0000123E4E70223E2E71A8806691B4B33F87B
:1026E000021B8A420AD173680DF107029B68202100
:1026F00028469847002807DA02B070BD01340B2C39
:10270000EDD16FF01500F7E79DF80720110723467C
:1027100004D4082C05D16FF08500EDE7092CA8BF83
:10272000092302F00F0242EA03127368D2B2DB6897
:10273000202128469847DFE73AA3950000000000D3
:1027400040420F00F0050020632EB5FF1406020082
:1027500038B500F0D9FA00F015F900F0BFF801F033
:102760006BFA0E4C0E4D00F05FFB002802DD206876
:10277000EE280AD92146284601F0A4FD01F098FA76
:10278000002121201CF0C9FCEDE7C0F1EF01284435
:1027900000F012FB236803442360E4E7D810002014
:1027A00020370020044A054B002918BF1A4601466D
:1027B000034818F0DCBA00BFE50702002A06020051
:1027C0003206020008B500F0C5FD10B11D4818F032
:1027D000CEFA00F077F9807900F0ECFE00F03CFED4
:1027E00001461948FFF7DEFF002000F0BFFE01465A
:1027F0001648FFF7D7FF012000F0B8FE0146144845
:10280000FFF7D0FF01F03EF801461248FFF7CAFF7C
:1028100001F078F801461048FFF7C4FF01F0BEF858
:1028200001460E48FFF7BEFF01F0DAF801460C48FA
:10283000FFF7B8FF01F000F9BDE80840014609487C
:10284000FFF7B0BF49060200890602008F060200AA
:10285000950602009B0602009F060200AA060200DF
:10286000AF060200B506020002460B46014815F00D
:102870002FBC00BF68070020014815F09BBC00BFBB
:102880006807002013B54FF0FF304FF0FF31FFF71E
:10289000EBFF002000F0C8FF044618B1002000F054
:1028A000D3FF0124012000F0BFFF78B1012000F028
:1028B000CBFFFFF7E1FF684617F0B7FDDDE9002326
:1028C000054802B0BDE8104015F05ABFFFF7D4FF2D
:1028D000002CF0D102B010BD0000002010B500F0B7
:1028E00039FC0C4C0C49002808BF21460B4818F055
:1028F0003EFA00F0B3FC0849002808BF214608480A
:1029000018F035FA074818F032FABDE81040FFF722
:1029100059BF00BFE50702002A060200BB060200FD
:10292000CD060200DF06020013B5441EE4B2012CFE
:1029300017D84FF0FF304FF0FF31FFF795FF2046DB
:1029400000F056FF0446FFF797FF54B9684617F0AA
:102950006CFDDDE90023044802B0BDE8104015F02D
:102960000FBF02B010BD00BF0000002008B5044832
:1029700018F0FDF9FFF726FFBDE8084017F0EABEA2
:102980000D0702002DE9F0434B4B4C4DC82289B096
:102990001A804FF4C0729A8080229A714FF4C872E4
:1029A0004FF4FA714FF4C8401A810022598098817F
:1029B000D9815A8168466946AC5C01F8014B013205
:1029C000202AF9D19DF80020532A71D19DF80120C9
:1029D0004A2A6DD19DF80220522A69D19DF8032020
:1029E0004D2A65D19DF80420422A61D19DF8052029
:1029F0004B2A5DD19DF80620302A59D19DF8072039
:102A0000312A55D19DF80820012A51D19DF809207D
:102A1000012A4DD12A4E4FF0FF32002110F8014B10
:102A20006240082442F300053540013C85EA520229
:102A3000F8D101311C29F1D10799D2438A4237D10B
:102A40009DF80F609DF813509DF814409DF81500F7
:102A50009DF81610BDF81720BDF80C809DF80EE00B
:102A60009DF810C0BDF81170BDF80A90A3F8009051
:102A7000003E18BF0126003D18BF0125003C18BFCD
:102A80000124003818BF0120002908BF6421002A52
:102A900008BF4FF4FA72A3F8028083F804E05E7175
:102AA00083F806C01F819D72DC7218735973DA8136
:102AB00009B0BDE8F08300BF1C060020E50E02004F
:102AC0002083B8ED004870471C060020004870477E
:102AD00058FA010007491420034601380A5C12F035
:102AE000DF0F01D0184601E00028F5D1012838BFDA
:102AF00001207047620600204B1E59425941014B8C
:102B0000197070470F38002030B51C4B1B688DB012
:102B1000002B30D140F20113ADF80C3006238DF8B4
:102B2000083002AB049309238DF81430FFF7D2FF6D
:102B3000134D144B8DF8150006930FCD07AC0FC441
:102B40002B6823600123009303A90F4B022207A8DF
:102B500003F070FF014670B110F1780F0BD00B48F5
:102B600018F005F90A4842F2676200230DB0BDE88B
:102B7000304015F039BE0DB030BD00BFDC10002074
:102B800020FA01006206002060FA01002607020018
:102B90003000002010B5044619B1BDE81040FFF721
:102BA000B3BF04481CF0C1F9204619F09AF9024B52
:102BB000186010BD30000020DC10002008B5054B67
:102BC0001B682BB904F056F8BDE80840FFF79CBF1E
:102BD00008BD00BFDC100020014815F0EBBA00BFB3
:102BE0007C070020F8B515461E464FF0FF324FF027
:102BF000FF33124815F06CFA114B124819880488FB
:102C0000DFF844C077186A1EBFB20025B94202D06F
:102C1000B1F5007F06D30DB104801980FFF7DCFF0A
:102C20003046F8BD12F8015F0CF804500131013450
:102C3000C4F3080489B20125E8E700BF7C0700203F
:102C40008C3200208E3200201038002010B50E4C3F
:102C5000206818B104F082F9002323600B4B002494
:102C60001C704FF0FF324FF0FF33094815F030FA77
:102C7000084B1C80084B1C80084B1C80FFF7ACFFE6
:102C8000BDE81040FFF740BFDC1000200F380020E7
:102C90007C070020903200208E3200208C320020F1
:102CA00070B50D46064600B3D9B1FFF713FF0428EF
:102CB000044618D90E490F4804221CF07FFBB0FAD5
:102CC00080F35B099B00E41AA5420A4998BF05F10D
:102CD000FF341944224630461CF041FB0023335593
:102CE0002546284670BD0023EDE70546F9E700BFFD
:102CF0004A07020062060020024B1868003818BF1D
:102D000001207047DC10002030B5134887B004F074
:102D10006BFC002003F0F0FA054630B101460F4885
:102D200007B0BDE8304018F022B8FFF7D3FE0C49D9
:102D30000246044668461CF012FB04F118030DEB32
:102D40000304684604F8185C02F006FF07B0BDE80B
:102D50003040FFF7D9BE00BF800200204F070200BD
:102D60006206002070B5114B1E6886B005460C4601
:102D700016B9002006B070BD0D4B1B78002BF8D0A3
:102D80000028F6D00029F4D00021182268461CF053
:102D90000DFB084BADF80C4069463046CDE90135D6
:102DA00006F0F8F80028E4D12046E3E7DC10002024
:102DB0000F38002090FA0100F8B50D46044640B3E4
:102DC000A1B14FF0FF324FF0FF33134815F080F9F7
:102DD0001248134902880B88DFF848C00027013CDD
:102DE0003E462BB997B9FFF7F7FE35462846F8BDA2
:102DF00001361CF8027004F8017F0132013BB54234
:102E0000C2F308029BB24FF00107EAD102800B80A7
:102E1000E9E70546EAE700BF7C0700209032002082
:102E20008C3200201038002010B54FF0FF324FF0E8
:102E3000FF33044815F04CF9034B1C88FFF7CCFE18
:102E4000204610BD7C0700208C320020F7B50746D5
:102E500040F2E730002300EBC130104E4FF47A729D
:102E6000490CFEF765F8336805460C4653B912F075
:102E70005BFB306030B92846214603B0BDE8F04026
:102E800017F078BC00F07CF80121009130683B46D7
:102E90004FF0FF3212F0BAFAEDE700BFE010002069
:102EA00070B5334C88B00025FFF726FFB8B17DB967
:102EB00030484FF4E171FFF7C9FF2F484FF46171BB
:102EC000FFF7C4FF206818B11AF00DFB00F05EF8A0
:102ED0004FF40050002117F04DFC0125E4E702AE4D
:102EE00015213046FFF7DCFE4FF42F7105462148CF
:102EF000FFF7ACFFFFF700FFE0B92368E3B100F094
:102F00003FF81E4B206800964FF42F72022112F0FA
:102F1000BDFA00260435B54214D82368EBB90A255A
:102F2000FFF7EAFE30B94FF40050002117F022FC01
:102F3000013DF5D10025B7E712F0F6FA2060002830
:102F4000E7D0DCE7FFF7D8FE0028E6D145F69A1077
:102F5000002117F00FFC0136DDE7FFF7CDFE00285A
:102F6000DDD120681AF0BFFA00F010F8D7E700BFF3
:102F7000E01000200A0F0200050F020066070200A1
:102F8000014BFF221A707047103A0020014B0022BB
:102F90001A707047103A002008B512F0C5FA014BBC
:102FA000186008BDE410002037B50F4B04461868C0
:102FB00020B12CB91AF097FA0C4B1C7003B030BD3D
:102FC0000A2CFBD8094D2B78A342F7D0084A631E80
:102FD000012103EB8303134400914FF0FF3212F001
:102FE00015FA2C70EAE700BFE4100020103A002028
:102FF0000F0F020008B5044B186820B11AF073FADD
:10300000024B00221A7008BDE4100020103A002084
:1030100037B50F4B0F4A012808BF13460E4A1078E8
:10302000A0B118681C790569836801A95B68984795
:1030300040B92B68019858400123A340184000383C
:1030400018BF01200028D4BF0020012003B030BDEC
:10305000E0FA0100E8FA0100143A002038B5431EF6
:10306000012B04461FD8104D2B78BBB90F481BF01D
:1030700007FD98B10D481BF003FD78B10B484FF0E8
:1030800001120E2117F078FB40B908484FF00112E9
:10309000172117F071FB08B901232B702046FFF7A9
:1030A000B7FF034B185538BD143A0020D0F5010086
:1030B000113A0020431E012B10B504460AD8FFF731
:1030C000A7FF0549024618B10B5DB3FA83F040092A
:1030D0000A5510BD0020FCE7113A0020024B0022E7
:1030E0005A709A70704700BF113A002008B5064820
:1030F0001BF0C6FC38B1054B054801221A70BDE82B
:103100000840FEF7F5B808BD94F60100153A002016
:1031100060E31600064B1B784BB1002803DC04D19A
:103120000448FEF7E5B80448FBE70448F9E77047B0
:10313000153A002060E3160080841E0040420F0014
:10314000034B1B7813B10020FFF7E4BF704700BFAB
:10315000153A002070B5184D00232B70174C2046EF
:103160001BF08EFC18B96FF01204204670BD144E8F
:1031700030461BF085FC0028F5D02269A168136851
:1031800023F4801313600B6820464FF4202214218F
:10319000984704460028E8D1B3680A491B683046BE
:1031A000984704460028E0D1A42000211BF0B5FF79
:1031B00001232B70D9E700BF163A0020D0F501009B
:1031C00040F60100F6FA0100024B1878003818BFEB
:1031D00001207047163A002070B506468AB00028D4
:1031E0002FD01B4B1B787BB300230493CDE9023314
:1031F000642301933F23ADF8103001AB0593802386
:10320000144D089301240C2306940795ADF824303F
:103210001148836805A95B68984780B9B5F9001023
:1032200023460A4635F9024FA142A8BF2146013381
:10323000A242B8BF2246402BF4D1521A32800AB0C3
:1032400070BD6FF01500FAE76FF01200F7E700BFEE
:10325000163A00209232002040F6010038B50A4D9F
:1032600000232B70094C20461BF00AFC40B1A368D8
:103270000321DB682046984708B901232B7038BD2D
:103280006FF01200FBE700BF173A0020E8F60100DC
:10329000024B1878003818BF01207047173A0020F9
:1032A0002DE9F041804686B00F46002942D0244BDC
:1032B0001B78002B41D0234CA6680321F3682046DD
:1032C0009847054690BB032133696A4620469847D4
:1032D000054658BB009A019E039C4FF47A7396FBF7
:1032E000F3F603FB0266029A94FBF3F4404603FBF9
:1032F0000244FDF789FB1449FDF7DEFB1349FDF796
:103300008FFC16F0EBFA1249FDF7D6FB0146FDF7EC
:10331000D3FBFDF779FE84FB0448C6FB06488442D4
:1033200078EB0108ACBF012300233B70284606B0B0
:10333000BDE8F0816FF01505F8E76FF01205F5E7CD
:10334000173A0020E8F60100DB0F49400000344343
:10335000003C194610B5074C23782BB906481BF0E2
:103360008FFB18B101232370002010BD6FF0020005
:10337000FBE700BF183A00205CF6010070B5044678
:103380008AB013B14AB3152B27D81748007838B341
:103390008DF8101004A9D5180846954218D10133AC
:1033A0000293022301908DF80C3010489DF80C30E8
:1033B000826843F002038DF80C30956823460122A1
:1033C00001A9A847003818BF012040420AB070BDCB
:1033D00012F8016B01F8016FDFE76FF00100F5E70C
:1033E0006FF00200F2E700BF183A00205CF601001F
:1033F00030B589B004468DF807101AB313B31449D9
:10340000097811B30DF1070102910121CDE90523DE
:103410000391072300218DF810108DF81C300D4802
:103420009DF81C30826843F002038DF81C309568CB
:103430002346022202A9A847003818BF01204042B3
:1034400009B030BD6FF00100FAE76FF00200F7E756
:10345000183A00205CF6010007B5252001A917F0F5
:10346000A6F9064AB0FA80F35B091370044B7F2279
:103470001A705A7003B05DF804FB00BF193A0020BF
:10348000AA0600200128F7B505463AD8214B1B783B
:10349000002B39D06FF063048C421F4FB8BF0C462D
:1034A000642C3B56A8BF6424A34230D01B4B002998
:1034B0001E5CE3B21EDA5B428DF80630A31103F006
:1034C0000203B11C8DF807300DF106020123C9B2C9
:1034D0002520FFF753FF90B9711C01230DF107025E
:1034E000C9B22520FFF74AFF002818BF7F247C556A
:1034F00003B0F0BD8DF80630E0D00123E1E77F2472
:10350000F5E76FF00100F3E76FF00200F0E700204D
:10351000EEE700BF193A0020AA060020440F02007F
:1035200010B50E4B1B78ABB10D4A0E4C02238D210A
:103530002520FFF723FF48B90B4A01238C212520C2
:10354000FFF71CFF10B92070607010BD7F2323703F
:103550006370FAE76FF00200F7E700BF193A002046
:10356000420F0200AA060020410F02000128F7B511
:10357000044617D80D4B0E4E185C01A917F017F929
:1035800005466042302700F030003A4600213044C2
:103590001BF00CFF7C43B5FA85F35B0933552846D5
:1035A00003B0F0BD6FF00105F9E700BF5E0F020048
:1035B00012330020014B1870704700BFAC0600208A
:1035C000012870B515D8062913D801EB41014442F2
:1035D0004D1C04F030042C44074D30262C4406FBCF
:1035E00000550D4400206A7063709DF81030A37080
:1035F00070BD6FF00100FBE712330020F0B5012829
:1036000087B0044652D830232B4D4343EB5C002B4C
:103610004FD02A4B414201F0300193F800C06E18A0
:1036200068460022FF27013216F8013FD2B2152A60
:1036300013FB0CF3B3FBF7F300F8013BF3D130239A
:1036400003FB045393F82B3043B1163129446846E9
:103650001BF0B4FE10B9002007B0F0BD18481523C8
:10366000005D6A460B21FFF789FE3023C0B903FBDA
:1036700004536A46163304AF164603CEBE421860A2
:103680005960324603F10803F6D130681860327988
:103690001A71302303FB0453012283F82B20DAE74D
:1036A00003FB0455002385F82B30D5E76FF00100AC
:1036B000D2E76FF00200CFE712330020AC06002003
:1036C0005E0F02002DE9F347274B284F302202FB03
:1036D00000330546DC8D00264FF00708E308B3FBF6
:1036E000F8F2C2EBC2029B1A9BB2591C89B2B1FB21
:1036F000F8F2C2EBC202891A01EB410103EB43036A
:1037000007EB010A07EB03099AF8010099F8012079
:10371000FB5C04F0070CCCF1080E10FB0CF002FB74
:103720000E007A5C9AF8021012FB0CF203FB0E22D8
:1037300099F8023011FB0CF103FB0E11C1F3C70124
:103740000091C0F3C703F1B2C2F3C70228460136A5
:10375000FFF736FF0834072EA4B2BFD1284602B0C7
:10376000BDE8F047FFF74ABF12330020460F0200C2
:1037700001282DE9F34105460E461746984617D80D
:103780000E4B302202FB0033002483F82C40E1B2C0
:10379000CDF800803B46324628460134FFF710FF43
:1037A000072CF4D1284602B0BDE8F041FFF726BF50
:1037B0006FF0010002B0BDE8F08100BF12330020BD
:1037C000012810B40DD80139CBB2072B09D8074C0A
:1037D00001EB41010A19615C937810BC5278FFF744
:1037E000C7BF6FF0010010BC704700BF460F02005A
:1037F000012803460ED830220A495343CA18CB5C2D
:103800005BB192F82C305BB9012182F82C10D38582
:10381000FFF758BF6FF0010070476FF0020070476C
:103820000020704712330020012809D8054B3022B0
:1038300002FB003393F82C00003818BF01207047BA
:103840000020704712330020012810B411D80C4A10
:10385000302101FB002292F82C3073B1D38D382136
:103860000133B3FBF1F401FB1433D38510BCFFF734
:1038700029BF6FF0010010BC70471846FBE700BF7E
:103880001233002007B5222001A916F090FF044A48
:10389000B0FA80F35B09137003B05DF804FB00BF5E
:1038A0001A3A002037B5054618B3154A1278002396
:1038B00003700AB38DF806300DF1060201230B21C7
:1038C0002220FFF795FD044680B99DF806306BB1C4
:1038D0008DF8070001230DF107020B212220FFF7CD
:1038E0004DFD9DF80630012B00D12B70204603B012
:1038F00030BD6FF00104F9E76FF00204F6E700BF96
:103900001A3A002007B5232001A916F050FF054AF6
:10391000B0FA80F35B091370034B00221A7003B0F6
:103920005DF804FB1C3A00201B3A002073B50D46DD
:10393000044620B3154B1B7823B3154E33784BB197
:10394000144B1B68CB1A132B04D8134B1B882380F2
:10395000002008E0022301AA0A212320FFF748FDE6
:1039600018B10023337002B070BDBDF804300A4AAC
:103970005BBA1380074A156001223270E7E76FF0E7
:103980000100F0E76FF00200EDE700BF1C3A0020F5
:103990001B3A0020E81000207233002007B52120D8
:1039A00001A916F004FF044AB0FA80F35B09137012
:1039B00003B05DF804FB00BF1D3A0020024638B199
:1039C000064B1B783BB101230B212120FFF710BDD3
:1039D0006FF0010070476FF0020070471D3A002041
:1039E00007B5202001A916F0E2FE044AB0FA80F3E0
:1039F0005B09137003B05DF804FB00BF1E3A0020A2
:103A000013B5044678B10B4B1B787BB1022301AA96
:103A10000A212020FFF7ECFC18B9BDF804305BBA8E
:103A2000238002B010BD6FF00100FAE76FF00200D2
:103A3000F7E700BF1E3A002013B520230A4CADF86B
:103A400004300021022301AA10202170FFF796FC08
:103A500040B90DF10601092016F0BCFEB0FA80F362
:103A60005B09237002B010BD1F3A002070B50E46EE
:103A700015461C460146C8B1C6B1BAB1B3B10E4B2A
:103A80001B78B3B1082016F0A5FE88B9314609208D
:103A900016F0A0FE60B929460A2016F09BFE38B940
:103AA00021460B20BDE8704016F094BE6FF0010077
:103AB00070BD6FF00200FBE71F3A0020F0B5104A1E
:103AC0001088E0B1002313800E4A2C24164640F2E1
:103AD000022504FB03F1715AA9420BD1117B4F1E41
:103AE000082F07D820FA01F1C90741BF0121117041
:103AF000002151700133052B02F12C02E9D1F0BDF8
:103B000074330020EC10002001480321FFF72AB98C
:103B1000650F020001480421FFF724B9600F02007D
:103B20000D4B10B5002418462C2200211BF03EFC42
:103B3000847401340346052C03F12C03F3D1074AA6
:103B400000231380064A1370064A1370FFF7C6FA63
:103B5000BDE8104016F0FEBDEC10002074330020CC
:103B6000463A0020203A00202DE9F0410146054662
:103B7000244816F006FF0446FFF7D2FFFEF7F6FED4
:103B8000214B1D700CB1237833B9204800222946FF
:103B9000BDE8F04116F0EDBD00211D4B221D04F1E2
:103BA000090704F10E0001264FF0020C8E4692F830
:103BB0000580B8F1010F16D9117800EB0108415CBE
:103BC000102901D0A12903D1A3F810C01E7009E06B
:103BD000112913D198F8018083F80C8002211982F1
:103BE0001970597001210132BA4203F12C03DED160
:103BF000084B6288197008482946C9E7A3F810E005
:103C0000E4E700BF76330020473A00207C0702003B
:103C1000EC100020463A002084070200431E082BC7
:103C200006D8044A012303FA00F0138818431080D1
:103C3000704700BF7433002008B5164816F064FEC4
:103C40000021DC2214481BF0B1FB134A1348012366
:103C500082F83E30022382F86A30032382F89630DD
:103C6000042382F8C2300E4A002313700D4A1370E9
:103C70000D4A13700D4A138016F0CBFE16F029FC86
:103C8000FFF78AF916F051FCFFF730FABDE808405B
:103C900016F060BD76330020EC100020213A0020A1
:103CA000473A0020463A0020203A00207433002092
:103CB0002DE9F04FAB4B1B7885B0002B00F0C9818C
:103CC00016F0D2FBA84C0546FFF7F8FE002322466B
:103CD00026462C2001279C4600FB03F1715AB1F5C2
:103CE000817F06D15168691A0029A4BF177082F834
:103CF00001C00133052B02F12C02EDD1DFF86882FF
:103D000000274FF02C0940F2023A09FB07F3F35A5F
:103D1000534510D198F80C00431E012B0BD8FFF728
:103D2000C9F940B1012388F80030002388F8013038
:103D3000F8B216F02FFE0137052F08F12C08E4D158
:103D4000894F4FF000084FF02C0940F2027A09FB2E
:103D500008F3F35A534512D17B68EB1A002B0EDBA4
:103D6000797B387B16F01BFC00285FFA88FB3DDD71
:103D700001233B7000237B70584616F00BFE08F1C0
:103D80000108B8F1050F07F12C07E0D1764F4FF08D
:103D900000084FF02C0940F2026A09FB08F3F35ABD
:103DA00053450CD17B68EB1A002B08DB04233B70D6
:103DB00000233A7B6D487B70414616F0DAFC08F12F
:103DC0000108B8F1050F07F12C07E6D1DFF8A09143
:103DD000684899F8001016F0D4FD074608B103783A
:103DE0006BBB05B0BDE8F04FFFF79ABE04D1B860D9
:103DF00005F119037B60C2E701300CD101233B7050
:103E0000002358467B7016F0C5FD3A7B5A48414660
:103E100016F0AFFCB3E7BB6823B9012D2B4638BFC2
:103E20000123BB60EB1A41F287329342E0D90423AD
:103E30003B7000233A7B51487B704146E8E750488D
:103E4000DFF8248116F0E5FD4D4800F085FA4FF0CB
:103E5000000A40F2024B2C2303FB0AF3F35A5B45A2
:103E60000CD1D8F80430EB1A002B52DB16F087FB8C
:103E7000012388F80030002388F801300AF1010A94
:103E8000BAF1050F08F12C08E5D1DFF8DC804FF01E
:103E9000000A4FF02C0B0BFB0AF340F20252F35ACC
:103EA00093421AD1D8F8043098F82610EB1A002B58
:103EB0003BDB042902D10020FFF72CF90BFB0A633E
:103EC00043F20322DB8C934201D1FFF793F80123E5
:103ED00088F80030002388F801300AF1010ABAF1AD
:103EE000050F08F12C08D6D1002507F1040AA846D1
:103EF0000E372378012B49D1228A9AF80530511CBC
:103F000099421DDB03231F482370294616F031FC1C
:103F10003CE098F82530009398F8243098F8122067
:103F20001748002116F079FDA8E798F8283000938B
:103F300098F8273098F81220114816F06EFDCCE75B
:103F40009AF800303B44204613F802B01344594617
:103F50005A7800F007FA052818D8DFE800F0541561
:103F600052577D88463A0020EC1000209907020045
:103F7000473A0020763300208907020090070200AC
:103F8000213A0020A2070200638C23820135052D0F
:103F900004F12C040AF1010AABD14E4C002000F0D0
:103FA000DBF9204600F00EFC94F82430002B64D19D
:103FB000494D94F823302A789A4275D100232C2158
:103FC00001FB03F2B25C013A012A42D90133052B0D
:103FD000F6D1B8F1000F0AD1B4238DF80C300221CC
:103FE00099F800308DF80D3003A8FEF7BBFE3B4B6F
:103FF00000241C7016F0AEFB99F8001038482246D9
:1040000010E002232370238A0233BEE7002000F071
:10401000A3F92C2303FB0563DC7C032C07D931486F
:104020000022214605B0BDE8F04F16F0A2BBB32335
:10403000022103A88DF80C308DF80D40FEF792FE9A
:10404000294899F80010224616F093FB2046FFF706
:104050008BFD05B0BDE8F08F0323228A234823702F
:10406000BBF1510F08BF48F0010829464EE7042371
:104070001F4823705A46294648E700252C274FF051
:10408000030A94F82430EB40DB0709D507FB05F35E
:1040900094F82320174806F803A0294616F069FB78
:1040A0000135052DEDD183E783B1B72194F82420A4
:1040B0008DF80C108DF80D30042199F800308DF832
:1040C0000E2003A88DF80F30FEF74CFE94F8233035
:1040D0002B7073E7213A0020203A0020463A002056
:1040E000CA070200A8070200AF070200B5070200D6
:1040F000BC070200C2070200F0B50C46BDB0054681
:1041000000B149B900225D48114616F032FB3DB0BE
:10411000BDE8F040FFF7FEBC0178A1F1A003052B3C
:1041200000F2A980DFE803F06A031D30A755022CD6
:1041300003D0534800222146E7E74478032C03D9F3
:10414000504800222146E0E72046FFF70DFDFFF72B
:10415000DBFC4D48002221463DB0BDE8F04016F0A2
:1041600008BB4478631E082B03D948480022214627
:10417000CBE72046FFF752FDFFF7A0FCFFF7C4FC9A
:10418000434800222146E7E7022C1AD14378D3B9ED
:10419000404A2C21144640F2026001251E4601FBD4
:1041A00003F70133E75B874204BF15705670052B98
:1041B00002F12C02F3D1FFF7A7FC0022364811468A
:1041C000CAE7012C03D06A78344821469DE7FF22D4
:1041D000FAE7022C0AD1467856B9FFF7A1FCFFF79F
:1041E00093FC2F4B2F4819783246B5E7012C03D0AA
:1041F0006A782D48214688E7FF22FAE72B4B1B7887
:104200000BB1FFF78DFC002304A88DF80F3016F0DA
:1042100082FBFEF75BFC83880093064604AB0DF13E
:104220000F022146284616F017FB60B9012C18BF73
:1042300069781F4808BFFF21224616F09AFAFFF757
:1042400069FC3DB0F0BD9DF80F101A48334604AA32
:1042500016F067FB28B9BDF812209DF80F1016481C
:10426000EBE7FFF751FCBDF812209DF80F10134843
:1042700016F07FFAE5E71248224646E7CF0702002C
:10428000D5070200DC070200E2070200E80702008F
:10429000F0070200EC10002003080200F7070200FC
:1042A000473A0020140802000B080200463A00209A
:1042B0001C08020076330020230802002C080200AC
:1042C000320802002DE9F3470D460646A8B3A1B314
:1042D0000024A1462F68A74225D9335D0A2B06EB9F
:1042E000040A01D00D2B01D10134F3E73F1B01AAD1
:1042F00039465046CDF8049016F07AFA3A46804690
:104300000146134816F035FAB8F1000F0BD0B8F19A
:10431000010F15D19AF800100E483A4616F029FA06
:10432000FFF7F8FB2C6844B12A68171B04D03A4603
:10433000311930461BF021F82F6002B0BDE8F0873C
:1043400001995046FFF7D8FE019B1C44C2E700BF0D
:104350003D08020043080200014B1860704700BF8F
:10436000C8110020F0B5622985B004460E461546F6
:104370005AD80F295BD9A1F11003522B57D8DFE887
:1043800013F0290129012B01560056005600560052
:10439000560056005600560056005600560056006D
:1043A00056005A005A005A005A007500750056000F
:1043B000560056005600560056005600560056004D
:1043C00056009500AB00EA00FA00BB00D200BB002B
:1043D000D200E500E500E500E50056005600560075
:1043E00056000C0124010C015600560056005600E0
:1043F000560056005600560056005600560056000D
:1044000056003D01E2016A018B01B1014D014901F4
:10441000BF01BF01BF01BF01BF01BF015600560070
:1044200056007B01DC01E901A12900F0D380A948F5
:104430002A4631468CE0D5B1A74B186828B10095C3
:104440000B46A27C002116F0E8FA0423637016F0F4
:104450000BF829460746204616F0A9FA074467607C
:1044600084F8246084F82550022074E10DB90520F9
:1044700071E1994B186828B100950B46A27C042184
:1044800016F0CBFA0523637015F0EEFF4FF47A7344
:104490006B430C22B3FBF2F303446360042384F800
:1044A000263084F8276084F82850DDE76B1EDBB2E5
:1044B000082BDCD8884B186828B10095A27C3023E3
:1044C000012116F0AAFA0323009330222B46012182
:1044D000204616F085FAC7E7002DC8D17E4B186834
:1044E00028B10095A27C3123012116F096FA012112
:1044F000009100233122EBE76B1EDBB2082BB6D80C
:10450000754B1868342914BF0627052728B1009574
:104510000B46A27C394616F080FA032300932B4603
:1045200032463946D4E7002DA1D16B4B18683529A6
:1045300014BF0627052728B100950B46A27C3946F3
:1045400016F06BFA012300930023E9E763482A463B
:1045500016F00FF98BE7002D89D05F4B186828B152
:104560000095A27C3223032116F057FA0321009113
:104570002B463222ACE7002D7FF479AF564B1868FA
:1045800028B10095A27C3323032116F046FA0123BB
:1045900000933322002303219AE76B1EDBB2082B22
:1045A0003FF665AFB123022103A88DF80C308DF8DA
:1045B0000D50FEF7D7FB06236370257315F054FFEB
:1045C00000F5EA40303060604EE745482A46412118
:1045D00016F0CFF80020BEE06B1EDBB2082B3FF6D2
:1045E00046AF2846FFF71AFBB023022103A88DF837
:1045F0000C308DF80D50FEF7B5FBEBE7012343704F
:1046000015F032FF29460646204616F0D0F906443A
:10461000666029E702236370257325E70A2D12D00F
:104620000B2D16D06B1EDBB2022B3FF620AF032DF5
:104630000AD1072343700423838115F015FF00235B
:104640006060A36010E701252846FEF707FD0323FD
:10465000E1E70225F8E7002D3FF409AF037D032BC6
:104660003FF605AF028A00EB43010232CA82C2184C
:10467000957701332375ADE7002D7FF4F8AE037D08
:10468000032B3FF6F4AE028A00EB43010232CA82EA
:10469000C218FF219177ECE7002D7FF4E8AE037D8F
:1046A000002B3FF4E4AE013BDAB250FA83F3997F7A
:1046B000FF2905D104EB4202D38A638401204AE03A
:1046C0000139C9B299770029F4D1038A02750233FE
:1046D000F3E700BF6E080200C81100204B0802007B
:1046E0005B0802006B1EDBB2082B3FF6C0AE012157
:1046F00080F8295016F05BF929460246174867E70B
:104700005B2910D16B1EDBB2032B3FF6B0AE042346
:10471000134AD35C23735B2E4FF0070218BF0025AA
:104720006270657389E7002D7FF4A1AEA1F1570394
:10473000DBB2052BECD10323ECE7032D3FF697AE5C
:10474000C574032007E0B623022103A8ADF80C309E
:10475000FEF708FB042005B0F0BD00BF68080200AA
:10476000690F02003038072829D8DFE800F00C1C58
:10477000282804231E2601204B1E082B17D80929A0
:1047800016D1FEF7D1B809290BD8012938BF01216C
:104790000B4801EB4103C118C05C8A78497815F0D9
:1047A00099BE0121F4E715F0AFBE0220E4E7012134
:1047B00015F067BE012015F079BE0220FBE77047B7
:1047C0006E0F02002DE9F8430026044680F82360AE
:1047D00080F8246007464FF001083B78F3B17A78FF
:1047E000F3B28AB394F8232008FA06F10A4384F856
:1047F0002320B97894F824200A4384F82420062B37
:1048000007D8DFE803F004120615181B1F0015F087
:10481000B6FEBA783D48314615F0ABFF0136072E9B
:1048200007F10507D9D1BDE8F88315F06DFEF0E773
:10483000FEF7E0FBEDE7FEF783FCEAE7012015F069
:1048400035FEE6E70220FAE7013B052B04D8DFE856
:1048500003F0303F3543555894F8039015F091FE1E
:10486000A9F120030546032B18D8DFE803F0020B5B
:104870001B1E02460121002015F058FE01212A4688
:10488000084609E002464FF0FF31002015F04EFEC9
:104890002A464FF0FF31012015F048FE1C482A46F9
:1048A0004946B9E702460121EFE702464FF0FF31E2
:1048B000E1E7617A207AFFF755FFAFE7A37C322B5F
:1048C00003D1E07CFEF770FBA8E7FEF793FBA5E7BA
:1048D000A27B617B0F489FE7E57D242D14BF4FF03D
:1048E000FF394FF001094846FEF714FCB9F1010FFA
:1048F000094814BF0222012229468DE7617F207FEB
:10490000D9E794F8221094F82100D4E77608020041
:104910007F080200830802008C080200014B1B681C
:10492000184700BFC0020020014B1860704700BF4D
:10493000C002002030B5044685B00D46102200218B
:1049400068461AF033FD02238DF802302A46044BE4
:1049500001932146684614F057FD05B030BD00BFF5
:104960001D49000080B505460E461746984614F0CE
:10497000EFF9034600F0D2FCDFF81890044649F83E
:104980000030424630463946A84754F8090000F046
:1049900067FC00BF080000002DE9F047858B044646
:1049A000280717460CD501290CBF45F0100545F026
:1049B0002005A58387F31188BFF36F8FBDE8F087CB
:1049C000022905F0070540F09480204616F004FA0D
:1049D000052864D801A353F820F000BFB5490000B2
:1049E000F34A00009F4A0000614A00007B4A000031
:1049F0008D4A000001F007035A1F012A1FD8002228
:104A000021F00701062BD4F8008089B2C4E9002206
:104A100009D1434603E0E28B0132E2831B68002B9D
:104A2000F9D141F00201A183204616F0D5F94FF0EB
:104A3000000900286DD041F02001A18369E0042B1A
:104A40000AD121F0070189B2A183204616F0C4F9EA
:104A500010B141F02001A1834FF00008C14658E099
:104A60002369D3F80090A38B23F0070343F00603D8
:104A7000A3834FF0000846464BE02369D3F8049027
:104A8000A38B23F0070343F00403F1E72369D3F872
:104A90000890A38B23F0070343F00503E8E74FF0EA
:104AA0000008C146E7E7012243F00803A38387F328
:104AB0001188BFF36F8F002A3BD1B8F1000F4AD1A4
:104AC000B9F1000F02D02D492046C847EFF31187F6
:104AD000202383F31288BFF36F8FA38B23F0080387
:104AE0009BB2A383D9063FD523F01002A28303F023
:104AF0000705A669A18B002EBFF67CAF0023D4F872
:104B0000008021F00701C4E9003341F00101A183D5
:104B10009946A38B03F0070AAA4502D0A268002A8F
:104B2000C1D1B8F1000F02D1B9F1000FDAD00022E3
:104B3000BAE7A1680029C0D00D680029BDD04F6830
:104B4000334652462046B8471DB12B6829461D46BC
:104B5000F3E72B46FAE74146334652462046D8F85B
:104B6000008016F065F9A8E79A067FF523AF23F0D9
:104B70002002A28303F0070527E700BF5DAE010016
:104B800010B5DFF824C086B04FF42814CDE904C472
:104B90000824029404AC0194BDF82040009418F05D
:104BA0008EF806B010BD00BF1800280008B50348F5
:104BB000034A0021121A16F0C2FB08BDD0080020DB
:104BC000843A00200748084A084908B5121A16F026
:104BD000B8FB0748074A0849BDE80840121A16F012
:104BE000B0BB00BF00000020CC080020E011020094
:104BF0000000002000000020E011020038B505464A
:104C00000C4699B1D1E901230F48096816F0AFF8B5
:104C1000D4E90423E1680D4816F0A9F8E1690C48CD
:104C200016F0A5F8A1690B4816F0A1F8012D05D1E1
:104C3000EFF305810848103916F099F82146284607
:104C4000BDE8384013F0BCB890080200C00802006C
:104C5000F0080200000902002F09020030BFFFF730
:104C6000FDBF00BF2DE9F0410B4EDFF8308006EBB1
:104C70000807CC1B05463246094920461AF06FFB4F
:104C8000A01942460021083C1AF090FB6C6607F11F
:104C90000800BDE8F08100BF000000000400000033
:104CA00014FA010010B51D4C1D4816F060F8A36AF7
:104CB000990130D51B4816F05AF81E20A36ADA0174
:104CC00003D5194816F053F81F20144CA36A1B0390
:104CD00003D5164816F04BF82120A36A590303D5D3
:104CE000134816F044F822200C4CA36A9A0303D50B
:104CF000104816F03CF82320A36ADB0303D50E48C6
:104D000016F035F82420054A936A6FEA03436FEAE8
:104D10001343936210BD1D20D0E700BF00ED00E0FB
:104D2000430902005C090200700902008B090200BD
:104D3000AA090200D0090200EB09020070B5244C58
:104D4000064624480D4616F012F8A36AD90435D554
:104D5000214816F00CF81720A36A1A0503D51F483E
:104D600016F005F818201A4CA36A9B050FD51C48AD
:104D700015F0FDFFA16BA36A180407D5194815F0BB
:104D8000F6FF1EB1A36A23F40043A3621920104C5E
:104D9000A36A590503D5144815F0E9FF1A20A36A40
:104DA000DA050DD5114815F0E2FF1B20084A936A79
:104DB00043F47F43936200232B7070BD1620CBE732
:104DC000A36A9B04F2D50A4815F0D1FF1C20EDE739
:104DD00000ED00E0170A02002E0A0200400A02005D
:104DE000540A02006E0A0200840A0200A00A0200AD
:104DF000B90A020070B5264C064626480D4615F045
:104E0000B6FFA36AD80640D5234815F0B0FF11209D
:104E1000A36A190703D5214815F0A9FF12201C4CDD
:104E2000A36A9A070FD51E4815F0A1FF616BA36A0C
:104E30001B0607D51B4815F09AFF1EB1A36A23F085
:104E40008003A3621320124CA36ADE0703D5164821
:104E500015F08DFF1420A36A9C0603D5134815F0A6
:104E600086FF15200A4B9A6AD10658BF9A6A9A6A39
:104E7000920642BF5A6A22F400525A629A6A42F07B
:104E8000FF029A6200232B7070BD1020C0E700BFA4
:104E900000ED00E0E90A0200000B0200400A0200F7
:104EA000340B02004D0B0200640B0200B90A020031
:104EB0002DE9F0415D4B5F688AB00446C7F30806F0
:104EC000002585F31188BFF36F8F02F07F43B3F1A4
:104ED0007F4F06D102F00C03082B13D1544815F074
:104EE00046FF00252C464FF00008F31E8DF8078082
:104EF000092B00F28B80DFE803F00A7F837B89892E
:104F00008989898710074CBF0C460125EBE7494882
:104F1000464E15F02CFF8DF80780F36A9A0704D5EA
:104F2000454815F024FF00232AE0F36A002B01DA3C
:104F30004248F6E7F36A5B00F5D5414815F017FFE4
:104F40007369A26943F480737361BFF34F8FBFF33A
:104F50006F8F32F8023C726922F480727261BFF383
:104F60004F8FBFF36F8F03F47F42B2F55F4F27D1AE
:104F7000DBB2022B24D12168324815F0F8FE2368F9
:104F80009DF80720CAB902AE04F1200720686168C5
:104F9000324603C20834BC421646F7D1099A002DA6
:104FA00040D0C2F3080121B96FEA52226FEA4222CF
:104FB000099202A91846FFF721FE0AB0BDE8F08168
:104FC0001A4B9A6AD2B22AB10DF107010120FFF7FC
:104FD00011FF0FE09A6A12F47F4F05D00DF107011F
:104FE0000120FFF7ABFE05E09B6AB3F5803F9AD343
:104FF000FFF758FE0346C3E70DF107010020E6E77F
:105000000DF107010020ECE70F488AE70F4B10492C
:10501000104817F4F87FA6F1100208BF194615F0E2
:10502000A6FE80E76FF30802C2E700BF00ED00E0D4
:10503000B20B0200DE0B0200F60B0200180C02009D
:10504000270C0200470C0200640C0200840B0200D3
:10505000990B0200890C0200044B5A6942F01002BD
:105060005A615A6922F008025A61704700ED00E067
:10507000EFF30880EFF3098101B57246FFF718FFDF
:1050800001BD00BF0B4880F3088811F075FB20209C
:1050900080F3118808484FF40061401880F30988B4
:1050A000EFF314800221084380F31488BFF36F8F5D
:1050B00000F06CF8605A0020204D00201EF0040F14
:1050C0000CBFEFF30880EFF30980816911F8021C2F
:1050D0000229FFD001B5724616F035F901BD00BFB7
:1050E00040B2002807DB044A4109012300F01F00F9
:1050F000834042F82130704700E100E040B20028D0
:105100000CDB4309064900F01F00203301228240D6
:1051100041F82320BFF34F8FBFF36F8F704700BF5D
:1051200000E100E0054B420900F01F0053F8222087
:10513000012303FA00F01040704700BF00E100E0D7
:1051400040B20028A8BF00F1604001F10101B8BFE2
:10515000064B4FEA4111ACBF00F5614000F00F0073
:10516000C9B2B4BF195480F80013704714ED00E0C1
:10517000044B054A23F07F039360BFF34F8FBFF3C7
:105180006F8F70470000000000ED00E008B5FFF7EA
:10519000EFFF0B4AD2F8883023F47003C2F888304E
:1051A000EFF3148323F0040383F31488BFF36F8FAA
:1051B000FFF7FCFCFFF706FD00F092F812F0D2FEBC
:1051C00000ED00E042F8203C009B42F81C3C0A49FC
:1051D000019B42F8183C029B42F8143C21F001016B
:1051E0004FF0807342F8043C42F8081C0023203A38
:1051F00002658366704700BF6549000000B50B4B30
:1052000098600B4B1546426E1A600E462C4686F38C
:1052100009880020034B98472046002100220023E4
:10522000014C20476BB30100654900005832002053
:10523000CC110020014B10221A61704700ED00E0F4
:10524000054B5A699B689A421FBF044A536843F052
:1052500080535360704700BF5832002000ED00E0DB
:10526000084B9B6883420BD1EFF3058343B1064B98
:105270005A6842F080525A605A6A22F400425A62D6
:1052800013F06CBD5832002000ED00E011498A682F
:105290004FF030001044EFF3098C80E8F01F20201D
:1052A00080F31288BFF36F8F0B4F4FF000664A698F
:1052B0008A603E60506E094C2060906E00239366B9
:1052C00080F3118802F1300090E8F01F8CF3098818
:1052D000704700005832002004ED00E0CC1100209F
:1052E000044800232021C2180133302B82F8001318
:1052F000F9D1704700E100E008B5EFF30583064AF5
:10530000103B02EBC30152F8330049688847BDE8FF
:105310000840FFF795BF00BF20F701000148006873
:1053200070470000CC11002008B5024B1B6898475D
:10533000002008BDD0110020034B044A1860937868
:1053400043F0020393707047D0110020DC0200206C
:1053500008B50649064821F00701C1F1005202F5DF
:10536000003215F0C1FC002008BD00BF3F760020D0
:10537000D411002070B54169867A0B4D044659B1AD
:10538000437ADB0706D4282303FB06531B6A1B68FA
:105390009B689847002363612820214600FB065044
:1053A000BDE8704019F0D8BCB4070020024B282299
:1053B00002FB0030704700BFB4070020827A064B22
:1053C000282101FB02335A6A9B7E1B33801A23F08B
:1053D0000303B0FBF3F07047B407002038B5074B68
:1053E000827A282404FB02331B6AD3E901240C606F
:1053F0001568FFF7E3FF04FB005038BDB407002039
:105400002DE9F04385B005466846039190461C4659
:1054100019F030FFDDE90067EFF31189202383F3F2
:105420001288BFF36F8F2B8B002B41D0EA8A9A42F0
:1054300025D900220023284612F00CFF0446F0B1C3
:1054400089F31188BFF36F8F039B002B41D0324645
:105450003B46684619F033FFA27A264B282101FB10
:10546000023320461B6A1B6803A91D68DDE900237F
:10547000A847606170BB2046FFF77CFF24E0298BC2
:105480004B1E2B8389F31188BFF36F8FAB7EEA8AA3
:105490006C6A1B3323F00303521A02FB0344154BBF
:1054A000154AEB1ADB105343A372AB7EE372CBE7D2
:1054B00089F31188BFF36F8F23464246284612F0C6
:1054C000C9FE04460028BFD10024204605B0BDE82F
:1054D000F0836361012300252381039B6382E27AC9
:1054E0006560294604F1180019F060FF63692582A0
:1054F000E360EAE7B4070020CDCCCCCC70B50D4C0E
:10550000282500B970BD037A4668002BFAD0013B0C
:10551000DBB20372002BF5D1C3604360837A05FBD5
:105520000343DB6913B198473046EAE7FFF722FFF0
:10553000FAE700BFB4070020024B0122C3F8402560
:105540000020704700E0014048B1054B054A1B6848
:10555000B3FBF2F35843044B43F001031847704781
:105560000806002040420F0050FA010008B5054A25
:10557000054B136010463C23536011F06FF9002077
:1055800008BD00BFE01100203FC00F0030B5037818
:10559000012B11D0022B21D06BB9154B0A4603F118
:1055A000100453F8045B42F8045BA342F9D143882A
:1055B0001A0A8A70CB7030BD0D4B0A4603F11004F5
:1055C00053F8045B42F8045BA342F9D143681A0C18
:1055D000180E4A700870C3F30722EAE700F11003BF
:1055E000013913F8012901F8012F9842F9D1E2E7B6
:1055F000A60F020010B516F004F819F0D4FC04460A
:1056000008B913F0E1FABFF35B8F064B1B68BFF3D9
:105610005B8F0BB10A2098471CB9BDE8104013F00E
:10562000E7BA10BDE811002038B50446084815F067
:10563000CAFE054648B1631EDBB21F2B96BF054A62
:105640000021D15C0C3015F039FF284638BD00BF71
:105650007C080020B60F02000F2810B50CD80D28CA
:105660000CD90A4815F0AFFE044618B104210C30DD
:1056700015F024FF204610BD1328F2D009B10448CC
:10568000F0E7BDE810400220FFF7CEBFA4080020DD
:105690000408002038B5C5682B7893B9B5F80140E7
:1056A0000F21204601F048FDEB78054650B90A4A23
:1056B000118831B96FEA04506FEA10501080074A20
:1056C000137038BD4372012101F09EFC2846BDE8ED
:1056D000384001F043BC00BFF8360020483A0020B3
:1056E00010B586B003AB0024009307490748059422
:1056F0004FF0FF334FF48062CDE9034412F0D8FF3E
:10570000204606B010BD00BF883E002040090020A2
:1057100010B5084C0146062294F86F0001F0C0FF56
:1057200038B994F86F000449BDE81040052201F033
:10573000B7BF10BD600000208C0F020010B5012122
:1057400004460C3015F0DBFE2146034A0078BDE824
:105750001040002316F022B870FC010010B50121A2
:1057600004460C3015F0CBFE2146034A0078BDE814
:105770001040072316F012B838FC010070B531480C
:1057800015F03AFE044600285AD000F10C052846D0
:1057900015F0BDFE022805D004282FD02046FFF7C3
:1057A000ADFE21E0238A032BF8D90421284615F009
:1057B000A6FEFF22438806882276228AC6F30B00C3
:1057C0009A426083EAD10F2101F0B6FC0546002819
:1057D000E4D001F0CDFC320B20762146284616F0AD
:1057E00030FB284601F0BAFB174BD3F834313BB3FA
:1057F000BDE870401549164819F05ABB28460221E9
:1058000015F07DFE054600783E2812D015F056FFB3
:1058100010F002060DD10F4A0F49104840F69A4386
:1058200015F0B2FA86F31188BFF36F8F0323184681
:1058300002DF0B4A28780423214615F0AFFFADE7BD
:1058400070BD00BF94010020600000208003002094
:10585000D00900209D0C0200D10C0200FF0C0200B8
:1058600018FC010010B5012104460C3015F047FE6C
:105870002146034A0078BDE81040022315F08EBF90
:1058800008FC01002DE9F0470C4613F09DF9E5688E
:105890002B78022B67D0042B05D02046FFF72EFE75
:1058A0006FF0150408E0B4F81080B8F1020F08D8C2
:1058B0002046FFF723FE002413F09AF92046BDE8A6
:1058C000F08768783E2809D1B8F1030FF0D0EB7863
:1058D000012B01D00A2B46D1032704E015F0EEFE80
:1058E0000746F8073FD504F10C0601213046D4F8ED
:1058F00014A015F0FCFD0221304615F000FE814693
:1059000000783E2807D1E3681B78012B01D00A2BD1
:1059100006D1032614E015F0D1FEC10706460FD4C8
:10592000174A1849184841F2681315F02DFA002358
:1059300083F31188BFF36F8F0323184602DF02261B
:10594000124A99F800000623214615F027FFB207F6
:1059500012D56369A4F81080A5EB0A0513FA85F542
:10596000E560BB07A7D52146094815F030FD094978
:10597000094819F09DFA9EE72046FFF7BFFDF0E7C2
:105980009D0C02001C0D0200FF0C0200D8FB010060
:105990009401002080030020D00900202DE9F04769
:1059A000884616468246002870D0BFF35B8FDFF82A
:1059B000E090002359E8004F49E80032002AF9D16D
:1059C000BFF35B8F002C61D02046FFF7F7FC314D11
:1059D0000C2303FB005027464388534511D0BFF3E7
:1059E0005B8F59E8003F49E80072002AF9D1BFF304
:1059F0005B8F002B4AD01F463846BDE8F047FFF7C3
:105A00007DBDA64208D0204615F0D8FC328AF16848
:105A100004F10C0015F049FD2046FFF7CFFC0C26E1
:105A200006FB00504368ABB1B8F1000F12D120461D
:105A3000FFF7C4FC06FB005001214268536803F0E5
:105A40001F00814010685B0900EB8300137ACBB123
:105A500015F073FE2046FFF7B1FC0C2606FB005044
:105A60008368002BC8D02046FFF7A8FC704305F8D8
:105A700000802046FFF7A2FC06FB0055A86812F044
:105A80001BFCB9E7C94315F0A0FEE3E7BDE8F087CA
:105A900090010020EC110020094BBFF35B8F1A68C6
:105AA000BFF35B8F02F00B02BFF35B8F53E8001F65
:105AB00043E800200028F9D1BFF35B8F704700BF97
:105AC0003401002010B5C1E900239DF808300B72A5
:105AD0000C46FFF773FC034B0C2202FB00335C60A7
