:10000000B857002005360000597B0100F13500008B
:10001000F1350000F1350000F1350000000000006E
:100020000000000000000000000000003D3600005D
:10003000F1350000000000000D380000F13500002F
:1000400079380000E50601007938000079380000B1
:1000500079380000793800007938000079380000DC
:1000600079380000793800007938000079380000CC
:1000700079380000793800007938000079380000BC
:1000800079380000793800007938000079380000AC
:10009000793800007938000079380000793800009C
:1000A000793800007938000079380000793800008C
:1000B000793800007938000079380000793800007C
:1000C000793800007938000079380000793800006C
:1000D000793800007938000079380000793800005C
:1000E000793800007938000079380000793800004C
:1000F000793800007938000079380000793800003C
:100100007BB972B90029BEBF00204FF0004106E064
:1001100008BF00281CBF6FF000414FF0FF3000F017
:1001200057B8ADF1080C6DE904CE002909DB002BAE
:100130001ADB00F061F8DDF804E0DDE9022304B029
:100140007047404261EB4101002B1BDB00F054F88B
:10015000DDF804E0DDE9022304B0404261EB410137
:10016000524263EB43037047524263EB430300F098
:1001700043F8DDF804E0DDE9022304B0404261EB1E
:1001800041017047524263EB430300F035F8DDF85C
:1001900004E0DDE9022304B0524263EB43037047FD
:1001A00053B94AB9002908BF00281CBF4FF0FF31DE
:1001B0004FF0FF3000F00CB8ADF1080C6DE904CE43
:1001C00000F01AF8DDF804E0DDE9022304B070471E
:1001D000704700BF10F8012B11F8013B012A28BF1E
:1001E0009A42F7D0D01A7047034613F8012B002A21
:1001F000FBD1181A013870472DE9F0478C468E461E
:10020000089E154604461946002B40F0D0807245E2
:1002100047D9B2FA82F74FB1C7F120030EFA07FCB3
:1002200020FA03F3BD4043EA0C0CBC404FEA154EE4
:10023000A8B2BCFBFEF8230C0EFB18CC08FB00F99F
:1002400043EA0C43994528D9EB1808F1FF3204D250
:10025000994502D9A8F102022B44A3EB0903A4B2E9
:10026000B3FBFEFC0EFB1C330CFB00F044EA034422
:10027000A04214D92C190CF1FF3304D2A04202D9A8
:10028000ACF102032C44241A43EA02401EB1FC40A4
:10029000002334607360BDE8F0874246DDE76346C3
:1002A000F1E7002A79D0B2FA82F3002B3FD0194649
:1002B000C1F1200302FA01F52EFA03F20EFA01FE53
:1002C00020FA03F343EA0E034FEA154E00FA01F455
:1002D000B2FBFEFCAFB20EFB1C201A0C0CFB07F8A5
:1002E00042EA004290455AD9AA180CF1FF3004D2D4
:1002F000904502D9ACF102002A44A2EB08029BB25D
:10030000B2FBFEFC0EFB1C220CFB07F743EA024388
:100310009F4246D9EB180CF1FF3204D29F4202D91A
:10032000ACF102022B44DB1B42EA004202E0AEEBDE
:10033000020301224FEA154EAFB2B3FBFEFC200CC4
:100340000EFB1C330CFB07F840EA034398452AD9FF
:10035000EB180CF1FF3004D2984502D9ACF1020041
:100360002B44A3EB0803A4B2B3FBFEFC0EFB1C332F
:100370000CFB07F744EA0344A74216D92C190CF1E9
:10038000FF3304D2A74202D9ACF102032C44E41B90
:1003900043EA00400F46114678E71F2188E7604690
:1003A000ABE76246BFE76046DBE76346EFE77345CE
:1003B00006D916B9002108466DE7C6E9000EF9E72F
:1003C000B3FA83F787B9734501D3824207D8841AF9
:1003D0006EEB030301209C461EB900215BE7384603
:1003E000FAE7C6E9004CF8E7C7F1200CBB4022FA57
:1003F0000CF51D4320FA0CF12EFA0CF30EFA07FE51
:1004000041EA0E014FEA154900FA07F4B3FBF9F887
:100410001FFA85FE09FB18300B0C08FB0EFA43EAA5
:1004200000439A4502FA07F240D9EB1808F1FF3071
:1004300004D29A4502D9A8F102002B44A3EB0A0387
:1004400089B2B3FBF9F809FB183308FB0EFE41EA49
:1004500003418E452CD9691808F1FF3304D28E452B
:1004600002D9A8F10203294443EA0040A0FB029804
:10047000A1EB0E014145CE46434602D306D14C4581
:1004800004D2B9EB020E68EB05030138002EA4D0AC
:10049000B4EB0E0261EB030101FA0CFC22FA07F344
:1004A0004CEA0303F940C6E9003196E74046C5E748
:1004B0004346D9E7000000002DE9F04F054687B01C
:1004C000214FBB68029304AA5B6800213846984715
:1004D000002832DBDDE9044B1C4BDFF87490A4FBF1
:1004E000031203FB0B28039115A3D3E9002308464D
:1004F0004146FFF755FE039B4FF0FF3A9A4579EBD3
:100500000803064619D3A5FB044305FB0B35294612
:100510000BA3D3E900232046FFF742FEA24579EB67
:100520000505034609D3864207D300220092029AAA
:100530000021146838463246A04707B0BDE8F08F66
:1005400000CA9A3B0000000018BE0100002D3101D6
:10055000FFC99A3B000000002DE9F843D0E90738B5
:10056000856903EB08042F34A5420F46164619D8B7
:10057000DFF86C80A3FB080117A3D3E90023FFF782
:100580000FFE0346601BA0FB080123F07F4412A36B
:10059000D3E90023FFF704FE20F07F403C60306089
:1005A000BDE8F883DFF838900BA3D3E90023A5FB5F
:1005B0000901FFF7F5FD20F07F440A480A2106A350
:1005C000D3E90023E8FB0901FFF7EAFD20F07F40B3
:1005D0003C603060BDE8F8838D49FD1A07000000DB
:1005E00000CA9A3B00166BF1002800F044812DE907
:1005F000F04FC74C94F85E30DA078DB000F13781C8
:10060000627F94F8293004EB820204EB8303166ABC
:10061000D3F82C800EB3354615F8020BC0F38010CA
:1006200008F0A6FC0368C6F802308388AB803378F4
:100630005B0606D50621284607F026F9002800F0BB
:100640004C81454615F8020BC0F3801008F090FC71
:100650000368C8F802308388AB80337813F00E0F3C
:1006600040F0918063691BB10C200DB0BDE8F08FA4
:1006700009F002F98146002800F0388109F008F9F4
:100680008246002800F02F810BF0AEFA05460028C4
:1006900000F03381D0F888004FF6FF73AB8405F18A
:1006A000100B002800F0248105F17C0205F178018F
:1006B00007F0F6F8B5F8763023F4EF6323F007037C
:1006C00043F48C7343F00103A5F8763095F8373086
:1006D00003F03F0363F07F0385F8373095F88E30E1
:1006E00023F0070385F88E3095F83C3023F00F0394
:1006F000002785F83C304FF4C023C5F88E312846DA
:10070000C5E91277C5F88870A5F88C7085F839703E
:100710006F85C5F82E702F65A5F86071A5F89471E6
:10072000A5F88A710DF0F4F985F86471C5F868913F
:100730000BF01EFD95F89C3160F3020385F89C31A7
:100740000BF01CFD95F89C3160F3C50385F89C31D6
:1007500095F8623167F34103012185F8623128463B
:100760000CF0AEF805F1E0000CF0F2FFC4E9159AC8
:10077000C4F814B0C5E902772F702D6110F058FC51
:10078000002840F0AC80237E0121C3F342030DF129
:100790002B008DF82B3007F025FA024600286CD08C
:1007A000414630460AF03CFE5A4A5B4BB4F85C8046
:1007B0000721E0FB023100251846C4E9025552A387
:1007C000D3E900232570FFF7EBFC606008F094FB91
:1007D00000F10907B8F1000F07D1357805F00F05D2
:1007E000A5F10105B5FA85F56D09207E636865F30D
:1007F000000010F00105207646D0484A09920020FA
:1008000010600225464ADFF81C8104930BAE019369
:1008100005920321CDE90200069400903B46CDF8F5
:100820001C8008962A460B9508F08AFA314609F092
:10083000A5F810BB3C4905914AF2D8330093CDE9A5
:100840000300CDE90100CDF81C80089606943B46D4
:10085000012203210B9508F057FA314609F08EF872
:1008600058B994F85E3043F0010384F85E300020FC
:100870000DB0BDE8F08F0AF06DBD6369002B3FF449
:10088000F3AE0AF03DFDEFE6244A2848049303F254
:1008900047130694029591211360A8FB000301FB06
:1008A0000831204B07931E4B05934FF6FF730992B7
:1008B0004FF0020803930BAE13A3D3E90023CDF846
:1008C0002C800896FFF76CFC3B46CDE90050424671
:1008D0002846032108F034FABFE71220C5E60AF0E3
:1008E0000FFD0320C1E6484608F0CCFF0720BCE618
:1008F00005F18000C5F88800D6E6504608F0CEFF26
:10090000484608F0BFFFF1E78D49FD1A07000000D7
:100910004C23002000CA9A3B8C49FD1A402300203A
:1009200099B40000F58F0000BDB10000002AE784F3
:1009300070B5037E8AB0C3F342030D46044601211D
:100940000DF1230016468DF8233007F04BF93146A0
:10095000024628460AF064FD1D4A1E4B0721E0FBB3
:100960000231184618A3D3E90023FFF719FC636886
:100970009842054621D21B1A00220192164A029380
:10098000164BA21AA3FB02320221920900230A4449
:1009900009AE099112490591CDE903330321069669
:1009A000D2B20093184608F021FA314608F0E6FF6B
:1009B00038B9656000200AB070BDFBD9C21A0023A7
:1009C000DBE70C200AB070BD8D49FD1A070000005E
:1009D00000CA9A3B8C49FD1A4C230020ABAAAAAA54
:1009E000F58F0000000000002DE9F04F05468BB0A8
:1009F0008B46012002219946144611F0A1FF0022E6
:100A000002218246012006F09FFF2F494FF4D47245
:100A1000284606F025FFC61C2C4B0093F6B2019524
:100A20004B4632460121002008F02EFA10F0FD0F4F
:100A300042D1274BA4FB0348204621A3D3E900233E
:100A40004146FFF7ADFB089506956B680493214B73
:100A500020F07F47A7FB0331E01A1F4B07934FF0AD
:100A600007021E4B059302FB07114FF6FE7368EB5E
:100A7000010103934FF47A720023FFF791FBCDF845
:100A800000B0CDE901704B4632460121002008F04C
:100A90003BF910F0FD0F0DD1BAF1000F02D10BB0F0
:100AA000BDE8F08F0122022110460BB0BDE8F04FE7
:100AB00006F04ABF00DEEFE700DEBAE7AFF30080E2
:100AC0008D49FD1A07000000700B0020A5BA000038
:100AD00000CA9A3B8D49FD1A8DBA00002D04010011
:100AE0002DE9F0418468A28C4FF6FF739A428CB0D6
:100AF00000F0C080054620460DF086FA2B7D012BC4
:100B000000F0E680022B00F0B88033B994F88E3004
:100B100003F01803182B00F01C8194F86471002F67
:100B200040F0AE802B8AE68D94F93720CDE90A7724
:100B3000002B00F0AC80002AC0F221810023A4F831
:100B40009031AB7CA28D03F00303551C012BADB299
:100B500000F0BA80B4F89431002B00F0BF80AB42B3
:100B600040F237815B1B9BB2062BA4F894314FF007
:100B700000028CBF00230123E2851F4694F83C202D
:100B800063F3820284F83C2029460DF127022046B7
:100B90000CF0FAFF743000F01681B4F88E312BB1EE
:100BA000AB4240F2BF805B1BA4F88E31B4F88A31AF
:100BB0002BB1AB4240F2C6805B1BA4F88A31E58DB5
:100BC00017B9AE4200F0AC800135ADB294F8D13027
:100BD00013F0010609D1DDE90AC3B3BBBCF1000F74
:100BE00000F0E9801E46194630E094F9372023F0E2
:100BF0000103002A84F8D130C0F28A8094F876008C
:100C0000C0F3C00100F0070010F094F8B4F86E20B3
:100C1000B4F86C301344E28B03F23F1313441844CE
:100C20008D4A8E4B0721E0FB0231184688A3D3E999
:100C30000023FFF7B5FA616820F07F408142DDE9CB
:100C40000AC380F0B280461A60600021A28C246939
:100C50000694CDE903570332814D0291CDE900C6D8
:100C6000D2B201210020059508F0C0F810F0FD0F68
:100C700040F0B4800CB0BDE8F0813D2784F8647189
:100C8000394620460CB0BDE8F0410BF031BB002ADC
:100C9000B8BF84F8D570AB7CA28D03F00303551C5C
:100CA000012BADB210D0B4F89031002B3FF452AF0D
:100CB000AB4240F29A805B1BA4F89031B4F89431B7
:100CC000002B7FF44CAF59E70023A4F8943155E78B
:100CD0000023A4F88E31A4F88A311EE7E38C052B9B
:100CE0008BBF40F2E2424FF4FA725A4303FB0222F6
:100CF000B4F8923142F2107101FB0323013BB3FBC4
:100D0000F2F39BB2A4F89431002B7FF428AF35E7BF
:100D100094F87700012100F0070010F00DF875E756
:100D20003D4653E708F0FAFD0146002864D0002351
:100D3000A4F88E31A38CC3801B230371006808F0D4
:100D4000BFFD33E70023A4F88A3120460CF0AEFF44
:100D500035E7218DB4F88C218B1D9A42C4BF931FB7
:100D60005B1AB4F88811CCBF9BB21346994256D097
:100D7000A4F88831A4F88A31A4F88E21CDE694F83D
:100D8000D530002B3CD0013B84F8D53004F1E0088D
:100D900040460CF01FFD002855D040460CF01AFDCF
:100DA000002842D00023E385C8E6091A6060A3BB8F
:100DB00051EA0C021ED115B9002F3FF45BAF00269B
:100DC0003146334642E79DF8271020460BF090FA53
:100DD00050E7082120460BF08BFA4BE708F0F8FDAE
:100DE00084423FF447AF00DE44E73E2120460BF04B
:100DF0007FFA3FE71E4629E70123A4F88E31D5E6A6
:100E00000AAA0BA92846FFF7A7FBDDE90A2313432B
:100E1000BCD0237884F8D530B8E7002616E7B4F8BC
:100E20008E1100297FF479AEA4E70246D4E91E01B1
:100E300006F04EFD0028B5D194F83C301B0744BFA6
:100E4000238DE3857AE6FF200BF014FAA5E700BFB7
:100E50008D49FD1A0700000000CA9A3B8C49FD1A13
:100E6000E5BA0000000000002DE9F04F87B0B0F8AF
:100E70006071BDF84C900091CDE90423B0F82431A5
:100E8000BDF840A01F44BFB20446A7EB090390F889
:100E90007600D4F81C819EB2BDF844300193C0F3B3
:100EA000C001BDF84830039600F0070002930FF030
:100EB00041FFE58C052D40F2A38015FB06F5ADB290
:100EC00040F2E24BBAF1050F40F28E80B4F86E208A
:100ED000B4F86C30134403F2D5130344764A7748D0
:100EE0000721E3FB02014FF09613E361962323846D
:100EF0006FA3D3E90023FFF753F9564620F07F4054
:100F000040F2E2430BFB05F203FB06F6531E3344AB
:100F1000B3FBF6F31FFA83FB60600BFB06F0824223
:100F20005D4653D26449801AA0FB010160A3D3E956
:100F30000023FFF735F920F07F408044B4F82421E6
:100F4000B4F86031A9EB07094D44ADB213442B440A
:100F5000A4F86031638D13441D4494F837306585DF
:100F6000DB0955D100DE00273546019B2385029B16
:100F7000A4F8923131462046A4F826A00CF030FEA9
:100F80004F4B218D3344881DB3FBF6F39AB2904248
:100F9000A4F88C2104D2C1F57F41FA310A4492B2FF
:100FA000009BA4F8882113B10023A4F89431434690
:100FB0002A4639462046FFF717FD94F8623143F080
:100FC000010384F8623107B0BDE8F08F121A3A4885
:100FD000A2FB000136A3D3E90023FFF7E1F820F0DC
:100FE0007F40A8EB0008A9E74FF096130AF101062D
:100FF000E36196232384B6B20A204FF4FA7381E7A3
:10100000039B013515FB03F5ADB24FF4FA7B59E7AD
:10101000216CA36C284F01FB0233039A01FB1233AE
:10102000A3640023C4F8DC3010F054F8054694F8AB
:10103000D400C0F3420010F04FF8054406FB05F55C
:10104000204B1E4805F5742505F23F25A3FB053509
:10105000AD0CA36C25640BFB05FB72085B44963A50
:10106000934228BF1346C4E91123049B40F2E2498E
:1010700009FB03F307212365EBFB07010CA3D3E96D
:101080000023FFF78DF8104B059AA8EB0008A3FB8F
:101090000230800A09FB00F0A0FB070104A3D3E99A
:1010A0000023FFF77DF8751B20F07F475DE700BF49
:1010B0008D49FD1A0700000000CA9A3B8C49FD1AB1
:1010C0007FC3C90183DE1B435917B7D1000000005D
:1010D0002DE9F04F0D460968B0F82EE0D1F80090E8
:1010E0000146144651F82EAB52F8086B91F802C035
:1010F000834691B0D0F81E00BBF822109BF81C70FC
:10110000A4F808E082F802C0DBF82A206260DBF86D
:101110003A20C4F82220ADF83C109BF83E100E9007
:1011200084F8261010AB13E9030004F122020C909E
:10113000ADF834101046052106F054FD94F8272030
:1011400000F03F0060F3050284F827209BF83F2061
:10115000C2F3040184F82810BBF83410E18201289E
:10116000C7F380170DD902F01F021B3202F01F02D5
:101170000B2A06D889B2063989B240F67A429142E2
:1011800019D90021C9F8081094F82C2061F3000245
:1011900084F82C200125DBF80C408BF804505046D5
:1011A000594608F081FB20682571214611B0BDE841
:1011B000F04F08F085BB2A6800215160BBF836204B
:1011C0002283B4F81680BBF832300A9340F2E24230
:1011D000304602FB08F80CF017FD9BF83F1096F81C
:1011E000D400490961F3430086F8D4000FF072FF80
:1011F0000B9096F8D400C0F342000FF06DFF0B99EE
:10120000084408FB00F0984900F5742000F23F20E4
:10121000A1FB00104FEA5801800C963920636163EE
:101220009BF8311040F2E24201FB02F26264BBF82B
:101230003820A6F89221414630460CF0D1FC8B4A6A
:101240008B49C6F898114244B2FBF8F290B2A6F866
:101250008C01218B01F1060C604504DDC1F57F4155
:10126000FA31014488B25946A6F8880111F81C2FBA
:10127000C907C2F3401200F1E680BDF83410ABF8A4
:1012800023100C988BF81E704FF48071CBF81F0060
:10129000ABF81C10E18AABF82610218BABF82810B4
:1012A000B6F89211ABF82A1096F8D4100B92C1F34D
:1012B00042018BF82C1030460AF0A2FC5946A0825D
:1012C000ABF8060050466F6808F0EEFA0B9AA18A58
:1012D000D7F800A0F9801C233B71002A40F09F80C2
:1012E0003A773946504608F0EBFA94F86700B4F8BC
:1012F0005CA0B4F85E70012100F007000FF01CFD47
:10130000574407F2D5173B1882465A4F5A480721CF
:10131000E3FB07014FF09613C4E9033350A3D3E96D
:101320000023FEF73DFF20F07F407060EB680A98D5
:10133000226B40F2E24101FB003404F2B34402218B
:10134000A41A0120A8EB0208002206F0FDFA484684
:101350000AF032FAA4EB0A0441A3D3E9002382463F
:10136000A4FB0701FEF71CFFCDF80490AB684349CE
:10137000009120F07F470AF10202363BD2B23B4493
:101380000121002007F080FD01285ED099F8183077
:10139000DB0750D430460AF033FC364CA8FB044837
:1013A0002FA3D3E90023834641462046FEF7F8FEEB
:1013B000AB68334A0792A3F1360A324B069620F007
:1013C0007F49A9FB0331E01A2F4B05934FF4F873C3
:1013D0000893736804934FF0070303FB091168EB4C
:1013E000010100244FF47A7200230394FEF7D8FE23
:1013F0000BF10305EDB2CDE90190009753462A4663
:101400000121204607F080FC10F0FD0F23D10122BE
:101410000221104611B0BDE8F04F06F095BA94F8DD
:10142000273043F0400384F82730201D0FF0ECF8FC
:101430000122208554E7002301220093184611461B
:1014400007F0ECFCA6E700DE17E708F0C1FA8145DB
:101450009CD000DE9AE700DED9E700BFAFF3008042
:101460008D49FD1A0700000083DE1B437FC3C901BD
:10147000404B4C0000CA9A3B8C49FD1AB504010050
:10148000050401008D49FD1A2D0401000000000033
:10149000F0B5C468636883B00546002B40D110F0F6
:1014A0005BFE002010F07CFE0021084610F06AFE72
:1014B00000222521082010F0D1FE374B019301A80E
:1014C00010F0B8FE354940F25B6010F075FF237AEA
:1014D000C3F3420262F30613237220460FF080FF2B
:1014E00027682E6838460FF0DFFB06446A6806F16D
:1014F0000901012011F088F811F048F920460AF09E
:1015000067F9811C3246C9B238460FF0CFFB054659
:1015100098B920460FF0A4FB68B9002003B0F0BDD5
:1015200093F82C309B07BAD01D48214610F0E8FDF7
:1015300010F0E0FEF1E700DEEFE71A4A1A491B4817
:1015400040F2114316F025F8194B0721A5FB0303C0
:1015500001FB05310EA3D3E90023FEF721FE154957
:101560000246154816F015F8002585F31188BFF3DB
:101570006F8F0323184602DF1048214610F0C0FD8C
:1015800010F0B8FE6FF08B00C8E700BFAFF300802B
:1015900000CA9A3B00000000D6BE898E5555550002
:1015A000E90D01000CC6010058C60100D4C50100B8
:1015B0008D49FD1AA0C701005CC60100E5100100BD
:1015C0002DE9F043C468A28A4FF6FF739A4283B0B4
:1015D00000F0FD80064610F029F93389628B208CDB
:1015E00094F82710A3831A4492B2104480B2431C8B
:1015F00023840023638301F03F034906E28300F163
:10160000A48094F82810009304F1290004F1220327
:101610000EF0BCFF0546D4E90C31A26BA08BA3638E
:1016200003FB0022E36B8A4294BF9B185B188B423A
:1016300028BF0B46626CE363236C94F867101A446E
:1016400094F82C3061F306130021C4E9101294F8C9
:101650007E2084F82C3012F0040200F0898010F013
:101660007BFD002010F09CFD201D10F0E3FD238980
:10167000A17A40F25B6043EA014110F09DFE2846EA
:101680000FF024FB2146584810F03AFDA08910F0D5
:10169000AFFF94F8662094F86700C2F3C0030021FE
:1016A00002F0070200F0070010F0ECFE204610F0F8
:1016B00057F9D4F80080376840460FF0F5FA074430
:1016C000726807F10901002010F09EFF814611F0B9
:1016D00031F8002011F048F8E36B94F8670003F14B
:1016E0002F02636C012100F0070003EB420510F0AC
:1016F000F3FD4D44054494F8670000F0070002280C
:1017000034D004280CBF4FF4BC73282301211D449E
:1017100010F0E4FD284410F0FFFFA18A03313A469F
:10172000C9B240460FF0C2FA0546A8B1B37A13F029
:1017300002062BD000252D48214610F0E1FC10F0C8
:10174000D9FD284603B0BDE8F083218D04F12202C3
:101750000EF05EFF05465EE720460FF081FA002896
:101760003CD10025284603B0BDE8F0831823CDE71F
:10177000D4E91A0106F0ACF800287FF470AF94F8B1
:101780007E3043F0040384F87E3068E7184A194934
:1017900019484FF4AC7315F0FCFE18480721A5FB5F
:1017A000000301FB05310EA3D3E90023FEF7F8FC8B
:1017B00013490246134815F0ECFE86F31188BFF377
:1017C0006F8F0323184602DF6FF08B05B3E70E48D7
:1017D000214610F095FC10F08DFDC2E700DEC0E759
:1017E00000CA9A3B00000000851B0100C90D0100E2
:1017F00088C6010058C60100D4C501008D49FD1AF4
:10180000ACC701005CC60100E90D0100000000004A
:10181000032973B50546144661D8002A40D0072A2B
:101820005DD15A681C683848D1171346C4FB003193
:10183000012B71F1000225DB00F56E1000F65D70E2
:1018400018182FA3D3E9002341F10001FEF758FC3B
:1018500080B202282A691DD004281DD008281DD076
:10186000102832D10323294951F8231011615268FD
:1018700014691B01302223212846A44602B0BDE88A
:10188000704060472248181861F100011CA3D3E999
:101890000023DBE70023E6E70123E4E70223E2E796
:1018A0001A8806691B4B33F8021B8A420AD17368F7
:1018B0000DF107029B68202128469847002807DA87
:1018C00002B070BD01340B2CEDD16FF01500F7E7BD
:1018D0009DF807201107234604D4082C05D16FF08A
:1018E0008500EDE7092CA8BF092302F00F0242EAA8
:1018F00003127368D2B2DB68202128469847DFE7DD
:101900003AA395000000000040420F00100500209F
:10191000632EB5FFF0C9010038B500F033FA00F0CE
:10192000DDFC0E4C0E4D00F0ADFA002802DD206803
:10193000EE280AD92146284600F0B8FF00F00AFD3B
:101940000021212019F0D7FFEDE7C0F1EF01284475
:1019500000F060FA236803442360E4E7C80F002026
:101960008E340020F0B403460A461979DB880068FB
:1019700013430A4A0669876834689A4308BF83F4A8
:10198000402301258D4023F48012DB074CBF2C43FC
:10199000AC4334603B68F0BC184700BF0100100046
:1019A000036803F01F025B09026004D0012B0348A7
:1019B00018BF002070474FF0A04070470003005050
:1019C00007491420034601380A5C12F0DF0F01D0EA
:1019D000184601E00028F5D1012838BF01207047E2
:1019E000720500204B1E59425941014B1970704736
:1019F0008435002037B50F4B0F4A012808BF134626
:101A00000E4A1078A0B118681C790569836801A98D
:101A10005B68984740B92B68019858400123A34060
:101A20001840003818BF01200028D4BF0020012032
:101A300003B030BDD0C10100D8C101008135002004
:101A400030B51C4B1B688DB0002B30D140F2011318
:101A5000ADF80C3006238DF8083002AB049309234F
:101A60008DF81430FFF7ACFF134D144B8DF81500B3
:101A700006930FCD07AC0FC42B682360012300939E
:101A800003A90F4B022207A803F094FA014670B194
:101A900010F1780F0BD00B4815F06EFD0A4842F29A
:101AA000676200230DB0BDE8304014F001BA0DB0FC
:101AB00030BD00BFD00F002090C101007205002092
:101AC000F0C1010006CA01000000002010B5044664
:101AD00019B1BDE81040FFF7B3BF044819F013FE79
:101AE000204616F003FE024B186010BD00000020D7
:101AF000D00F002008B5054B1B682BB903F07AFB0B
:101B0000BDE80840FFF79CBF08BD00BFD00F002014
:101B100038B50546FFF754FF0449044602462846F7
:101B200019F0FFFF00232B5538BD00BF72050020C0
:101B300007B5019001A8FFF733FF019B00EB83007D
:101B4000054BD0F80027134043F00303C0F80037DB
:101B500003B05DF804FB00BFF0F8FCFF014813F090
:101B60008DBE00BF70060020F8B515461E464FF02A
:101B7000FF324FF0FF33124813F00EFE114B1248A4
:101B800019880488DFF844C077186A1EBFB20025A0
:101B9000B94202D0B1F5007F06D30DB1048019809F
:101BA000FFF7DCFF3046F8BD12F8015F0CF8045077
:101BB00001310134C4F3080489B20125E8E700BF0C
:101BC00070060020D4300020D6300020853500205B
:101BD000F7B5154E346807460D461CB911F0B4FC34
:101BE000044630604FF4004640F2E7300021E5FB48
:101BF00006014FF47A720023FEF7D2FA06460D462C
:101C000024B903B0BDE8F04015F0DAB9074B012163
:101C1000FF221A70204600913B464FF0FF3211F030
:101C200005FC30462946ECE7CC0F00208335002028
:101C3000F0B50024304D89B026462B68DBB186B95B
:101C40002E484FF4E171FFF7C3FF2D484FF4617147
:101C5000FFF7BEFF2B4B186818B118F047F82A4B56
:101C60001E704FF40050002115F0AAF90124002342
:101C700009E0234607E04CB14FF40050002115F075
:101C80009FF90123002426461C46D6E702AF3846BA
:101C9000FFF73EFF19484FF42F71FFF799FF2B68AC
:101CA000002BE6D1174E306818B911F04DFC3060AA
:101CB00048B1154BFF221A700221144B00974FF4C4
:101CC0002F7211F0F3FB0027FFF77AFE0430B842C1
:101CD0002C6800D94CB130680028D2D0002CD0D16B
:101CE00018F004F8084B1C70CBE745F69A10002159
:101CF00015F066F90137E7E7D00F0020CCD10100DD
:101D0000C7D10100CC0F0020833500202ACA010072
:101D100037B50B46044605480021826800911568D6
:101D200021464FF48062A84703B030BDFCBD0100DE
:101D300010B50E4C206818B103F0D0FB00232360CF
:101D40000B4B00241C704FF0FF324FF0FF3309485B
:101D500013F022FD084B1C80084B1C80084B1C8094
:101D6000FFF7FCFEBDE81040FFF76ABED00F002071
:101D70008435002070060020D8300020D6300020A6
:101D8000D43000207FB50C4803F0EEFE002002F0B6
:101D900073FD014628B1094807B05DF804EB15F062
:101DA000EBBB6846FFF7B4FE684602F095F907B052
:101DB0005DF804EBFFF744BEB00100202DCA01001E
:101DC00070B5114B1E6886B005460C4616B900204A
:101DD00006B070BD0D4B1B78002BF8D00028F6D054
:101DE0000029F4D000211822684619F0C1FE084BE2
:101DF000ADF80C4069463046CDE9013505F08AFB67
:101E00000028E4D12046E3E7D00F002084350020ED
:101E100020C20100F8B50D46044640B3A1B14FF011
:101E2000FF324FF0FF33134813F0B6FC124813494A
:101E300002880B88DFF848C00027013C3E462BB9DA
:101E400097B9FFF78BFE35462846F8BD01361CF8DA
:101E5000027004F8017F0132013BB542C2F308026F
:101E60009BB24FF00107EAD102800B80E9E70546FB
:101E7000EAE700BF70060020D8300020D4300020F0
:101E80008535002010B54FF0FF324FF0FF33044886
:101E900013F082FC034B1C88FFF760FE204610BD48
:101EA00070060020D430002008B50C4819F0D6F98F
:101EB00090B10A4819F0D2F970B109484FF4B01145
:101EC000FFF750FD40B907484FF4B011FFF74AFD46
:101ED00010B9054B01221A7008BD00BF70BD01008A
:101EE000E8C10100E0C1010082350020104B1B78E1
:101EF0000A46DBB1012817D0022817D10D4B1979FA
:101F00000D48012303FA01F103691B68003A03EA53
:101F1000010318BF0122003B18BF01239A428368C6
:101F200014BFDB681B691847044BE8E7704700BF24
:101F300082350020E0C1010070BD0100E8C1010050
:101F400008B511F001FB014B186008BDCC0F002053
:101F500037B50F4B0446186820B12CB917F0C6FEF0
:101F60000C4B1C7003B030BD0A2CFBD8094D2B78EC
:101F7000A342F7D0084A631E012103EB83031344F5
:101F800000914FF0FF3211F051FA2C70EAE700BFD8
:101F9000CC0F00208335002095D1010008B5044BFB
:101FA000186820B117F0A2FE024B00221A7008BD7B
:101FB000CC0F00208335002038B5431E012B04468A
:101FC0001DD80F4D2B78ABB90E4819F047F988B1E1
:101FD0000C4819F043F968B10B484FF48031FFF712
:101FE000C1FC38B909484FF48031FFF7BBFC08B990
:101FF00001232B702046FFF7FDFC054B185538BD1B
:102000008135002070BD0100D8C10100D0C10100A0
:102010007E350020431E012B10B504460AD8FFF779
:10202000E9FC0549024618B10B5DB3FA83F040099B
:102030000A5510BD0020FCE77E350020024B00222F
:102040005A709A70704700BF7E350020012837B55E
:1020500014462AD880F00103154AD55C154A494236
:1020600052F82300144A49B20029D35C0ADD63B157
:10207000019001A8FFF794FC019A01239340C0F856
:10208000083504E00ED0002BF2D014F08CFFC4EB26
:102090008421FF23B1FBF3F1284603B0BDE83040B3
:1020A000FFF736BE14F07FFFF6E703B030BD00BF88
:1020B00093D10100C8C1010093D1010008B50648C1
:1020C00019F0CCF838B1054B054801221A70BDE86B
:1020D0000840FEF7F1B908BD18BE01007D350020AB
:1020E00060E31600064B1B784BB1002803DC04D1DB
:1020F0000448FEF7E1B90448FBE70448F9E77047F4
:102100007D35002060E3160080841E0040420F00F1
:10211000034B1B7813B10020FFF7E4BF704700BFEB
:102120007D35002008B50B4B186820B117F0DEFD97
:10213000094B00221A7000210120FFF7D7FE002171
:102140000220FFF7D3FE14F063FFBDE80840FFF75D
:10215000DFBF00BFCC0F0020833500200048704750
:1021600070C20100F0B5104A1088E0B1002313805E
:102170000E4A2824164640F2022504FB03F1715A48
:10218000A9420BD1117A4F1E082F07D820FA01F16E
:10219000C90741BF01211170002151700133052B86
:1021A00002F12802E9D1F0BDDA300020D40F00207E
:1021B00001480321FFF704BED6D1010001480421E4
:1021C000FFF7FEBDD1D101000D4B10B5002418461C
:1021D0002822002119F0CCFC847301340346052C1D
:1021E00003F12803F3D1074A00231380064A137032
:1021F000064A1370FFF722FFBDE81040FFF792BFB9
:10220000D40F0020DA300020AB37002085370020C3
:102210002DE9F04101460546234814F0D4FF044659
:10222000FFF7D2FF214B1D700CB1237833B9204842
:1022300000222946BDE8F04114F0FBBE00211D4BF1
:10224000221D04F1090704F10E0001264FF0020CD3
:102250008E4692F80580B8F1010F16D9117800EB7F
:102260000108415C102901D0A12903D1A3F80CC0B9
:102270001E7009E0112913D198F8018083F80880B5
:10228000022199811970597001210132BA4203F17A
:102290002803DED1084B6288197008482946C9E72F
:1022A000A3F80CE0E4E700BFDC300020AC370020EE
:1022B00057CA0100D40F0020AB3700205FCA0100CD
:1022C000431E082B06D8044A012303FA00F01388A2
:1022D00018431080704700BFDA30002008B5164858
:1022E00014F034FF0021C822144819F041FC134AAD
:1022F0001348012382F83630022382F85E3003232C
:1023000082F88630042382F8AE300E4A0023137020
:102310000D4A13700D4A13700D4A138014F07EFF9E
:10232000FFF7C2FDFFF70CFE14F05BFEFFF7C6FEE1
:10233000BDE80840FFF7F6BEDC300020D40F0020D7
:1023400086370020AC370020AB37002085370020CF
:10235000DA3000202DE9F04FB44B1B7885B0002B0C
:1023600000F0618114F02EFEB14C8046FFF7FAFEBA
:10237000002322462546282001261F4600FB03F1A4
:10238000695AB1F5817F06D15168A8EB0101002996
:10239000A4BF167057700133052B02F12802EDD14E
:1023A000A34F00264FF0280940F2023A09FB06F33A
:1023B000EB5A534513D1387A431E012B0FD8FFF740
:1023C00029FE60B101233B7000237B700221B523FD
:1023D00003A88DF80C308DF80D60FFF7F1FC013685
:1023E000052E07F12807E1D1914E00274FF028096B
:1023F00040F2026A09FB07F3EB5A53450DD17368AB
:10240000A8EB0303002B08DB042333700023327A8C
:1024100088487370394614F00CFE0137052F06F119
:102420002806E7D1DFF81092844899F8001014F0DC
:10243000CAFE064608B1037823B905B0BDE8F04FDF
:10244000FFF7C2BE7E487A4F14F0E8FE7C4800F0E9
:1024500077FA4FF0000A40F2024B282303FB0AF3FD
:10246000EB5A5B450AD17B68A8EB0303002B4DDBDD
:1024700014F0CEFD01233B7000237B700AF1010AAA
:10248000BAF1050F07F12807E7D1694F4FF0000AAD
:102490004FF0280B0BFB0AF340F20252EB5A934227
:1024A00018D17B6897F82210A8EB0303002B38DBC8
:1024B000042902D10020FFF715FE0BFB0A5343F25B
:1024C00003225B8C934201D1FFF768FD01233B702F
:1024D00000237B700AF1010ABAF1050F07F1280702
:1024E000D8D1002706F1040AB8460E362378012B0E
:1024F00035D1A2899AF80530511C99421BDB032380
:1025000050482370394614F094FD28E097F82130A4
:10251000009397F82030BA7B4948002114F082FEDE
:10252000ACE797F82430009397F82330BA7B4448FF
:1025300014F078FECEE79AF800303344204613F8C2
:1025400002B0134459465A7800F000FA052806D81C
:10255000DFE800F043034146828DE38BA38101371E
:10256000052F04F128040AF1010ABFD1344C0020E0
:1025700000F0E6F9204600F0E5FB94F82430002B4B
:102580007BD1314E94F8233032789A4240F08C80DF
:102590000023282101FB03F2AA5C013A012A42D957
:1025A0000133052BF6D1B8F1000F0AD1B4238DF811
:1025B0000C30022199F800308DF80D3003A8FFF798
:1025C000FFFB1A4B00241C70FFF7ACFD99F80010BC
:1025D0001E48224610E002232370A3890233BDE780
:1025E000002000F0ADF9282303FB0753DC7B032C0C
:1025F00007D917480022214605B0BDE8F04F14F076
:1026000018BDB323022103A88DF80C308DF80D40BE
:10261000FFF7D6FB0F4899F80010224614F009FD89
:102620002046FFF7F5FD05B0BDE8F08FAB37002081
:10263000D40F002064CA0100AC370020DC30002039
:10264000863700206DCA01008537002095CA010039
:1026500073CA01007ACA01000323A2891D482370AE
:10266000BBF1510F08BF48F0010839464BE704237E
:10267000194823705A46394645E7002628274FF067
:10268000030A94F82430F340DB0709D507FB06F36F
:1026900094F82320114805F803A0314614F0C9FC32
:1026A0000136052EEDD16CE783B1B72194F82420D3
:1026B0008DF80C108DF80D30042199F800308DF84C
:1026C0000E2003A88DF80F30FFF77AFB94F8233023
:1026D00033705DE780CA010087CA01008DCA01001E
:1026E000F0B50C46BDB0054600B149B900225D48C1
:1026F000114614F09EFC3DB0BDE8F040FFF75EBD12
:102700000178A1F1A003052B00F2A980DFE803F016
:102710006A031D30A755022C03D0534800222146DE
:10272000E7E74478032C03D9504800222146E0E72C
:102730002046FFF76DFDFFF73BFD4D480022214687
:102740003DB0BDE8F04014F074BC4478631E082B23
:1027500003D9484800222146CBE72046FFF7B0FDC9
:10276000FFF700FDFFF724FD434800222146E7E77D
:10277000022C1AD14378D3B9404A2821144640F29A
:10278000026001251E4601FB03F70133E75B874228
:1027900004BF15705670052B02F12802F3D1FFF724
:1027A00007FD002236481146CAE7012C03D06A789B
:1027B000344821469DE7FF22FAE7022C0AD14678E9
:1027C00056B9FFF701FDFFF7F3FC2F4B2F4819789F
:1027D0003246B5E7012C03D06A782D48214688E7B8
:1027E000FF22FAE72B4B1B780BB1FFF7EDFC002320
:1027F00004A88DF80F3014F0B0FCFFF7AFFC83880D
:102800000093064604AB0DF10F022146284614F052
:1028100045FC60B9012C18BF69781F4808BFFF212B
:10282000224614F006FCFFF7C9FC3DB0F0BD9DF850
:102830000F101A48334604AA14F095FC28B9BDF8C5
:1028400012209DF80F101648EBE7FFF7B1FCBDF81A
:1028500012209DF80F10134814F0EBFBE5E7124827
:10286000224646E79ACA0100A0CA0100A7CA010091
:10287000ADCA0100B3CA0100BBCA0100D40F0020D9
:10288000CECA0100C2CA0100AC370020DFCA010075
:10289000D6CA0100AB370020E7CA0100DC300020B7
:1028A000EECA0100F7CA0100FDCA01002DE9F34795
:1028B0000D460646A8B3A1B30024A1462F68A7423F
:1028C00025D9335D0A2B06EB040A01D00D2B01D16B
:1028D0000134F3E73F1B01AA39465046CDF8049076
:1028E00014F0A8FB3A4680460146134814F0A1FBB9
:1028F000B8F1000F0BD0B8F1010F15D19AF8001004
:102900000E483A4614F095FBFFF758FC2C6844B18A
:102910002A68171B04D03A463119304619F00FF9CE
:102920002F6002B0BDE8F08701995046FFF7D8FE4E
:10293000019B1C44C2E700BF08CB01000ECB010085
:10294000014B1860704700BF9C100020F0B5622951
:1029500085B005460E4614465AD80F295BD9A1F119
:102960001003522B57D8DFE813F01C011C011E0185
:1029700056005600560056005600560056005600A7
:10298000560056005600560056005C005C005C0085
:102990005C007E007E005600560056005600560031
:1029A000560056005600560056009E00B300DF0049
:1029B000EF00C300C300C300C3005600560056001A
:1029C000560056005600560056000001170100013F
:1029D0005600560056005600560056005600560047
:1029E000560056005600560056002F01AF015B01FD
:1029F0007C01990148014401A601A601A601A60196
:102A0000A60156005600560056006C01A901B601F9
:102A1000A12900F0C680B1482246314614F009FBD6
:102A200022E00CB3AE4B186828B100940B46AA7B89
:102A3000002114F0F7FB04236B7014F0C3FA95F82F
:102A4000252085F82060511E40F6C413082904FB98
:102A500003F388BF0522B3FBF2F303446B6085F8F0
:102A60002140022038E10CB9052035E19C4B186863
:102A700028B100940B46AA7B042114F0D3FB052354
:102A80006B7014F09FFA4FF47A7363430C22B3FB1C
:102A9000F2F303446B60042385F8223085F8236049
:102AA00085F82440DDE7631E082BDDD88C4B1868C1
:102AB00028B10094AA7B3023012114F0B3FB032337
:102AC0000093302223460121284614F085FBC8E7F5
:102AD000002CC9D1824B186828B10094AA7B3123FD
:102AE000012114F09FFB0121009100233122EBE72B
:102AF000002CB9D17A4B1868A1F13407FFB240B16C
:102B0000012F00940B46AA7B8CBF0621052114F0EF
:102B100089FB012F4FF00103009332464FF0000371
:102B20008CBF06210521CFE7002C9DD06C4B186887
:102B300028B10094AA7B3223032114F073FB0321F4
:102B4000009123463222BFE7002C8DD1644B1868D8
:102B500028B10094AA7B3323032114F063FB0123E3
:102B60000093332200230321AEE7631E082B3FF6B8
:102B70007BAFB123022103A88DF80C308DF80D40F6
:102B8000FFF71EF906236B702C7214F01BFA00F588
:102B9000EA403030686064E752482246412114F030
:102BA00048FA002098E0631E082B3FF65DAF2046F0
:102BB000FFF786FBB023022103A88DF80C308DF8B7
:102BC0000D40FFF7FDF8ECE70123437014F0FAF92C
:102BD00095F82530012C38BF012440F6C412544327
:102BE0005A1E082A88BF0523B4FBF3F404446C6022
:102BF00037E702236B702C7233E70A2C0ED008D80B
:102C0000631E012B3FF630AF2046FFF7D5F90323B3
:102C1000F0E70B2C7FF428AF0224F5E70124F3E75B
:102C2000002C3FF421AF037C032B3FF61DAF8289BC
:102C300000EB430102324A82C218947601332B74AE
:102C4000AFE7002C7FF410AF037C032B3FF60CAFF3
:102C5000828900EB430102324A82C218FF21917639
:102C6000ECE7002C7FF400AF037C002B3FF4FCAEBC
:102C7000013BDAB250FA83F3997EFF2905D105EBC7
:102C80004202538AEB83012026E00139C9B29976CA
:102C90000029F4D1838902740233F3E7631E082B01
:102CA0003FF6E2AE80F8254040F6C4120E48B2FB73
:102CB000F4F2214673E70D48224670E7032C3FF6F5
:102CC000D3AEC473032007E0B623022103A8ADF8F6
:102CD0000C30FFF775F8042005B0F0BD29CB0100DA
:102CE0009C10002016CB010023CB01001ECB01005D
:102CF0003038072822D8DFE800F004142121161A02
:102D00001C1F09290BD8012938BF01210C4801EBF0
:102D10004103C118C05C8A78497814F060B9012178
:102D2000F4E714F05DB901210120FFF7DFB80021BD
:102D3000FAE701210220F8E70021FBE7704700BF16
:102D4000DAD101002DE9F8430025044680F823502C
:102D500080F82450064601273378F3B17278EBB23D
:102D60009AB394F8232007FA05F10A4384F8232044
:102D7000B17894F824200A4384F82420062B07D83D
:102D8000DFE803F004120615181B200014F040F9C8
:102D9000B2783E48294614F04CF90135072D06F16A
:102DA0000506D9D1BDE8F88314F01AF9F0E7FFF76A
:102DB000F5F8EDE7FFF7ACF9EAE700210120FFF7AE
:102DC00095F8E5E700210220F9E7013B052B04D83F
:102DD000DFE803F02D3C3240545794F80380A8F10B
:102DE0002003032B18D8DFE803F0020B1B1EC822B8
:102DF00001210020FFF72AF90121C822084609E035
:102E0000C8224FF0FF310020FFF720F9C8224FF011
:102E1000FF310120FFF71AF91D48C8224146BAE7E1
:102E2000C8220121EFE7C8224FF0FF31E1E7617AC4
:102E3000207AFFF75DFFB0E7A37C322B03D1E07C63
:102E4000FFF786F8A9E7FFF7A9F8A6E7A27B617B61
:102E50001048A0E794F81780B8F1240F14BF4FF082
:102E6000FF394FF001094846FFF73CF9B9F1010F6E
:102E7000094814BF0222012241468CE7617F207F6E
:102E8000D7E794F8221094F82100D2E731CB010063
:102E90003ACB01003ECB010047CB0100014B1B6840
:102EA000184700BFF0010020014B1860704700BFB9
:102EB000F001002030B5044685B00D4610220021F7
:102EC000684618F055FE02238DF802302A46044B5E
:102ED00001932146684613F0FBFD05B030BD00BFED
:102EE0009D2E000080B505460E461746984613F005
:102EF00093FA034600F0D2FCDFF81890044649F834
:102F00000030424630463946A84754F8090000F0E0
:102F100067FC00BF080000002DE9F047858B0446E0
:102F2000280717460CD501290CBF45F0100545F0C0
:102F30002005A58387F31188BFF36F8FBDE8F08765
:102F4000022905F0070540F09480204614F049FB63
:102F5000052864D801A353F820F000BF352F0000E6
:102F6000733000001F300000E12F0000FB2F000035
:102F70000D30000001F007035A1F012A1FD800225C
:102F800021F00701062BD4F8008089B2C4E90022A1
:102F900009D1434603E0E28B0132E2831B68002B38
:102FA000F9D141F00201A183204614F01AFB4FF041
:102FB000000900286DD041F02001A18369E0042BB5
:102FC0000AD121F0070189B2A183204614F009FB40
:102FD00010B141F02001A1834FF00008C14658E034
:102FE0002369D3F80090A38B23F0070343F0060373
:102FF000A3834FF0000846464BE02369D3F80490C2
:10300000A38B23F0070343F00403F1E72369D3F80C
:103010000890A38B23F0070343F00503E8E74FF084
:103020000008C146E7E7012243F00803A38387F3C2
:103030001188BFF36F8F002A3BD1B8F1000F4AD13E
:10304000B9F1000F02D02D492046C847EFF3118790
:10305000202383F31288BFF36F8FA38B23F0080321
:103060009BB2A383D9063FD523F01002A28303F0BD
:103070000705A669A18B002EBFF67CAF0023D4F80C
:10308000008021F00701C4E9003341F00101A18370
:103090009946A38B03F0070AAA4502D0A268002A2A
:1030A000C1D1B8F1000F02D1B9F1000FDAD000227E
:1030B000BAE7A1680029C0D00D680029BDD04F68CB
:1030C000334652462046B8471DB12B6829461D4657
:1030D000F3E72B46FAE74146334652462046D8F8F6
:1030E000008014F0AAFAA8E79A067FF523AF23F030
:1030F0002002A28303F0070527E700BF67760100DF
:1031000010B5DFF824C086B04FF42814CDE904C40C
:103110000824029404AC0194BDF82040009416F0F9
:10312000D3F906B010BD00BF1800280008B5034849
:10313000034A0021121A14F007FD08BDC007002041
:10314000DC3700200748084A084908B5121A14F06D
:10315000FDFC0748074A0849BDE80840121A14F068
:10316000F5BC00BF00000020C007002040D40100D3
:10317000000000200000002040D4010038B50546C2
:103180000C4699B1D1E901230F48096814F0F4F90C
:10319000D4E90423E1680D4814F0EEF9E1690C4824
:1031A00014F0EAF9A1690B4814F0E6F9012D05D1F4
:1031B000EFF305810848103914F0DEF9214628465E
:1031C000BDE8384012F060B94BCB01007BCB010069
:1031D000ABCB0100BBCB0100EACB010030BFFFF756
:1031E000FDBF00BF2DE9F0410B4EDFF8308006EB4C
:1031F0000807CC1B054632460949204618F091FCC9
:10320000A01942460021083C18F0B2FC6C6607F198
:103210000800BDE8F08100BF0000000004000000CD
:1032200090C1010010B51D4C1D4814F0A5F9A36A0A
:10323000990130D51B4814F09FF91E20A36ADA01CA
:1032400003D5194814F098F91F20144CA36A1B03E6
:1032500003D5164814F090F92120A36A590303D529
:10326000134814F089F922200C4CA36A9A0303D561
:10327000104814F081F92320A36ADB0303D50E481C
:1032800014F07AF92420054A936A6FEA03436FEA3F
:103290001343936210BD1D20D0E700BF00ED00E096
:1032A000FECB010017CC01002BCC010046CC010065
:1032B00065CC01008BCC0100A6CC010070B5244C7C
:1032C000064624480D4614F057F9A36AD90435D5AB
:1032D000214814F051F91720A36A1A0503D51F4895
:1032E00014F04AF918201A4CA36A9B050FD51C4804
:1032F00014F042F9A16BA36A180407D5194814F019
:103300003BF91EB1A36A23F40043A3621920104CB9
:10331000A36A590503D5144814F02EF91A20A36A9C
:10332000DA050DD5114814F027F91B20084A936AD5
:1033300043F47F43936200232B7070BD1620CBE7CC
:10334000A36A9B04F2D50A4814F016F91C20EDE795
:1033500000ED00E0D2CC0100E9CC0100FBCC010083
:103360000FCD010029CD01003FCD01005BCD010053
:1033700074CD010070B5264C064626480D4614F063
:10338000FBF8A36AD80640D5234814F0F5F81120BD
:10339000A36A190703D5214814F0EEF812201C4C3B
:1033A000A36A9A070FD51E4814F0E6F8616BA36A6A
:1033B0001B0607D51B4814F0DFF81EB1A36A23F0E3
:1033C0008003A3621320124CA36ADE0703D51648BC
:1033D00014F0D2F81420A36A9C0603D5134814F005
:1033E000CBF815200A4B9A6AD10658BF9A6A9A6A96
:1033F000920642BF5A6A22F400525A629A6A42F016
:10340000FF029A6200232B7070BD1020C0E700BF3E
:1034100000ED00E0A4CD0100BBCD0100FBCC01001C
:10342000EFCD010008CE01001FCE010074CD0100D8
:103430002DE9F0415D4B5F688AB00446C7F308068A
:10344000002585F31188BFF36F8F02F07F43B3F13E
:103450007F4F06D102F00C03082B13D1544814F00F
:103460008BF800252C464FF00008F31E8DF80780DE
:10347000092B00F28B80DFE803F00A7F837B8989C8
:103480008989898710074CBF0C460125EBE749481D
:10349000464E14F071F88DF80780F36A9A0704D548
:1034A000454814F069F800232AE0F36A002B01DA9A
:1034B0004248F6E7F36A5B00F5D5414814F05CF842
:1034C0007369A26943F480737361BFF34F8FBFF3D5
:1034D0006F8F32F8023C726922F480727261BFF31E
:1034E0004F8FBFF36F8F03F47F42B2F55F4F27D149
:1034F000DBB2022B24D12168324814F03DF8236856
:103500009DF80720CAB902AE04F12007206861685F
:10351000324603C20834BC421646F7D1099A002D40
:1035200040D0C2F3080121B96FEA52226FEA422269
:10353000099202A91846FFF721FE0AB0BDE8F08102
:103540001A4B9A6AD2B22AB10DF107010120FFF796
:1035500011FF0FE09A6A12F47F4F05D00DF10701B9
:103560000120FFF7ABFE05E09B6AB3F5803F9AD3DD
:10357000FFF758FE0346C3E70DF107010020E6E719
:103580000DF107010020ECE70F488AE70F4B1049C7
:10359000104817F4F87FA6F1100208BF194613F07F
:1035A000EBFF80E76FF30802C2E700BF00ED00E029
:1035B0006DCE010099CE0100B1CE0100D3CE010045
:1035C000E2CE010002CF01001FCF01003FCE01007B
:1035D00054CE010044CF0100044B5A6942F010025E
:1035E0005A615A6922F008025A61704700ED00E002
:1035F000EFF30880EFF3098101B57246FFF718FF7A
:1036000001BD00BF0B4880F3088811F0AFF82020FF
:1036100080F3118808484FF40061401880F309884E
:10362000EFF314800221084380F31488BFF36F8FF7
:1036300000F06CF8B8570020784A00201EF0040F04
:103640000CBFEFF30880EFF30980816911F8021CC9
:103650000229FFD001B5724614F07AFA01BD00BF0D
:1036600040B2002807DB044A4109012300F01F0093
:10367000834042F82130704700E100E040B200286A
:103680000CDB4309064900F01F0020330122824071
:1036900041F82320BFF34F8FBFF36F8F704700BFF8
:1036A00000E100E0054B420900F01F0053F8222022
:1036B000012303FA00F01040704700BF00E100E072
:1036C00040B20028A8BF00F1604001F10101B8BF7D
:1036D000064B4FEA4111ACBF00F5614000F00F000E
:1036E000C9B2B4BF195480F80013704714ED00E05C
:1036F000044B054A23F07F039360BFF34F8FBFF362
:103700006F8F70470000000000ED00E008B5FFF784
:10371000EFFF0B4AD2F8883023F47003C2F88830E8
:10372000EFF3148323F0040383F31488BFF36F8F44
:10373000FFF7FCFCFFF706FD00F092F811F076FFB2
:1037400000ED00E042F8203C009B42F81C3C0A4996
:10375000019B42F8183C029B42F8143C21F0010105
:103760004FF0807342F8043C42F8081C0023203AD2
:1037700002658366704700BFE52E000000B50B4B65
:1037800098600B4B1546426E1A600E462C4686F327
:1037900009880020034B984720460021002200237F
:1037A000014C2047757B0100E52E0000A030002071
:1037B000A0100020014B10221A61704700ED00E0BC
:1037C000054B5A699B689A421FBF044A536843F0ED
:1037D00080535360704700BFA030002000ED00E030
:1037E000084B9B6883420BD1EFF3058343B1064B33
:1037F0005A6842F080525A605A6A22F400425A6271
:1038000012F010BEA030002000ED00E011498A68DF
:103810004FF030001044EFF3098C80E8F01F2020B7
:1038200080F31288BFF36F8F0B4F4FF000664A6929
:103830008A603E60506E094C2060906E0023936653
:1038400080F3118802F1300090E8F01F8CF30988B2
:1038500070470000A030002004ED00E0A010002020
:10386000044800232021C2180133302B82F80013B2
:10387000F9D1704700E100E008B5EFF30583064A8F
:10388000103B02EBC30152F8330049688847BDE89A
:103890000840FFF795BF00BFA4BE010001480068C3
:1038A00070470000A010002008B5024B1B68984725
:1038B000002008BDA4100020034B044A1860937830
:1038C00043F0020393707047A41000200C02002004
:1038D00008B50649064821F00701C1F1005202F57A
:1038E000003213F006FE002008BD00BF97730020D1
:1038F000A810002070B54169867A0B4D044659B175
:10390000437ADB0706D4282303FB06531B6A1B6894
:103910009B689847002363612820214600FB0650DE
:10392000BDE8704017F006BEA8060020024B282212
:1039300002FB0030704700BFA8060020827A064BC9
:10394000282101FB02335A6A9B7E1B33801A23F025
:103950000303B0FBF3F07047A806002038B5074B0F
:10396000827A282404FB02331B6AD3E901240C6009
:103970001568FFF7E3FF04FB005038BDA8060020E0
:103980002DE9F04385B005466846039190461C46F4
:1039900018F05EF8DDE90067EFF31189202383F367
:1039A0001288BFF36F8F2B8B002B41D0EA8A9A428B
:1039B00025D900220023284611F0B0FF0446F0B1BB
:1039C00089F31188BFF36F8F039B002B41D03246E0
:1039D0003B46684618F061F8A27A264B282101FB85
:1039E000023320461B6A1B6803A91D68DDE900231A
:1039F000A847606170BB2046FFF77CFF24E0298B5D
:103A00004B1E2B8389F31188BFF36F8FAB7EEA8A3D
:103A10006C6A1B3323F00303521A02FB0344154B59
:103A2000154AEB1ADB105343A372AB7EE372CBE76C
:103A300089F31188BFF36F8F23464246284611F061
:103A40006DFF04460028BFD10024204605B0BDE824
:103A5000F0836361012300252381039B6382E27A63
:103A60006560294604F1180018F082F86369258220
:103A7000E360EAE7A8060020CDCCCCCC70B50D4CB5
:103A8000282500B970BD037A4668002BFAD0013BA7
:103A9000DBB20372002BF5D1C3604360837A05FB70
:103AA0000343DB6913B198473046EAE7FFF722FF8B
:103AB000FAE700BFA8060020024B0122C3F8402508
:103AC0000020704700E0014048B1054B054A1B68E3
:103AD000B3FBF2F35843044B43F00103184770471C
:103AE0002805002040420F00C0C1010008B5054A6A
:103AF000054B136010463C23536010F0A9FE0020D4
:103B000008BD00BFB41000203FC00F0030B50378DF
:103B1000012B11D0022B21D06BB9154B0A4603F1B2
:103B2000100453F8045B42F8045BA342F9D14388C4
:103B30001A0A8A70CB7030BD0D4B0A4603F110048F
:103B400053F8045B42F8045BA342F9D143681A0CB2
:103B5000180E4A700870C3F30722EAE700F1100359
:103B6000013913F8012901F8012F9842F9D1E2E750
:103B700012D2010010B514F049F917F002FE044604
:103B800008B912F085FBBFF35B8F064B1B68BFF3D0
:103B90005B8F0BB10A2098471CB9BDE8104012F0AA
:103BA0008BBB10BDBC10002038B50446084814F08B
:103BB0000FF8054648B1631EDBB21F2B96BF054ABE
:103BC0000021D15C0C3014F07EF8284638BD00BFCF
:103BD0007007002022D201000F2810B50CD80D2844
:103BE0000CD90A4813F0F4FF044618B104210C3034
:103BF00014F069F8204610BD1328F2D009B104482A
:103C0000F0E7BDE810400220FFF7CEBF9807002084
:103C1000F806002038B5C5682B7893B9B5F801408F
:103C20000F21204601F048FDEB78054650B90A4ABD
:103C3000118831B96FEA04506FEA10501080074ABA
:103C4000137038BD4372012101F09EFC2846BDE887
:103C5000384001F043BC00BF5E340020AD37002087
:103C600010B586B003AB00240093074907480594BC
:103C70004FF0FF334FF48062CDE9034412F07CF83B
:103C8000204606B010BD00BFE03B002030080020F9
:103C900010B5084C0146062294F86F0001F0C0FFF1
:103CA00038B994F86F000449BDE81040052201F0CE
:103CB000B7BF10BD30000020F8D1010010B50121C0
:103CC00004460C3014F020F82146034A0078BDE881
:103CD0001040002314F067B9E4C3010010B50121BE
:103CE00004460C3014F010F82146034A0078BDE871
:103CF0001040072314F057B9ACC3010070B5314828
:103D000013F07FFF044600285AD000F10C05284626
:103D100014F002F8022805D004282FD02046FFF71F
:103D2000ADFE21E0238A032BF8D90421284613F0A5
:103D3000EBFFFF22438806882276228AC6F30B0017
:103D40009A426083EAD10F2101F0B6FC05460028B3
:103D5000E4D001F0CDFC320B20762146284614F049
:103D600075FC284601F0BAFB174BD3F834313BB34E
:103D7000BDE870401549164817F088BC2846022156
:103D800013F0C2FF054600783E2812D014F09BF8CD
:103D900010F002060DD10F4A0F49104840F69A4321
:103DA00013F0F7FB86F31188BFF36F8F03231846D8
:103DB00002DF0B4A28780423214614F0F4F8ADE71B
:103DC00070BD00BF6401002030000020B002002060
:103DD000C008002058CF01008CCF0100BACF0100ED
:103DE0008CC3010010B5012104460C3013F08CFF88
:103DF0002146034A0078BDE81040022314F0D3B8EE
:103E00007CC301002DE9F0470C4612F041FAE56849
:103E10002B78022B67D0042B05D02046FFF72EFE0F
:103E20006FF0150408E0B4F81080B8F1020F08D85C
:103E30002046FFF723FE002412F03EFA2046BDE89C
:103E4000F08768783E2809D1B8F1030FF0D0EB78FD
:103E5000012B01D00A2B46D1032704E014F033F8DC
:103E60000746F8073FD504F10C0601213046D4F887
:103E700014A013F041FF0221304613F045FF8146A4
:103E800000783E2807D1E3681B78012B01D00A2B6C
:103E900006D1032614E014F016F8C10706460FD425
:103EA000174A1849184841F2681313F072FB0023AF
:103EB00083F31188BFF36F8F0323184602DF0226B6
:103EC000124A99F800000623214614F06CF8B20754
:103ED00012D56369A4F81080A5EB0A0513FA85F5DD
:103EE000E560BB07A7D52146094813F075FE0949CF
:103EF000094817F0CBFB9EE72046FFF7BFFDF0E730
:103F000058CF0100D7CF0100BACF01004CC3010048
:103F100064010020B0020020C00800202DE9F04715
:103F2000884616468246002870D0BFF35B8FDFF8C4
:103F3000E090002359E8004F49E80032002AF9D107
:103F4000BFF35B8F002C61D02046FFF7F7FC314DAB
:103F50000C2303FB005027464388534511D0BFF381
:103F60005B8F59E8003F49E80072002AF9D1BFF39E
:103F70005B8F002B4AD01F463846BDE8F047FFF75D
:103F80007DBDA64208D0204613F01DFE328AF1689E
:103F900004F10C0013F08EFE2046FFF7CFFC0C2638
:103FA00006FB00504368ABB1B8F1000F12D12046B8
:103FB000FFF7C4FC06FB005001214268536803F080
:103FC0001F00814010685B0900EB8300137ACBB1BE
:103FD00013F0B8FF2046FFF7B1FC0C2606FB00509B
:103FE0008368002BC8D02046FFF7A8FC704305F873
:103FF00000802046FFF7A2FC06FB0055A86811F0E0
:10400000BFFCB9E7C94313F0E5FFE3E7BDE8F0877C
:1040100060010020C0100020094BBFF35B8F1A68BD
:10402000BFF35B8F02F00B02BFF35B8F53E8001FFF
:1040300043E800200028F9D1BFF35B8F704700BF31
:104040000401002010B5C1E900239DF808300B726F
:104050000C46FFF773FC034B0C2202FB00335C6041
:1040600010BD00BFC0100020F8B502460B46104836
:1040700013F0AEFD0446C0B104210C3013F009FE6C
:104080002046FFF75BFC0B4D0C2707FB005000267A
:1040900046802046FFF752FC07FB00508660204612
:1040A000FFF74CFC07FB00556E602046F8BD00BFD3
:1040B00048070020C0100020034B0146D3F85001F0
:1040C00082689268104700BF300000200148042138
:1040D00013F038BF0401002038B50546FCF784F81A
:1040E0001428044610D80A482946FCF773F848B14A
:1040F00022460748294617F014FD064B23440022A8
:1041000083F85421002038BD6FF00B00FBE700BF9F
:104110008401002030000020004870478401002006
:104120000149024817F0B2BAA0020020300800206E
:1041300070B505460C4639B1CB684A699B1A032B0A
:104140000ED86FF0150509E04FF0FF304FF0FF314A
:10415000FFF78AFF044618B96FF06805284670BD5E
:104160002046FFF7EBFB144B0C2202FB0033A61892
:10417000032130465D8013F0AEFD0580238A033BAA
:1041800083700121304613F0AEFD40F635439D4269
:1041900009D12046FFF790FF05460028DED02046D3
:1041A000FFF76CFCDAE70548214617F0B8F900255F
:1041B000FFF7B6FFD2E700BFC01000206C0100205F
:1041C0002DE9F043064685B017460C4669B94FF015
:1041D000FF304FF0FF31FFF747FF044658B96FF04B
:1041E0006805284605B0BDE8F083887AFFF79EFB96
:1041F000304B834258D101220021684617F0A8F9BC
:104200002046FFF79BFBDFF8B0900C2303FB0090E8
:10421000C0F808D0204613F00AFD01463046FFF7EB
:1042200087FF054618B12046FFF728FCD9E74FF471
:10423000A0220023684611F0D7FB804690B14FF4CE
:10424000F1731E4A1E491F4813F0A3F91E48424647
:10425000314613F09EF985F31188BFF36F8F032366
:10426000184602DF2046FFF769FB0C23584319F874
:104270000060AEB12046093EFFF700FC092E0CD8C5
:10428000DFE806F0050B0B08150B0B0B0B126FF09C
:104290006E05A6E76FF00C05A3E76FF00405A0E735
:1042A000002FC0D03C609CE76FF0150599E76FF0D8
:1042B0000B0596E748070020C010002058CF0100EA
:1042C000F0CF0100BACF0100F9CF01002DE9F04392
:1042D0004F4BB0F80180198848F4704291424FF07A
:1042E000000685B002BF1E804A4B1E78C378012BA2
:1042F00008BF494B00F10404054620460CBF93F863
:104300006F904FF0000913F07DFD02AF2146B0B170
:10431000384613F06CFDD5F81130CDF80130B5F802
:104320001530ADF805304FF00109EB78012B1BD0AB
:104330001321404613F07AFF05B0BDE8F0834846EC
:1043400014F070F80346006802909A889B796868B8
:10435000BA80BB71A288A37995F804900090ADF85B
:1043600004208DF80630E0E73846FFF791FC04465C
:104370000028DDD00346B5F8012023F8702B029801
:10438000BA79B98820679A719980B5F8173040F2E8
:10439000E2425343C4F88830B5F81930A4F890309D
:1043A000B5F81B30A4F89230EB78E3700022012BB3
:1043B00062721CD18DF80090BDF804209DF8063083
:1043C0000098A4F87B2084F87D30C4F8770000F0D2
:1043D000EDFD237A1049C3EBC3035A18CB58C4F838
:1043E0007E309388A4F88230937984F88430072152
:1043F000204601F0C9F826B166720121204601F07D
:10440000C3F8204601F0A6F9204601F067F893E7CB
:104410005E340020AD3700203000002000B5C368B6
:104420001A7889B032B13C2A32D109B05DF804EB78
:1044300013F0A6BE8DF80020B3F80120ADF80120DE
:10444000DA788DF80320B3F80B20ADF81720B3F815
:104450000D20ADF81920B3F80F20ADF81B205A7CC1
:104460008DF81D20586801901A899B7A8DF80A30C2
:10447000094BADF8082068461A689B88CDF80B20D8
:10448000ADF80F30CDF81120ADF81530FFF71EFF55
:1044900009B05DF804FB00BF0CD20100F7B50022A3
:1044A000114640F60340FFF78BFE0446002853D127
:1044B000FFF7B2FD214601AA41F20300FFF780FE9B
:1044C0000446002848D1019A254DD168D1F8010051
:1044D000D1F8051005F1780303C31046FFF7CEFAB3
:1044E000214601AA41F20100FFF76AFE044698BB8B
:1044F0000198C3685A7885F870205A88A5F8722008
:104500001A7985F87120B3F80720A5F87420B3F85C
:104510000530A5F87630FFF7B1FA214601AA41F23D
:104520000200FFF74DFE0446B0B9019FFA6805F19D
:104530008006531C413218685968344603C4083356
:1045400093422646F7D13846FFF798FA95F87C3023
:104550005A0607D46FF01204204603B0F0BD00BF26
:104560003000002001AA002142F20300FFF728FEDC
:1045700004460028F0D1019BB64EDA68D2F801005B
:10458000D2F8051003C61846FFF778FA214601AAAB
:1045900042F20200FFF714FE04460028DCD1019C21
:1045A000E368B3F8012091B249B1D97839B1A5F8DF
:1045B000FC20DA78114606F1200016F0C9FF2046EB
:1045C000FFF75CFA95F87C601F2316F02006A5F82B
:1045D000103119D14FF0FF304FF0FF31FFF744FD9C
:1045E0000446002800F01B8102210C3013F05CFB14
:1045F0000123037046702146324640F66D40FFF7B6
:10460000DFFD04460028A7D195F89C301B0712D582
:1046100001AA002142F21C00FFF7D2FD0446002847
:104620009AD10198C368D3F80120D3F80530C5E9C1
:104630003823FFF723FA95F8D8309F0625D50DF1DA
:104640000201684613F0DAFD0446002884D14FF0D9
:10465000FF304FF0FF31FFF707FD0646002800F05E
:10466000DE8004210C3013F01FFBBDF80030038006
:10467000BDF8023043802246314642F22400FFF763
:104680009FFD044600287FF467AF4FF0FF304FF0E6
:10469000FF31FFF7E9FC0446002800F0C080082144
:1046A0000C3013F001FB95F8D82012F0020F14BF64
:1046B0002F230F23960695F8D92048BF43F04003D7
:1046C00012F0090F18BF43F4006300220370C3F314
:1046D000072343708270C270027142718271C2718D
:1046E000214642F20100FFF76BFD044600287FF4EB
:1046F00033AF95F87C30B5F8FC1098067BD4C9B977
:1047000001AA41F20500FFF75BFD044600287FF493
:1047100023AFB5F8FC30019C4BB9E368B3F8012036
:10472000A5F8FC209A884C48114616F011FF204647
:10473000FFF7A4F94FF0FF304FF0FF31FFF794FC83
:10474000044600286BD008210C3013F0ADFA10237A
:1047500003708823437002230022C37020238270D9
:10476000027142718271C371214640F60140FFF728
:1047700027FD044600287FF4EFAE014601AA4FF65C
:104780000140FFF71DFD044620BB0198FFF776F9B5
:10479000214601AA4FF60240FFF712FD0446C8B9B0
:1047A0000198C368B3F80130A5F8C130FFF766F986
:1047B00095F8C1305A070DD501AA21464FF603409E
:1047C000FFF7FEFC30B90198C3685B7885F8C0300C
:1047D000FFF754F9EB799BB900F02EFB0446002853
:1047E0007FF4BAAE01F0F2FA044600287FF4B4AECA
:1047F000FFF76CFCB0E600299CD16FF00404ABE637
:104800002E78002EE8D195F8C1309B061ED54FF0CA
:10481000FF304FF0FF31FFF727FC044610B96FF06F
:10482000680499E606210C3013F03EFAD5F8013001
:1048300003600A4B9B888380214632464FF6064030
:10484000FFF7BEFC04460028C6D085E66FF085045D
:1048500082E600BF08010020300100203100002066
:1048600010B5FFF71BFE034B1B6813B1BDE81040EA
:10487000184710BDE410002073B5274D0646D5F843
:10488000500116F0EBFC00283FD06FF0020105F15B
:10489000D40013F09FFB012113F054FB10EA010434
:1048A00036D11E48FFF718FC1D4B1E600122114631
:1048B00005F5907016F04CFE05F59E7016F0FEFDA5
:1048C000184816F00EFF1849164800946FF00703B9
:1048D0004FF4966211F050FA1449124816F057FF3F
:1048E000D5F85001124983681B689847044648B9B7
:1048F00026B902B0BDE87040FFF7D0BD05F1C40095
:1049000011F034FA204602B070BD6FF01204F9E7DE
:104910006FF07704F6E700BF300000203ED00100C2
:10492000E4100020C0080020E03F002048D0010033
:10493000053E000038B5032104460C3013F0E4F9BD
:104940000346B0F8010040F6354290420DD01D7884
:10495000E36822461978FFF7E1FA35B1034811F010
:104960000FF8BDE83840FFF7DBBB38BD5001002031
:1049700038B511F08DFC284DD5F83C31002B48D0CE
:104980000022002305F5907011F02EF8002840D188
:104990000022002305F59E7010F0C0FF044668B9A0
:1049A0001E4A1F491F4840F6AA4312F0F2FD84F345
:1049B0001188BFF36F8F0323184602DFD5F830014B
:1049C00020B1FFF75BF80023C5F83031204613F023
:1049D0002EF9C5F830012046FFF76EFB98B112485A
:1049E00010F0CEFF2046FEF7A9FF104B0C2202FB71
:1049F00000301F2140882246FFF790FA2046FFF73B
:104A00003DF8FFF78DFBFFF78BFBBDE8384011F059
:104A100053BC00F0AFFEF8E73000002058CF010093
:104A200051D00100BACF010050010020C010002079
:104A300038B5042104460C3013F066F94578017846
:104A400040882246FFF76AFA35B1044810F098FF13
:104A5000BDE83840FFF764BB38BD00BF50010020FF
:104A600070B54FF0FF320D464FF0FF330021064680
:104A7000FFF7B2F8044660B90A4A0B490B481A23FB
:104A800012F087FD84F31188BFF36F8F032318465C
:104A900002DF022104F10C0013F006F906704570E4
:104AA000204670BD55D0010051D00100BACF0100A1
:104AB000F8B50A4DEF7906460024E3B29F4202D8CA
:104AC0006FF0010007E02946304613F0A3FC0735DC
:104AD000631C08B12046F8BD1C46EEE730000020FC
:104AE00070B5144E06223146044617F049F8E0B17D
:104AF0004FF0FF304FF0FF31FFF7B6FA0546A8B18F
:104B0000062221460C3013F0D5F80022294642F245
:104B10000500FFF755FB40B93346226843F8692981
:104B2000A288B280012283F8682070BD6FF068000F
:104B3000FBE700BF9900002073B504460D4689B11C
:104B40001749284613F066FC60B9164A2968C4EB79
:104B5000C404A3181151AA889A80AA799A710020D6
:104B600002B070BD6E46304613F033F90028F7D11D
:104B70003046FFF79DFF0028F5DA0A4A0098B17920
:104B8000C4EBC404A3181051B08898809971002D0B
:104B9000E5D012592A609A88AA809B79AB71DEE72A
:104BA000FFD101003000002070B5044611B16FF054
:104BB000150070BDF0B1234913F02CFCD0B920468C
:104BC000FFF776FF002837DA237863B91E4AD379D6
:104BD00093BB20681060A179A08891710121908019
:104BE000D1711846E5E7012BE1D1A37903F0C003A9
:104BF000C02BDCD1144DEB79012B20D0BFF35B8FA0
:104C0000D5F8D430BFF35B8FDB0707D4002CCED0B0
:104C10000C49204613F0FEFB0028C8D1EE7921464E
:104C2000731C3046EB71FFF787FF08B93046C0E7C9
:104C3000EB79013BEB71BCE76FF07700B9E76FF000
:104C40000B00B6E7FFD10100300000202DE9F34151
:104C50000446D8B101AA002141F20900FFF7B0FAD9
:104C6000054698B9019E1249D6F80C8008F1010753
:104C70000622384616F084FF28B10E49062238462F
:104C800016F07EFF30B93046FEF7F8FE002002B085
:104C9000BDE8F081D8F80130C4F80130BB88A4F831
:104CA000053030462570FEF7E9FE0120EFE700BF32
:104CB0000CD2010006D2010007B56846FFF7C6FF17
:104CC000044BD87118B169460020FFF735FF03B0D7
:104CD0005DF804FB30000020F0B5294DEE7989B075
:104CE000002E46D195F8C230DB0722D56A46314600
:104CF0004FF60940FFF764FAD8B9DDF800C0DCF8D8
:104D00000C406378012B1E4628BF012673B1A31CFB
:104D100002AA123418685968174603C70833A34219
:104D20003A46F7D1186838609B88BB806046FEF72A
:104D3000A5FEEE71002416260127EB79E0B2984219
:104D400002D3B3B1002012E008AB06FB0033694682
:104D500053F8182C33F8143CCDF80120ADF8053089
:104D60008DF80070FFF7E8FE01340028E5D009B0A7
:104D7000F0BD0021084609B0BDE8F040FFF714BFC0
:104D8000300000202DE9F0411D460E46174603462F
:104D9000002849D0002D47D00A0307D54C0743D43B
:104DA00013F04DFB10BB01232B701FE0B1070478FB
:104DB0001ED020492FB1B20603D591F8D820500655
:104DC00035D5C4EBC40411F80480B8F1010F08D143
:104DD00001342144184613F02AFB38B985F80080C5
:104DE00002E0B8F1000FF9D0A7B90020BDE8F081CA
:104DF000720716D50F49C4EBC4040F5D012F07D10C
:104E00000134214413F013FB0028EFD12F7001E08F
:104E1000002FFBD0B306E8D52B7843F002032B70AC
:104E2000E3E713F00CFBBEE76FF01500DEE76FF071
:104E30008500DBE73000002010B50A4CE3790BB1A8
:104E4000002010BDFFF738FF0028FAD1E379002BCE
:104E5000F6D1FFF741FF0028F3D1601CBDE81040F8
:104E6000FFF73EBE30000020F8B545686A050646EB
:104E700033D4046914B115F003032ED0184F3078E1
:104E8000FB79834229D9C0EBC00016490722384478
:104E900016F076FEA8B115F0030306D197F870203E
:104EA000082A02D8B2689F2A17D915F0300F09D006
:104EB0009CB1EB0608D405F46035B5F5603018BF39
:104EC0000120F8BD002CF6D1D6E902239A4204D87D
:104ED0001F2A02D9B3F5804FEDD90020F1E700BFBA
:104EE00030000020FFD10100F7B5CDE9000169468F
:104EF00042F208009DF8207016461D4613F0CFFAC6
:104F0000044668B97FB9BFF35B8F0C4B53E8001FB1
:104F100041F0040143E80012002AF7D1BFF35B8F90
:104F2000204603B0F0BD694642F20900CDE90065B4
:104F300013F0B5FA0028E6D00446F1E75800002047
:104F4000F8B50446164B14F8097B83F86F700646D3
:104F50000D4607221349204616F012FE70B9124979
:104F6000384600F019FE044610B96FF00B00F8BD8A
:104F7000052100F009FB2C600020F8E721463846A7
:104F800013F010FC40B92146307800F005FE0446CD
:104F90000028EAD00621ECE76FF01500E7E700BF34
:104FA00030000020FFD10100F8D101000048704717
:104FB000480000202DE9F04F884ED0F810A089B0AD
:104FC0009B460023BAEB03040546304618BF012474
:104FD000039313F05EFA0F464107914640F1DE80DD
:104FE0002846FFF741FF60B96FF0150438460023EB
:104FF00040F20111994540F0DA80204609B0BDE841
:10500000F08F284613F032FA80460028ECD0A6F143
:10501000AC0013F03EFAC205C0F3002300F1C180DA
:10502000CDE90533CDF81B30AB686868ADF81030BA
:10503000EB68ADF8123013F01DFA8DF81D00BFF3C8
:105040005B8F56E8003F23F4807346E80032002A65
:10505000F7D1BFF35B8F2A7806F8BC2C06F8652CD5
:10506000696822460DF11503A6F1BC00FFF78AFE20
:1050700004460028BAD1A6F1B303BAF1000F21D03B
:105080002A69116846F8B31C9188998092799A71BF
:105090006B689C0718D0BAF1000F1CD013F0100FEA
:1050A0000CBF012304238DF814302B691A68CDF846
:1050B00016209A88ADF81A209B798DF81C304FF095
:1050C00000080BE0464ADCE7980502D4BBF1000F6C
:1050D00034D0022300E053468DF814304FF0FF30F7
:1050E0004FF0FF31FEF7C0FF044600285CD00F22CE
:1050F00004A90C3012F0DEFD2146002242F2060027
:10510000FFF75EF8044600287FF470AFBAF1000F95
:1051100018D06B68990721D13248012113F034FA75
:10512000039E044610B3002E3FF460AF30460021CA
:1051300000F02AFA304600F0D1F957E703238DF842
:105140001430BCE7129BCDF800805A4649463846D9
:10515000FFF7CAFE04460028DBD047E7214803A931
:10516000FFF7EEFE04460028D6D03FE716B13046E2
:1051700000F0B4F96A681C4812F0030218BF01225B
:10518000092113F0E6F942460A2113F0E2F92A79DF
:105190000C21C2F3800213F0DCF927E76FF00A0458
:1051A00024E76FF0770421E76FF068041EE70288B8
:1051B0008A4204D1426812B11278D20702D4013374
:1051C000083017E709490A4816F091FA4FF470229F
:1051D0000023074810F06CFE0FE700BF0401002019
:1051E000FFD101004800002058000020DB850100AD
:1051F0006000002010B5184813F0ECF9174813F0C0
:1052000048F90346DA05C0F3002023D5134813F00C
:1052100040F9830515D512491248072216F0B0FC53
:1052200011490346087E93B91049052200F0F8FCA5
:10523000044630B10021417200F0A6F9204600F08A
:105240004DF9BDE810400448002113F09DB9062235
:105250002131EBE710BD00BF4800002058000020BE
:10526000FFD101005100002030000020F8D10100E2
:1052700070B50C4B1C68054644B154F8143C143C02
:1052800013B1697A284698476469F5E7064C074EDA
:10529000B44200D370BD236813B1697A2846984799
:1052A0001834F5E71C11002078C1010078C1010015
:1052B00010B50446FEF742FB044901EB00112046FD
:1052C00012F0E1FDBDE81040FEF72ABFE810002013
:1052D00070B5D1E9015600220446C1E90122064811
:1052E00016F01DF93DB1314620462B466FF06D0298
:1052F000BDE87040184770BD9406002037B5837A2A
:10530000072B04462FD1BFF35B8F031D53E8002FFB
:1053100042F4806143E80015002DF7D1BFF35B8FA5
:10532000510520D4BFF35B8F6368BFF35B8FDA0353
:1053300001D412F0A1FFA37A072B14D10B4B93F8E1
:10534000D8309B060FD512F033FF60B10DF1060186
:1053500001A812F053FF30B9BDF80620BDF80410C3
:10536000204612F0A4FF03B030BD00BF3000002083
:1053700070B505460F480022002310F035FBB8B980
:105380000D4B1C6834B154F80C3C143C03B19847E5
:105390006469F7E7094C0A4EB44204D32846BDE8D5
:1053A000704010F0E3BCA36803B198471834F3E7EA
:1053B00070BD00BF840600201C11002078C10100D0
:1053C00078C101002DE9F041044620270025EFF3C4
:1053D000118287F31288BFF36F8FE16929B1206AC8
:1053E0000B68E361814208BF236282F31188BFF337
:1053F0006F8F71B1D1E901680748C1E9015516F015
:105400008EF81EB1002241462046B047FEF788FEC6
:10541000DDE7BDE8F08100BF940600200448B0F845
:10542000FC30002B00F5807008BF0020704700BFE3
:105430003000002030B50446FEF730FA0C4A0D4625
:105440000C490858116F884289B005D1204609B02F
:10545000BDE83040FFF7B6BF24342146104616F0B1
:1054600015F91DB16946204616F020F909B030BD86
:10547000A80E00200800000038B5002204468A4229
:1054800002D10024204638BD04F1C8030120BFF337
:105490005B8F53E8005F002D04D143E8000CBCF1A2
:1054A000000FF6D1BFF35B8F02D0D0340244E6E7A1
:1054B000002CE6D0C8220021204616F059FB04F14A
:1054C0004000044916F013F9034904F1240016F0D2
:1054D000C1F8D7E7D15C0000FF85010008B500F1F5
:1054E000C803BFF35B8F53E8002F013A43E8002164
:1054F0000029F8D1BFF35B8FAAB90B4B984212D3A6
:1055000003F1D00290420ED2C01AD023B0FBF3F2C6
:1055100003FB120038B9054810F032FABDE8084024
:10552000034810F023BC08BD500900208406002069
:10553000D002002010B5044613F0D8F810F0A8FEF1
:10554000104AD2F8141104F1BC0361B9C4F8BC10BC
:10555000D2F8181159B9C2E9453310F0ADFEBDE8D3
:105560001040FEF7DDBD8B4205D00968EDE70B600A
:10557000C2F81831F1E710F09FFE2046FFF7AEFFAA
:10558000EDE700BF3000002070B5857A8D420446FB
:1055900013D081720DB913F0A9F8A37A012B09D1A8
:1055A000344D05F580766169002950D1BDE8704021
:1055B000FEF7B6BD072B01D0ABB170BD0023C4E927
:1055C0000D33E378012BF8D1A378012B04BF03231B
:1055D00084F8983004F140004FF42032BDE8704068
:1055E000002310F031BC082DE7D801A353F825F0B3
:1055F000BB550000155600003B5600004556000004
:1056000045560000455600003B560000BB550000C3
:10561000BB55000004F14005284616F074F82046FA
:105620000121FFF707FF204613F007F82846002264
:10563000BDE87040002310F03BBC637A13B12046F4
:10564000FFF716FE2046BDE87040FFF747BFA2698E
:105650000B686361914208BFA3612046FFF738FEE3
:10566000B5F8FC30002B14BF3046002010F088F94C
:1056700099E700BF30000020F8B5074609480D46FD
:10568000164613F033F8044650B183781F4203D115
:10569000BDE8F840FFF722BF3146A8472046F7E7AC
:1056A000F8BD00BF50090020024900220120FFF789
:1056B000E3BF00BFFD52000038B505460B480C465D
:1056C00013F014F8034670B1827A012A02D0073A27
:1056D000012A06D81A88AA4202D19A78144203D124
:1056E0001846FFF7FBFE0023184638BD500900207E
:1056F000034BC01A034B00115843C0B2704700BFA0
:1057000050090020C54EECC470B51C461443054634
:105710000E4607D0FEF7C2F80B4908580B49096F2F
:10572000884201D1002213460949002D14BF2846A2
:10573000084612F04DFA044618B1711D0C3012F0F3
:10574000A8FA204670BD00BF08000000A80E002087
:10575000A806002010B50446054810F007FB2046B7
:1057600000F0ECFB2046BDE81040FFF781BD00BF14
:10577000C00200202DE9F04F87B00023039305936A
:10578000AD4B1A8B32B1AD4DD5F8144134B907B0D9
:10579000BDE8F08F1B68002BF5D1F8E754F8BC3951
:1057A00003B1BC3BA649002601E01C461346B5F8F0
:1057B000FC20002A00F03D81D5F808214AB904F107
:1057C000BC06002BE3D0D3F8BC20002AEDD0BC3AB5
:1057D000EBE70A68002AF2D0D4F8A820002AEED01D
:1057E000D4F8AC20002AEAD0D4F8B020002AE6D0C1
:1057F000A37A072B68D120469047002864D0BFF3D6
:105800005B8FD4F8C030BFF35B8F022B5CDC20468B
:1058100012F06CFF04460028B9D0A37A072B40F0A1
:10582000FF80D4F8A830B5F8FC1004AA20469847A9
:105830000746002800F0D480B5F8FC20049B9A426B
:1058400006D30146D4F8AC6005AB03AA2046B047A6
:10585000059B01933B8ADDF80C90002B00F0E38060
:105860003846DDF810A012F024FB8046002840F0F6
:10587000DD80B5F8FC30DFF8CCB1002B14BF584602
:1058800000200022002310F0AFF878B96C48002205
:10589000002310F043F8064600283BD1B5F8FC3051
:1058A000002B18BF5E46304610F06AF86FF00B050B
:1058B0003846FEF7E3F8B9F1000F00F08D8001994A
:1058C0002A462046C84787E0D4F8BC3004F1BC0221
:1058D000C6B9D5F81811C5F814318A4201D1C5F8F6
:1058E00018310023C4F8BC302046D4F8B0309847B3
:1058F000002892D0A37A072B40F092802046FFF731
:1059000019FE8AE73360D5F818319A4208BFC5F806
:105910001861E6E7019BC0F804908360B5F8FCB01D
:105920004548DA454FF000024FF000034FF0000108
:1059300098BF1FFA8AFBFEF723F8814650B1FDF7A6
:10594000FDFF414B5A4603EB00133946484612F01F
:1059500075FA8146B5F8FC3094F8C4709A458CBF4E
:105960004FF00108023784F8C48098BFFFB204F1F9
:10597000C008BFF35B8F58E8003F013348E80032AE
:10598000002AF8D1BFF35B8F00233360A3695BBBB0
:10599000C4E90566A378012B29D0BFF35B8F58E8D3
:1059A000003F013B48E80032002AF8D1BFF35B8F8B
:1059B000314604F1140012F025FE4846FEF75EF869
:1059C00020463146FFF784FCB5F8FC301D48002B1B
:1059D00008BF00200FF0D4FF1321204612F0A2FED2
:1059E0002046FFF77BFDD2E61E60A661D2E709F1F3
:1059F0000C0A0421504612F06EF9238807F0FD07C7
:105A000043EA07330380B9F81030043B4380022196
:105A1000504612F068F94846FEF74EFB0028BCD10C
:105A2000FEF77EFBDCE76FF0790541E76FF00405D8
:105A30003EE79368FFDE00BF200700203000002013
:105A40009406002030010020E81000202DE9F041EC
:105A500040F2E243D0F88860B6FBF3F60446B6B2F3
:105A6000031DBFF35B8F4268BFF35B8F920417D5B2
:105A7000B0F88C20B24213D8B0F88E20B2420FD3C7
:105A8000D0E9241291420BD1BFF35B8F53E8001F82
:105A900021F4005143E80012002AF7D1BFF35B8FD5
:105AA000104B1D6865B155F8047C143D37B1B4F84E
:105AB0009230B4F8902031462046B8476D69F1E73E
:105AC000094DDFF82880454501D3BDE8F0812F69F5
:105AD00037B1B4F89230B4F8902031462046B84738
