:10000000D0580020593E000049840100453E0000C0
:10001000453E0000453E0000453E00000000000057
:10002000000000000000000000000000913E000001
:10003000453E00000000000061400000453E000019
:10004000CD400000390F0100CD400000CD40000040
:10005000CD400000CD400000CD400000CD4000006C
:10006000CD400000CD400000CD400000CD4000005C
:10007000CD400000CD400000CD400000CD4000004C
:10008000CD400000CD400000CD400000CD4000003C
:10009000CD400000CD400000CD400000CD4000002C
:1000A000CD400000CD400000CD400000CD4000001C
:1000B000CD400000CD400000CD400000CD4000000C
:1000C000CD400000CD400000CD400000CD400000FC
:1000D000CD400000CD400000CD400000CD400000EC
:1000E000CD400000CD400000CD400000CD400000DC
:1000F000CD400000CD400000CD400000CD400000CC
:100100007BB972B90029BEBF00204FF0004106E064
:1001100008BF00281CBF6FF000414FF0FF3000F017
:1001200057B8ADF1080C6DE904CE002909DB002BAE
:100130001ADB00F061F8DDF804E0DDE9022304B029
:100140007047404261EB4101002B1BDB00F054F88B
:10015000DDF804E0DDE9022304B0404261EB410137
:10016000524263EB43037047524263EB430300F098
:1001700043F8DDF804E0DDE9022304B0404261EB1E
:1001800041017047524263EB430300F035F8DDF85C
:1001900004E0DDE9022304B0524263EB43037047FD
:1001A00053B94AB9002908BF00281CBF4FF0FF31DE
:1001B0004FF0FF3000F00CB8ADF1080C6DE904CE43
:1001C00000F01AF8DDF804E0DDE9022304B070471E
:1001D000704700BF10F8012B11F8013B012A28BF1E
:1001E0009A42F7D0D01A7047034613F8012B002A21
:1001F000FBD1181A013870472DE9F0478C468E461E
:10020000089E154604461946002B40F0D0807245E2
:1002100047D9B2FA82F74FB1C7F120030EFA07FCB3
:1002200020FA03F3BD4043EA0C0CBC404FEA154EE4
:10023000A8B2BCFBFEF8230C0EFB18CC08FB00F99F
:1002400043EA0C43994528D9EB1808F1FF3204D250
:10025000994502D9A8F102022B44A3EB0903A4B2E9
:10026000B3FBFEFC0EFB1C330CFB00F044EA034422
:10027000A04214D92C190CF1FF3304D2A04202D9A8
:10028000ACF102032C44241A43EA02401EB1FC40A4
:10029000002334607360BDE8F0874246DDE76346C3
:1002A000F1E7002A79D0B2FA82F3002B3FD0194649
:1002B000C1F1200302FA01F52EFA03F20EFA01FE53
:1002C00020FA03F343EA0E034FEA154E00FA01F455
:1002D000B2FBFEFCAFB20EFB1C201A0C0CFB07F8A5
:1002E00042EA004290455AD9AA180CF1FF3004D2D4
:1002F000904502D9ACF102002A44A2EB08029BB25D
:10030000B2FBFEFC0EFB1C220CFB07F743EA024388
:100310009F4246D9EB180CF1FF3204D29F4202D91A
:10032000ACF102022B44DB1B42EA004202E0AEEBDE
:10033000020301224FEA154EAFB2B3FBFEFC200CC4
:100340000EFB1C330CFB07F840EA034398452AD9FF
:10035000EB180CF1FF3004D2984502D9ACF1020041
:100360002B44A3EB0803A4B2B3FBFEFC0EFB1C332F
:100370000CFB07F744EA0344A74216D92C190CF1E9
:10038000FF3304D2A74202D9ACF102032C44E41B90
:1003900043EA00400F46114678E71F2188E7604690
:1003A000ABE76246BFE76046DBE76346EFE77345CE
:1003B00006D916B9002108466DE7C6E9000EF9E72F
:1003C000B3FA83F787B9734501D3824207D8841AF9
:1003D0006EEB030301209C461EB900215BE7384603
:1003E000FAE7C6E9004CF8E7C7F1200CBB4022FA57
:1003F0000CF51D4320FA0CF12EFA0CF30EFA07FE51
:1004000041EA0E014FEA154900FA07F4B3FBF9F887
:100410001FFA85FE09FB18300B0C08FB0EFA43EAA5
:1004200000439A4502FA07F240D9EB1808F1FF3071
:1004300004D29A4502D9A8F102002B44A3EB0A0387
:1004400089B2B3FBF9F809FB183308FB0EFE41EA49
:1004500003418E452CD9691808F1FF3304D28E452B
:1004600002D9A8F10203294443EA0040A0FB029804
:10047000A1EB0E014145CE46434602D306D14C4581
:1004800004D2B9EB020E68EB05030138002EA4D0AC
:10049000B4EB0E0261EB030101FA0CFC22FA07F344
:1004A0004CEA0303F940C6E9003196E74046C5E748
:1004B0004346D9E7000000002DE9F843D0E90738AA
:1004C000856903EB08042F34A5420F46164619D858
:1004D000DFF86C80A3FB080117A3D3E90023FFF723
:1004E0005FFE0346601BA0FB080123F07F4412A3BC
:1004F000D3E90023FFF754FE20F07F403C603060DA
:10050000BDE8F883DFF838900BA3D3E90023A5FBFF
:100510000901FFF745FE20F07F440A480A2106A39F
:10052000D3E90023E8FB0901FFF73AFE20F07F4002
:100530003C603060BDE8F8838D49FD1A070000007B
:1005400000CA9A3B00166BF1002800F044812DE9A7
:10055000F04FC74C94F85E30DA078DB000F1378168
:10056000627F94F8293004EB820204EB8303166A5D
:10057000D3F82C800EB3354615F8020BC0F380106B
:1005800009F020F90368C6F802308388AB8033781D
:100590005B0606D50621284607F0A0FD002800F0DE
:1005A0004C81454615F8020BC0F3801009F00AF99A
:1005B0000368C8F802308388AB80337813F00E0FDD
:1005C00040F0918063691BB10C200DB0BDE8F08F45
:1005D00009F07CFD8146002800F0388109F082FD99
:1005E0008246002800F02F810BF028FF05460028E6
:1005F00000F03381D0F888004FF6FF73AB8405F12B
:10060000100B002800F0248105F17C0205F178012F
:1006100007F070FDB5F8763023F4EF6323F007039D
:1006200043F48C7343F00103A5F8763095F8373026
:1006300003F03F0363F07F0385F8373095F88E3081
:1006400023F0070385F88E3095F83C3023F00F0334
:10065000002785F83C304FF4C023C5F88E3128467A
:10066000C5E91277C5F88870A5F88C7085F83970DF
:100670006F85C5F82E702F65A5F86071A5F8947187
:10068000A5F88A710DF06EFE85F86471C5F8689161
:100690000CF098F995F89C3160F3020385F89C31D1
:1006A0000CF096F995F89C3160F3C50385F89C3100
:1006B00095F8623167F34103012185F862312846DC
:1006C0000CF028FD05F1E0000DF06CFCC4E9159A72
:1006D000C4F814B0C5E902772F702D6111F0D2F87B
:1006E000002840F0AC80237E0121C3F342030DF1CA
:1006F0002B008DF82B3007F09FFE024600286CD0AF
:10070000414630460BF0B6FA5A4A5B4BB4F85C806F
:100710000721E0FB023100251846C4E9025552A327
:10072000D3E900232570FFF73BFD606009F00EF868
:1007300000F10907B8F1000F07D1357805F00F0572
:10074000A5F10105B5FA85F56D09207E636865F3AD
:10075000000010F00105207646D0484A099200209A
:1007600010600225464ADFF81C8104930BAE01930A
:1007700005920321CDE90200069400903B46CDF896
:100780001C8008962A460B9508F004FF314609F0B4
:100790001FFD10BB3C4905914AF2D8330093CDE9C7
:1007A0000300CDE90100CDF81C80089606943B4675
:1007B000012203210B9508F0D1FE314609F008FD16
:1007C00058B994F85E3043F0010384F85E3000209D
:1007D0000DB0BDE8F08F0BF0E7B96369002B3FF473
:1007E000F3AE0BF0B7F9EFE6244A2848049303F27E
:1007F00047130694029591211360A8FB000301FBA7
:100800000831204B07931E4B05934FF6FF73099257
:100810004FF0020803930BAE13A3D3E90023CDF8E6
:100820002C800896FFF7BCFC3B46CDE900504246C1
:100830002846032108F0AEFEBFE71220C5E60BF004
:1008400089F90320C1E6484609F046FC0720BCE6CA
:1008500005F18000C5F88800D6E6504609F048FC4E
:10086000484609F039FCF1E78D49FD1A0700000000
:10087000B023002000CA9A3B8C49FD1AA423002013
:10088000EDBC00004998000011BA0000002AE7847E
:1008900070B5037E8AB0C3F342030D4604460121BE
:1008A0000DF1230016468DF8233007F0C5FD3146C3
:1008B000024628460BF0DEF91D4A1E4B0721E0FBDD
:1008C0000231184618A3D3E90023FFF769FC6368D7
:1008D0009842054621D21B1A00220192164A029321
:1008E000164BA21AA3FB02320221920900230A44EA
:1008F00009AE099112490591CDE90333032106960A
:10090000D2B20093184608F09BFE314609F060FC15
:1009100038B9656000200AB070BDFBD9C21A002347
:10092000DBE70C200AB070BD8D49FD1A07000000FE
:1009300000CA9A3B8C49FD1AB0230020ABAAAAAA90
:1009400049980000000000002DE9F04F05468BB0EB
:100950008B46012002219946144612F01BFC00220E
:1009600002218246012007F019FC2F494FF4D4726E
:10097000284607F09FFBC61C2C4B0093F6B201954E
:100980004B4632460121002008F0A8FE10F0FD0F72
:1009900042D1274BA4FB0348204621A3D3E90023DF
:1009A0004146FFF7FDFB089506956B680493214BC4
:1009B00020F07F47A7FB0331E01A1F4B07934FF04E
:1009C00007021E4B059302FB07114FF6FE7368EBFF
:1009D000010103934FF47A720023FFF7E1FBCDF896
:1009E00000B0CDE901704B4632460121002008F0ED
:1009F000B5FD10F0FD0F0DD1BAF1000F02D10BB013
:100A0000BDE8F08F0122022110460BB0BDE8F04F87
:100A100007F0C4BB00DEEFE700DEBAE7AFF300800B
:100A20008D49FD1A07000000B80B0020F9C2000034
:100A300000CA9A3B8D49FD1AE1C20000810C0100F9
:100A40002DE9F0418468A28C4FF6FF739A428CB076
:100A500000F0C080054620460DF000FF2B7D012BE5
:100A600000F0E680022B00F0B88033B994F88E30A5
:100A700003F01803182B00F01C8194F86471002F08
:100A800040F0AE802B8AE68D94F93720CDE90A77C5
:100A9000002B00F0AC80002AC0F221810023A4F8D2
:100AA0009031AB7CA28D03F00303551C012BADB23A
:100AB00000F0BA80B4F89431002B00F0BF80AB4254
:100AC00040F237815B1B9BB2062BA4F894314FF0A8
:100AD00000028CBF00230123E2851F4694F83C20CE
:100AE00063F3820284F83C2029460DF12702204658
:100AF0000DF074FC743000F01681B4F88E312BB117
:100B0000AB4240F2BF805B1BA4F88E31B4F88A314F
:100B10002BB1AB4240F2C6805B1BA4F88A31E58D55
:100B200017B9AE4200F0AC800135ADB294F8D130C7
:100B300013F0010609D1DDE90AC3B3BBBCF1000F14
:100B400000F0E9801E46194630E094F9372023F082
:100B50000103002A84F8D130C0F28A8094F876002C
:100B6000C0F3C00100F0070010F00EFDB4F86E20D5
:100B7000B4F86C301344E28B03F23F13134418446F
:100B80008D4A8E4B0721E0FB0231184688A3D3E93A
:100B90000023FFF705FB616820F07F408142DDE91B
:100BA0000AC380F0B280461A60600021A28C2469DA
:100BB0000694CDE903570332814D0291CDE900C679
:100BC000D2B201210020059508F03AFD10F0FD0F8A
:100BD00040F0B4800CB0BDE8F0813D2784F864712A
:100BE000394620460CB0BDE8F0410BF0ABBF002AFF
:100BF000B8BF84F8D570AB7CA28D03F00303551CFD
:100C0000012BADB210D0B4F89031002B3FF452AFAD
:100C1000AB4240F29A805B1BA4F89031B4F8943157
:100C2000002B7FF44CAF59E70023A4F8943155E72B
:100C30000023A4F88E31A4F88A311EE7E38C052B3B
:100C40008BBF40F2E2424FF4FA725A4303FB022296
:100C5000B4F8923142F2107101FB0323013BB3FB64
:100C6000F2F39BB2A4F89431002B7FF428AF35E760
:100C700094F87700012100F0070010F087FC75E779
:100C80003D4653E709F074FA0146002864D000237A
:100C9000A4F88E31A38CC3801B230371006809F074
:100CA00039FA33E70023A4F88A3120460DF028FCF6
:100CB00035E7218DB4F88C218B1D9A42C4BF931F58
:100CC0005B1AB4F88811CCBF9BB21346994256D038
:100CD000A4F88831A4F88A31A4F88E21CDE694F8DE
:100CE000D530002B3CD0013B84F8D53004F1E0082E
:100CF00040460DF099F9002855D040460DF094F982
:100D0000002842D00023E385C8E6091A6060A3BB2F
:100D100051EA0C021ED115B9002F3FF45BAF00263B
:100D20003146334642E79DF8271020460BF00AFF74
:100D300050E7082120460BF005FF4BE709F072FA57
:100D400084423FF447AF00DE44E73E2120460BF0EB
:100D5000F9FE3FE71E4629E70123A4F88E31D5E6C8
:100D60000AAA0BA92846FFF7A7FBDDE90A231343CC
:100D7000BCD0237884F8D530B8E7002616E7B4F85D
:100D80008E1100297FF479AEA4E70246D4E91E0152
:100D900007F0C8F90028B5D194F83C301B0744BFD0
:100DA000238DE3857AE6FF200BF08EFEA5E700BFDA
:100DB0008D49FD1A0700000000CA9A3B8C49FD1AB4
:100DC00039C30000000000002DE9F04F87B0B0F8F3
:100DD0006071BDF84C900091CDE90423B0F8243146
:100DE000BDF840A01F44BFB20446A7EB090390F82A
:100DF0007600D4F81C819EB2BDF844300193C0F354
:100E0000C001BDF84830039600F00700029310F0CF
:100E1000BBFBE58C052D40F2A38015FB06F5ADB2BA
:100E200040F2E24BBAF1050F40F28E80B4F86E202A
:100E3000B4F86C30134403F2D5130344764A774870
:100E40000721E3FB02014FF09613E361962323840D
:100E50006FA3D3E90023FFF7A3F9564620F07F40A4
:100E600040F2E2430BFB05F203FB06F6531E33444C
:100E7000B3FBF6F31FFA83FB60600BFB06F08242C4
:100E80005D4653D26449801AA0FB010160A3D3E9F7
:100E90000023FFF785F920F07F408044B4F8242137
:100EA000B4F86031A9EB07094D44ADB213442B44AB
:100EB000A4F86031638D13441D4494F83730658580
:100EC000DB0955D100DE00273546019B2385029BB7
:100ED000A4F8923131462046A4F826A00DF0AAFAD3
:100EE0004F4B218D3344881DB3FBF6F39AB29042E9
:100EF000A4F88C2104D2C1F57F41FA310A4492B2A0
:100F0000009BA4F8882113B10023A4F89431434630
:100F10002A4639462046FFF717FD94F8623143F020
:100F2000010384F8623107B0BDE8F08F121A3A4825
:100F3000A2FB000136A3D3E90023FFF731F920F02B
:100F40007F40A8EB0008A9E74FF096130AF10106CD
:100F5000E36196232384B6B20A204FF4FA7381E743
:100F6000039B013515FB03F5ADB24FF4FA7B59E74E
:100F7000216CA36C284F01FB0233039A01FB12334F
:100F8000A3640023C4F8DC3010F0CEFC054694F8CE
:100F9000D400C0F3420010F0C9FC054406FB05F57F
:100FA000204B1E4805F5742505F23F25A3FB0535AA
:100FB000AD0CA36C25640BFB05FB72085B44963AF1
:100FC000934228BF1346C4E91123049B40F2E2492F
:100FD00009FB03F307212365EBFB07010CA3D3E90E
:100FE0000023FFF7DDF8104B059AA8EB0008A3FBE0
:100FF0000230800A09FB00F0A0FB070104A3D3E93B
:101000000023FFF7CDF8751B20F07F475DE700BF99
:101010008D49FD1A0700000000CA9A3B8C49FD1A51
:101020007FC3C90183DE1B435917B7D100000000FD
:101030002DE9F04F0D460968B0F82EE0D1F8009088
:101040000146144651F82EAB52F8086B91F802C0D5
:10105000834691B0D0F81E00BBF822109BF81C709C
:10106000A4F808E082F802C0DBF82A206260DBF80E
:101070003A20C4F82220ADF83C109BF83E100E90A8
:1010800084F8261010AB13E9030004F122020C903F
:10109000ADF834101046052107F0CEF994F827205A
:1010A00000F03F0060F3050284F827209BF83F2002
:1010B000C2F3040184F82810BBF83410E18201283F
:1010C000C7F380170DD902F01F021B3202F01F0276
:1010D0000B2A06D889B2063989B240F67A42914283
:1010E00019D90021C9F8081094F82C2061F30002E6
:1010F00084F82C200125DBF80C408BF80450504676
:10110000594608F0FBFF20682571214611B0BDE863
:10111000F04F08F0FFBF2A6800215160BBF836206D
:101120002283B4F81680BBF832300A9340F2E242D0
:10113000304602FB08F80DF091F99BF83F1096F845
:10114000D400490961F3430086F8D40010F0ECFBA9
:101150000B9096F8D400C0F3420010F0E7FB0B9917
:10116000084408FB00F0984900F5742000F23F2085
:10117000A1FB00104FEA5801800C9639206361638F
:101180009BF8311040F2E24201FB02F26264BBF8CC
:101190003820A6F89221414630460DF04BF98B4A93
:1011A0008B49C6F898114244B2FBF8F290B2A6F807
:1011B0008C01218B01F1060C604504DDC1F57F41F6
:1011C000FA31014488B25946A6F8880111F81C2F5B
:1011D000C907C2F3401200F1E680BDF83410ABF845
:1011E00023100C988BF81E704FF48071CBF81F0001
:1011F000ABF81C10E18AABF82610218BABF8281055
:10120000B6F89211ABF82A1096F8D4100B92C1F3ED
:1012100042018BF82C1030460BF01CF95946A08285
:10122000ABF8060050466F6808F068FF0B9AA18A79
:10123000D7F800A0F9801C233B71002A40F09F8062
:101240003A773946504608F065FF94F86700B4F8DD
:101250005CA0B4F85E70012100F0070010F096F970
:10126000574407F2D5173B1882465A4F5A48072170
:10127000E3FB07014FF09613C4E9033350A3D3E90E
:101280000023FEF78DFF20F07F407060EB680A9826
:10129000226B40F2E24101FB003404F2B34402212C
:1012A000A41A0120A8EB0208002206F077FF4846A6
:1012B0000AF0ACFEA4EB0A0441A3D3E90023824662
:1012C000A4FB0701FEF76CFFCDF80490AB6843491F
:1012D000009120F07F470AF10202363BD2B23B4434
:1012E0000121002008F0FAF901285ED099F81830A1
:1012F000DB0750D430460BF0ADF8364CA8FB044861
:101300002FA3D3E90023834641462046FEF748FF3A
:10131000AB68334A0792A3F1360A324B069620F0A7
:101320007F49A9FB0331E01A2F4B05934FF4F87363
:101330000893736804934FF0070303FB091168EBEC
:10134000010100244FF47A7200230394FEF728FF72
:101350000BF10305EDB2CDE90190009753462A4603
:101360000121204608F0FAF810F0FD0F23D10122E8
:101370000221104611B0BDE8F04F06F00FBF94F8FF
:10138000273043F0400384F82730201D0FF066FD1E
:101390000122208554E700230122009318461146BC
:1013A00008F066F9A6E700DE17E708F03BFF814585
:1013B0009CD000DE9AE700DED9E700BFAFF30080E3
:1013C0008D49FD1A0700000083DE1B437FC3C9015E
:1013D000404B4C0000CA9A3B8C49FD1A090D010094
:1013E000590C01008D49FD1A810C0100000000001C
:1013F000F0B5C468636883B00546002B40D111F096
:10140000D5FA002011F0F6FA0021084611F0E4FAAE
:1014100000222521082011F04BFB374B019301A836
:1014200011F032FB354940F25B6011F0EFFB237A9B
:10143000C3F3420262F306132372204610F0FAFB54
:1014400027682E68384610F059F806446A6806F195
:101450000901012011F002FD11F0C2FD20460AF041
:10146000E1FD811C3246C9B2384610F049F8054604
:1014700098B9204610F01EF868B9002003B0F0BDFE
:1014800093F82C309B07BAD01D48214611F062FA20
:1014900011F05AFBF1E700DEEFE71A4A1A491B4840
:1014A00040F2114316F0EDFC194B0721A5FB030395
:1014B00001FB05310EA3D3E90023FEF771FE1549A8
:1014C0000246154816F0DDFC002585F31188BFF3B0
:1014D0006F8F0323184602DF1048214611F03AFAB5
:1014E00011F032FB6FF08B00C8E700BFAFF3008054
:1014F00000CA9A3B00000000D6BE898E55555500A3
:101500003D16010044CB010090CB01000CCB010043
:101510008D49FD1AD8CC010094CB01003919010086
:101520002DE9F043C468A28A4FF6FF739A4283B054
:1015300000F0FD80064610F0A3FD3389628B208CFD
:1015400094F82710A3831A4492B2104480B2431C2B
:1015500023840023638301F03F034906E28300F103
:10156000A48094F82810009304F1290004F12203C8
:101570000FF036FC0546D4E90C31A26BA08BA363B7
:1015800003FB0022E36B8A4294BF9B185B188B42DB
:1015900028BF0B46626CE363236C94F867101A440F
:1015A00094F82C3061F306130021C4E9101294F86A
:1015B0007E2084F82C3012F0040200F0898011F0B3
:1015C000F5F9002011F016FA201D11F05DFA2389BB
:1015D000A17A40F25B6043EA014111F017FB284613
:1015E0000FF09EFF2146584811F0B4F9A08911F080
:1015F00029FC94F8662094F86700C2F3C003002128
:1016000002F0070200F0070011F066FB204610F020
:10161000D1FDD4F80080376840460FF06FFF0744D3
:10162000726807F10901002011F018FC814611F0E1
:10163000ABFC002011F0C2FCE36B94F8670003F1EF
:101640002F02636C012100F0070003EB420511F04B
:101650006DFA4D44054494F8670000F00700022835
:1016600034D004280CBF4FF4BC73282301211D443F
:1016700011F05EFA284411F079FCA18A03313A4650
:10168000C9B240460FF03CFF0546A8B1B37A13F04B
:1016900002062BD000252D48214611F05BF911F0F0
:1016A00053FA284603B0BDE8F083218D04F12202ED
:1016B0000FF0D8FB05465EE720460FF0FBFE002842
:1016C0003CD10025284603B0BDE8F0831823CDE7C0
:1016D000D4E91A0106F026FD00287FF470AF94F8D3
:1016E0007E3043F0040384F87E3068E7184A1949D5
:1016F00019484FF4AC7316F0C4FB18480721A5FB3A
:10170000000301FB05310EA3D3E90023FEF748FDDA
:1017100013490246134816F0B4FB86F31188BFF351
:101720006F8F0323184602DF6FF08B05B3E70E4877
:10173000214611F00FF911F007FAC2E700DEC0E709
:1017400000CA9A3B00000000D92301001D160100C9
:10175000C0CB010090CB01000CCB01008D49FD1ADC
:10176000E4CC010094CB01003D1601000000000014
:10177000032973B50546144661D8002A40D0072ACC
:101780005DD15A681C683848D1171346C4FB003134
:10179000012B71F1000225DB00F56E1000F65D7083
:1017A00018182FA3D3E9002341F10001FEF7A8FC8C
:1017B00080B202282A691DD004281DD008281DD017
:1017C000102832D10323294951F82310116152689E
:1017D00014691B01302223212846A44602B0BDE82B
:1017E000704060472248181861F100011CA3D3E93A
:1017F0000023DBE70023E6E70123E4E70223E2E737
:101800001A8806691B4B33F8021B8A420AD1736897
:101810000DF107029B68202128469847002807DA27
:1018200002B070BD01340B2CEDD16FF01500F7E75D
:101830009DF807201107234604D4082C05D16FF02A
:101840008500EDE7092CA8BF092302F00F0242EA48
:1018500003127368D2B2DB68202128469847DFE77D
:101860003AA395000000000040420F003005002020
:10187000632EB5FFA0CE010038B500F0B3FA00F03A
:1018800005F900F07DF801F08BF80E4C0E4D00F0DC
:1018900039FB002802DD2068EE280AD921462846B7
:1018A00001F0C4FB01F0B8F8002121201AF0E2FA9F
:1018B000EDE7C0F1EF01284400F0ECFA236803449F
:1018C0002360E4E71010002038350020044A054B5F
:1018D000002918BF1A460146034816F0C5BA00BFD2
:1018E000E4CF0100B6CE0100BECE010002460B4699
:1018F000014814F0AFBA00BFA0060020014814F060
:101900001BBB00BFA006002010B54FF0FF304FF00A
:10191000FF31FFF7EBFF002000F07EFE044618B118
:10192000002000F089FE0124012000F075FEE0B1E6
:10193000012000F081FEFFF7E1FF00F031F903899B
:10194000C3B100F02DF9008940F2E7314FF47A720B
:10195000002301EBC0300021FEF722FC02460B46BB
:10196000BDE81040054814F0CDBDFFF7C7FF002CBF
:10197000E3D110BD00221346F2E700BF00000020B3
:1019800010B500F021FC1E4B1E49041E08BF19466D
:101990001D4816F069FA94BB00F002F9807900F056
:1019A00043FD00F093FC01461848FFF78FFF2046E7
:1019B00000F016FD01461648FFF788FF012000F0F1
:1019C0000FFD01461348FFF781FF00F053FE01466B
:1019D0001148FFF77BFF00F08DFE01460F48FFF72F
:1019E00075FF00F0D3FE01460D48FFF76FFF00F0D2
:1019F000EFFEBDE8104001460A48FFF767BF10BD83
:101A0000E4CF0100D5CE0100DBCE0100F9CE01000C
:101A1000FFCE010005CF01000BCF01000FCF010069
:101A20001ACF01001FCF010070B5441EE4B2012C93
:101A300029D84FF0FF304FF0FF31FFF757FF204616
:101A400000F0CCFD0446FFF759FFE4B900F0A8F818
:101A50000389ABB100F0A4F80589214640F2E730D4
:101A60004FF400444FF47A720023E5FB0401FEF7C3
:101A700097FB02460B46BDE87040034814F042BD98
:101A800000221346F7E770BD00000020F0B5414B7F
:101A9000414DC82289B01A804FF4FA725A804FF42F
:101AA000C0729A8080229A7150221A8100225A8133
:101AB0001A7368466946AC5C01F8014B0132202A72
:101AC000F9D19DF80020532A62D19DF801204A2ABD
:101AD0005ED19DF80220522A5AD19DF803204D2A4A
:101AE00056D19DF80420422A52D19DF805204B2A58
:101AF0004ED19DF80620302A4AD19DF80720312A80
:101B000046D19DF80820012A42D19DF80920012ADA
:101B10003ED1224E4FF0FF32002110F8014B6240BF
:101B2000082442F300053540013C85EA5202F8D111
:101B300001311C29F1D10799D2438A4228D19DF85D
:101B40000F409DF813009DF814109DF81520BDF866
:101B50000CC09DF80E709DF81060BDF81150BDF8D6
:101B60000AE0A3F800E0003C18BF0124003818BFC9
:101B70000120003918BF0121003A18BF0122A3F843
:101B800002C01F715C719E711D819872D9721A73A7
:101B900009B0F0BD5C050020BAD601002083B8ED85
:101BA000004870475C0500200048704718C70100D6
:101BB00007491420034601380A5C12F0DF0F01D0F8
:101BC000184601E00028F5D1012838BF01207047F0
:101BD000A00500204B1E59425941014B1970704716
:101BE0002736002030B51C4B1B688DB0002B30D140
:101BF00040F20113ADF80C3006238DF8083002AB2B
:101C0000049309238DF81430FFF7D2FF134D144BC2
:101C10008DF8150006930FCD07AC0FC42B68236019
:101C20000123009303A90F4B022207A803F0ECFD48
:101C3000014670B110F1780F0BD00B4816F014F973
:101C40000A4842F2676200230DB0BDE8304014F04C
:101C50008DBC0DB030BD00BF14100020E0C60100E7
:101C6000A005002020C7010025CF01003000002082
:101C700010B5044619B1BDE81040FFF7B3BF0448E2
:101C80001AF000F8204617F0A9F9024B186010BDB1
:101C9000300000201410002008B5054B1B682BB93C
:101CA00003F0D2FEBDE80840FFF79CBF08BD00BFAF
:101CB00014100020014814F03FB900BFB406002002
:101CC000F8B515461E464FF0FF324FF0FF3312486D
:101CD00014F0C0F8114B124819880488DFF844C08A
:101CE00077186A1EBFB20025B94202D0B1F5007F55
:101CF00006D30DB104801980FFF7DCFF3046F8BD34
:101D000012F8015F0CF8045001310134C4F30804E7
:101D100089B20125E8E700BFB40600208C3100201D
:101D20008E3100202836002010B50E4C206818B1E6
:101D300003F0FEFF002323600B4B00241C704FF0C8
:101D4000FF324FF0FF33094814F084F8084B1C8031
:101D5000084B1C80084B1C80FFF7ACFFBDE810400F
:101D6000FFF740BF1410002027360020B4060020E3
:101D7000903100208E3100208C31002070B50D464E
:101D8000064600B3D9B1FFF713FF0428044618D95B
:101D90000E490F4804221AF0B2F9B0FA80F35B0939
:101DA0009B00E41AA5420A4998BF05F1FF34194483
:101DB000224630461AF074F900233355254628464A
:101DC00070BD0023EDE70546F9E700BF49CF0100EC
:101DD000A0050020024B1868003818BF012070478A
:101DE0001410002030B5134887B004F0E7FA002043
:101DF00003F06CF9054630B101460F4807B0BDE865
:101E0000304016F031B8FFF7D3FE0C4902460446C5
:101E100068461AF045F904F118030DEB030468460F
:101E200004F8185C02F082FD07B0BDE83040FFF70F
:101E3000D9BE00BFE00100204ECF0100A005002068
:101E400070B5114B1E6886B005460C4616B90020C9
:101E500006B070BD0D4B1B78002BF8D00028F6D0D3
:101E60000029F4D00021182268461AF040F9084BE6
:101E7000ADF80C4069463046CDE9013505F074FFF8
:101E80000028E4D12046E3E7141000202736002084
:101E900050C70100F8B50D46044640B3A1B14FF05C
:101EA000FF324FF0FF33134813F0D4FF12481349A9
:101EB00002880B88DFF848C00027013C3E462BB95A
:101EC00097B9FFF7F7FE35462846F8BD01361CF8EE
:101ED000027004F8017F0132013BB542C2F30802EF
:101EE0009BB24FF00107EAD102800B80E9E705467B
:101EF000EAE700BFB4060020903100208C310020BA
:101F00002836002010B54FF0FF324FF0FF33044861
:101F100013F0A0FF034B1C88FFF7CCFE204610BD3A
:101F2000B40600208C310020F7B5074640F2E730B8
:101F3000002300EBC130104E4FF47A72490CFEF7CB
:101F40002FF9336805460C4653B911F027FF30606E
:101F500030B92846214603B0BDE8F04015F0AABCD0
:101F600000F07CF80121009130683B464FF0FF32D1
:101F700011F086FEEDE700BF1810002070B5334C5D
:101F800088B00025FFF726FFB8B17DB930484FF47F
:101F9000E171FFF7C9FF2F484FF46171FFF7C4FFEC
:101FA000206818B118F01AFB00F05EF84FF40050EA
:101FB000002115F07FFC0125E4E702AE1521304633
:101FC000FFF7DCFE4FF42F7105462148FFF7ACFF09
:101FD000FFF700FFE0B92368E3B100F03FF81E4BC4
:101FE000206800964FF42F72022111F089FE00261E
:101FF0000435B54214D82368EBB90A25FFF7EAFE89
:1020000030B94FF40050002115F054FC013DF5D1DA
:102010000025B7E711F0C2FE20600028E7D0DCE71A
:10202000FFF7D8FE0028E6D145F69A10002115F0FA
:1020300041FC0136DDE7FFF7CDFE0028DDD1206849
:1020400018F0CCFA00F010F8D7E700BF1810002005
:10205000DFD60100DAD6010065CF0100014BFF2277
:102060001A70704728380020014B00221A70704700
:102070002838002008B511F091FE014B186008BD0A
:102080001C10002037B50F4B0446186820B12CB93E
:1020900018F0A4FA0C4B1C7003B030BD0A2CFBD80E
:1020A000094D2B78A342F7D0084A631E012103EBA8
:1020B0008303134400914FF0FF3211F0E1FD2C70C7
:1020C000EAE700BF1C10002028380020E4D60100F9
:1020D00008B5044B186820B118F080FA024B0022B2
:1020E0001A7008BD1C1000202838002037B50F4B8F
:1020F0000F4A012808BF13460E4A1078A0B118688D
:102100001C790569836801A95B68984740B92B6809
:10211000019858400123A3401840003818BF0120FF
:102120000028D4BF0020012003B030BDA0C70100AB
:10213000A8C701002C38002038B5431E012B0446E7
:102140001FD8104D2B78BBB90F4819F046FB98B13A
:102150000D4819F042FB78B10B484FF001120E21E7
:1021600015F0AAFB40B908484FF00112172115F0ED
:10217000A3FB08B901232B702046FFF7B7FF034BE1
:10218000185538BD2C380020E4C201002938002041
:10219000431E012B10B504460AD8FFF7A7FF0549D7
:1021A000024618B10B5DB3FA83F040090A5510BD21
:1021B0000020FCE729380020024B00225A709A7058
:1021C000704700BF2938002010B5074C23782BB981
:1021D000064819F002FB18B101232370002010BD3E
:1021E0006FF00200FBE700BF2D38002054C3010050
:1021F00070B504468AB013B14AB3152B27D81748D7
:10220000007838B38DF8101004A9D5180846954207
:1022100018D101330293022301908DF80C3010483D
:102220009DF80C30826843F002038DF80C309568FD
:102230002346012201A9A847003818BF01204042C7
:102240000AB070BD12F8016B01F8016FDFE76FF0A3
:102250000100F5E76FF00200F2E700BF2D38002023
:1022600054C3010030B589B004468DF807101AB385
:1022700013B31449097811B30DF10701029101213B
:10228000CDE905230391072300218DF810108DF867
:102290001C300D489DF81C30826843F002038DF815
:1022A0001C3095682346022202A9A847003818BFAF
:1022B0000120404209B030BD6FF00100FAE76FF035
:1022C0000200F7E72D38002054C3010007B5252090
:1022D00001A915F00CFB064AB0FA80F35B091370F4
:1022E000044B7F221A705A7003B05DF804FB00BFE4
:1022F0002E380020E80500200128F7B505463AD819
:10230000214B1B78002B39D06FF063048C421F4F98
:10231000B8BF0C46642C3B56A8BF6424A34230D0FF
:102320001B4B00291E5CE3B21EDA5B428DF80630BF
:10233000A31103F00203B11C8DF807300DF1060262
:102340000123C9B22520FFF753FF90B9711C012367
:102350000DF10702C9B22520FFF74AFF002818BF78
:102360007F247C5503B0F0BD8DF80630E0D001230A
:10237000E1E77F24F5E76FF00100F3E76FF002007B
:10238000F0E70020EEE700BF2E380020E80500202F
:1023900019D7010010B50E4B1B78ABB10D4A0E4C8E
:1023A00002238D212520FFF723FF48B90B4A012383
:1023B0008C212520FFF71CFF10B92070607010BD24
:1023C0007F2323706370FAE76FF00200F7E700BF26
:1023D0002E38002017D70100E805002016D701008D
:1023E0000128F7B5044617D80D4B0E4E185C01A90D
:1023F00015F07DFA054660422E2700F02E003A4681
:102400000021304419F073FE7C43B5FA85F35B0973
:102410003355284603B0F0BD6FF00105F9E700BF62
:1024200030D701002F380020014B1870704700BFD3
:10243000EA050020012870B515D8062913D801EB4C
:10244000410144424D1C04F02E042C44074D2E261D
:102450002C4406FB00550D4400206A7063709DF803
:102460001030A37070BD6FF00100FBE72F38002023
:10247000F0B5012887B0044652D82E232B4D434394
:10248000EB5C002B4FD02A4B414201F02E0193F818
:1024900000C06E1868460022FF27013216F8013F7F
:1024A000D2B2152A13FB0CF3B3FBF7F300F8013B90
:1024B000F3D12E2303FB045393F82B3043B1163191
:1024C0002944684619F01BFE10B9002007B0F0BD82
:1024D00018481523005D6A460B21FFF789FE2E235D
:1024E000C0B903FB04536A46163304AF164603CE45
:1024F000BE4218605960324603F10803F6D13068D5
:10250000186032791A712E2303FB0453012283F8D9
:102510002B20DAE703FB0455002385F82B30D5E7A1
:102520006FF00100D2E76FF00200CFE72F380020F4
:10253000EA05002030D70100F7B5124E124F2E23C6
:102540000446002503FB006696F82D2007232A4445
:10255000B2FBF3F3C3EBC303D21A02EB4202D1196D
:1025600020464B788978BA5C0091E9B20135FFF7D3
:1025700061FF072DE8D1204603B0BDE8F040FFF72A
:1025800077BF00BF2F3800201BD7010001282DE99D
:10259000F34105460E461746984617D80E4B2E2295
:1025A00002FB0033002483F82C40E1B2CDF8008018
:1025B0003B46324628460134FFF73CFF072CF4D156
:1025C000284602B0BDE8F041FFF752BF6FF00100AE
:1025D00002B0BDE8F08100BF2F380020012803467B
:1025E0000FD82E220B495343CA18CB5C63B192F823
:1025F0002C3063B9012182F82C1082F82D30FFF7BE
:102600009BBF6FF0010070476FF002007047002021
:10261000704700BF2F380020012809D8054B2E2213
:1026200002FB003393F82C00003818BF01207047DC
:10263000002070472F380020012813D80C492E2283
:1026400002FB001191F82C307BB191F82D3007225C
:102650000133B3FBF2F2C2EBC2029B1A81F82D30B8
:10266000FFF76ABF6FF0010070471846704700BF60
:102670002F38002007B5222001A915F038F9044AA7
:10268000B0FA80F35B09137003B05DF804FB00BF80
:102690008B38002037B5054618B3154A1278002349
:1026A00003700AB38DF806300DF1060201230B21E9
:1026B0002220FFF7D7FD044680B99DF806306BB1A4
:1026C0008DF8070001230DF107020B212220FFF7EF
:1026D0008FFD9DF80630012B00D12B70204603B0F2
:1026E00030BD6FF00104F9E76FF00204F6E700BFB8
:1026F0008B38002007B5232001A915F0F8F8054A0A
:10270000B0FA80F35B091370034B00221A7003B018
:102710005DF804FB8D3800208C38002073B50D4621
:10272000044620B3154B1B7823B3154E33784BB1B9
:10273000144B1B68CB1A132B04D8134B1B88238014
:10274000002008E0022301AA0A212320FFF78AFDC6
:1027500018B10023337002B070BDBDF804300A4ACE
:102760005BBA1380074A156001223270E7E76FF009
:102770000100F0E76FF00200EDE700BF8D380020A8
:102780008C380020201000209231002007B5212035
:1027900001A915F0ACF8044AB0FA80F35B09137094
:1027A00003B05DF804FB00BF8E380020024638B14C
:1027B000064B1B783BB101230B212120FFF752BDB3
:1027C0006FF0010070476FF0020070478E380020F4
:1027D00007B5202001A915F08AF8044AB0FA80F361
:1027E0005B09137003B05DF804FB00BF8F38002055
:1027F00013B5044678B10B4B1B787BB1022301AAB9
:102800000A212020FFF72EFD18B9BDF804305BBA6D
:10281000238002B010BD6FF00100FAE76FF00200F4
:10282000F7E700BF8F380020F0B5104A1088E0B1FC
:10283000002313800E4A2C24164640F2022504FB86
:1028400003F1715AA9420BD1117B4F1E082F07D8F3
:1028500020FA01F1C90741BF012111700021517017
:102860000133052B02F12C02E9D1F0BD9431002097
:102870002410002001480321FFF7E2BA37D70100F6
:1028800001480421FFF7DCBA32D701000D4B10B527
:10289000002418462C22002119F029FC84740134EC
:1028A0000346052C03F12C03F3D1074A00231380C0
:1028B000064A1370064A1370FFF77EFCBDE810400D
:1028C00014F0EABF2410002094310020B638002014
:1028D000903800202DE9F04101460546234815F0C7
:1028E000DDF80446FFF7D2FF214B1D700CB12378B1
:1028F00033B9204800222946BDE8F04114F0D9BF81
:1029000000211D4B221D04F1090704F10E000126D0
:102910004FF0020C8E4692F80580B8F1010F16D9DF
:10292000117800EB0108415C102901D0A12903D1E5
:10293000A3F810C01E7009E0112913D198F8018086
:1029400083F80C800221198219705970012101321B
:10295000BA4203F12C03DED1084B62881970084893
:102960002946C9E7A3F810E0E4E700BF963100204C
:10297000B73800207BCF010024100020B63800209B
:1029800083CF0100431E082B06D8044A012303FA13
:1029900000F0138818431080704700BF9431002066
:1029A00008B5164815F03DF80021DC22144819F04E
:1029B0009EFB134A1348012382F83E30022382F81B
:1029C0006A30032382F89630042382F8C2300E4A1C
:1029D000002313700D4A13700D4A13700D4A1380B3
:1029E00015F094F814F076FEFFF744FB14F0BAFEED
:1029F00014F0E4FEBDE8084014F04EBF963100200C
:102A00002410002091380020B7380020B63800206C
:102A100090380020943100202DE9F04FAB4B1B780B
:102A200085B0002B00F0C98114F01BFEA84C0546B0
:102A3000FFF7FAFE0023224626462C2001279C465B
:102A400000FB03F1715AB1F5817F06D15168691A13
:102A50000029A4BF177082F801C00133052B02F1D1
:102A60002C02EDD1DFF8688200274FF02C0940F2EC
:102A7000023A09FB07F3F35A534510D198F80C00BA
:102A8000431E012B0BD8FFF783FB40B1012388F8CD
:102A90000030002388F80130F8B215F008F801374B
:102AA000052F08F12C08E4D1894F4FF000084FF0B2
:102AB0002C0940F2027A09FB08F3F35A534511D16D
:102AC0007B68EB1A002B0DDB387B14F07AFE0028B4
:102AD0005FFA88FB3DDD01233B7000237B70584685
:102AE00014F0E5FF08F10108B8F1050F07F12C0714
:102AF000E1D1774F4FF000084FF02C0940F2026A05
:102B000009FB08F3F35A53450CD17B68EB1A002BF1
:102B100008DB04233B7000233A7B6E487B70414600
:102B200014F0C7FE08F10108B8F1050F07F12C07F2
:102B3000E6D1DFF8A491694899F8001014F0AEFFCF
:102B4000074608B103786BBB05B0BDE8F04FFFF74F
:102B50009DBE04D1B86005F119037B60C2E7013066
:102B60000CD101233B70002358467B7014F09FFF6B
:102B70003A7B5B48414614F09CFEB3E7BB6823B93F
:102B8000012D2B4638BF0123BB60EB1A41F287327F
:102B90009342E0D904233B7000233A7B51487B7079
:102BA0004146E8E75048DFF8288114F0AFFF4E486F
:102BB00000F086FA4FF0000A40F2024B2C2303FB90
:102BC0000AF3F35A5B450CD1D8F80430EB1A002B0A
:102BD00052DB14F0F1FD012388F80030002388F85F
:102BE00001300AF1010ABAF1050F08F12C08E5D10C
:102BF000DFF8DC804FF0000A4FF02C0B0BFB0AF3E0
:102C000040F20252F35A93421AD1D8F8043098F89D
:102C10002610EB1A002B3BDB042902D1002014F014
:102C2000CEFD0BFB0A6343F20322DB8C934201D1FE
:102C3000FFF74EFA012388F80030002388F80130AE
:102C40000AF1010ABAF1050F08F12C08D6D10025C6
:102C500007F1040AA8460E372378012B4AD1228AAD
:102C60009AF80530511C99421DDB03231F4823703D
:102C7000294614F01EFE3DE098F82530009398F8A0
:102C8000243098F812201848002114F043FFA8E7D8
:102C900098F82830009398F8273098F812201248B6
:102CA00014F038FFCCE79AF800303B44204613F884
:102CB00002B0134459465A7800F008FA052819D88A
:102CC000DFE800F0551653587E8900BFB638002063
:102CD0002410002098CF0100B73800209631002042
:102CE00088CF01008FCF010091380020A1CF0100D3
:102CF000638C23820135052D04F12C040AF1010AAD
:102D0000AAD14E4C002000F0DBF9204600F03CFC3C
:102D100094F82430002B64D1494D94F823302A785C
:102D20009A4275D100232C2101FB03F2B25C013AD7
:102D3000012A42D90133052BF6D1B8F1000F0AD18F
:102D4000B4238DF80C30022199F800308DF80D3045
:102D500003A8FFF775F83B4B00241C7014F09CFD92
:102D600099F800103848224610E002232370238A85
:102D70000233BEE7002000F0A3F92C2303FB056318
:102D8000DC7C032C07D931480022214605B0BDE880
:102D9000F04F14F08EBDB323022103A88DF80C3040
:102DA0008DF80D40FFF74CF8294899F8001022469D
:102DB00014F07FFD2046FFF78DFD05B0BDE8F08FD4
:102DC0000323228A23482370BBF1510F08BF48F028
:102DD000010829464DE704231F4823705A46294617
:102DE00047E700252C274FF0030A94F82430EB40E6
:102DF000DB0709D507FB05F394F82320174806F8ED
:102E000003A0294614F055FD0135052DEDD183E7CA
:102E100083B1B72194F824208DF80C108DF80D3073
:102E2000042199F800308DF80E2003A88DF80F309A
:102E3000FFF706F894F823302B7073E791380020E1
:102E400090380020B6380020C9CF0100A7CF01007C
:102E5000AECF0100B4CF0100BBCF0100C1CF010054
:102E6000F0B50C46BDB0054600B149B900225D4839
:102E7000114614F01EFD3DB0BDE8F040FFF700BD67
:102E80000178A1F1A003052B00F2A980DFE803F08F
:102E90006A031D30A755022C03D053480022214657
:102EA000E7E74478032C03D9504800222146E0E7A5
:102EB0002046FFF70FFDFFF7DDFC4D4800222146BD
:102EC0003DB0BDE8F04014F0F4BC4478631E082B1C
:102ED00003D9484800222146CBE72046FFF752FDA0
:102EE000FFF7A2FCFFF7C6FC434800222146E7E7B4
:102EF000022C1AD14378D3B9404A2C21144640F20F
:102F0000026001251E4601FB03F70133E75B8742A0
:102F100004BF15705670052B02F12C02F3D1FFF798
:102F2000A9FC002236481146CAE7012C03D06A7872
:102F3000344821469DE7FF22FAE7022C0AD1467861
:102F400056B9FFF7A3FCFFF795FC2F4B2F481978D4
:102F50003246B5E7012C03D06A782D48214688E730
:102F6000FF22FAE72B4B1B780BB1FFF78FFC0023F6
:102F700004A88DF80F3014F05BFDFEF715FE838872
:102F80000093064604AB0DF10F022146284614F0CB
:102F9000F0FC60B9012C18BF69781F4808BFFF21F9
:102FA000224614F086FCFFF76BFC3DB0F0BD9DF8A7
:102FB0000F101A48334604AA14F040FD28B9BDF892
:102FC00012209DF80F101648EBE7FFF753FCBDF8F1
:102FD00012209DF80F10134814F06BFCE5E712481F
:102FE000224646E7CECF0100D4CF0100DBCF01005F
:102FF000E1CF0100E7CF0100EFCF01002410002056
:1030000002D00100F6CF0100B738002013D0010034
:103010000AD00100B63800201BD0010096310020F4
:1030200022D001002BD0010031D001002DE9F3475F
:103030000D460646A8B3A1B30024A1462F68A742B7
:1030400025D9335D0A2B06EB040A01D00D2B01D1E3
:103050000134F3E73F1B01AA39465046CDF80490EE
:1030600014F053FC3A4680460146134814F021FC04
:10307000B8F1000F0BD0B8F1010F15D19AF800107C
:103080000E483A4614F015FCFFF7FAFB2C6844B1E1
:103090002A68171B04D03A463119304619F00EF849
:1030A0002F6002B0BDE8F08701995046FFF7D8FEC7
:1030B000019B1C44C2E700BF3CD0010042D001008C
:1030C000014B1860704700BF00110020F0B5622965
:1030D00085B005460E4614465AD80F295BD9A1F192
:1030E0001003522B57D8DFE813F04701470149017D
:1030F0005600560056005600560056005600560020
:10310000560056005600560056005C005C005C00FD
:103110005C007E007E0056005600560056005600A9
:10312000560056005600560056009E00B300080197
:103130001901EC00EC00EC00EC00C300D900C30066
:10314000D90056005600560056002B0142012B01B3
:1031500056005600560056005600560056005600BF
:10316000560056005600560056005A01F5018601D9
:10317000AD01CA0173016F01D701D701D701D70192
:10318000EB0156005600560056009701EF01FC0176
:10319000A12900F0F180A8482246314614F089FBAD
:1031A00022E00CB3A54B186828B100940B46AA7C0A
:1031B000002114F0AFFC04236B7014F052FA95F860
:1031C000292085F82460511E40F6C413082904FB09
:1031D00003F388BF0522B3FBF2F303446B6085F869
:1031E000254002207EE10CB905207BE1934B186855
:1031F00028B100940B46AA7C042114F08BFC052313
:103200006B7014F02EFA4FF47A7363430C22B3FB05
:10321000F2F303446B60042385F8263085F82760B9
:1032200085F82840DDE7631E082BDDD8834B18683E
:1032300028B10094AA7C3023012114F06BFC0323F5
:103240000093302223460121284614F03DFCC8E7B4
:10325000002CC9D1794B186828B10094AA7C31237D
:10326000012114F057FC0121009100233122EBE7EA
:10327000631E082BB8D8714B1868382914BF06276D
:10328000052728B100940B46AA7C394614F042FC6D
:1032900003230093234632463946D5E7002CA3D1B9
:1032A000664B1868392914BF0627052728B10094F2
:1032B0000B46AA7C394614F02DFC01230093002311
:1032C000E9E7002C90D15D4B1868A1F13407FFB2FB
:1032D00040B1012F00940B46AA7C8CBF062105212A
:1032E00014F018FC012F4FF00103009332464FF009
:1032F00000038CBF06210521A6E7002C3FF474AF24
:103300004E4B186828B10094AA7C3223032114F094
:1033100001FC032100912346322295E7002C7FF423
:1033200063AF464B186828B10094AA7C332303216D
:1033300014F0F0FB0123009333220023032183E7E1
:10334000631E082B3FF650AFB123022103A88DF86E
:103350000C308DF80D40FEF773FD06236B702C7357
:1033600014F07FF900F5EA403030686039E73448FE
:103370002246412114F09DFA0020B3E0631E082B81
:103380003FF632AF2046FFF7FDFAB023022103A833
:103390008DF80C308DF80D40FEF752FDECE701235F
:1033A000437014F05EF995F82930012C38BF0124E0
:1033B00040F6C41254435A1E082A88BF0523B4FBA2
:1033C000F3F404446C600CE702236B702C7308E781
:1033D0000A2C0ED008D8631E012B3FF605AF2046FD
:1033E000FEF7AAFE0323F0E70B2C7FF4FDAE0224C8
:1033F000F5E70124F3E7002C3FF4F6AE037D032B41
:103400003FF6F2AE028A00EB43010232CA82C218D2
:10341000947701332B75AFE7002C7FF4E5AE037D85
:10342000032B3FF6E1AE028A00EB43010232CA826F
:10343000C218FF219177ECE75DD001000011002058
:103440004AD00100002C7FF4CFAE037D002B3FF467
:10345000CBAE013BDAB250FA83F3997FFF2905D155
:1034600005EB4202D38A6B8401203BE00139C9B2EB
:1034700099770029F4D1038A02750233F3E7631EBA
:10348000082B3FF6B1AE80F8294040F6C41216482A
:10349000B2FBF4F221466DE7002C7FF4A5AE5A2969
:1034A00018BFA1F156064FF0070314BFF6B2042669
:1034B0004370067314F0D5F800236860AB6090E6A3
:1034C0000A4822465B2155E7032C3FF68DAEC474B3
:1034D000032007E0B623022103A8ADF80C30FEF765
:1034E000AFFC042005B0F0BD57D0010052D0010060
:1034F000303810B40B2843D8DFE800F00F204242E8
:1035000023282A2D063C2F4001204B1E082B26D8AD
:10351000092925D110BCFEF787BA09290CD8012941
:1035200038BF0121174810BC01EB4103C118C05C32
:103530008A78497814F0CFB80121F3E710BC14F071
:10354000E4B80121012010BC14F0F0B80021F9E723
:1035500001210220F7E70021FBE70220D5E7012146
:10356000084C01EB41016218615C937810BC527801
:1035700014F084B8012010BC14F099B80220FAE7C6
:1035800010BC70473BD701002DE9F84300250446E5
:1035900080F8235080F82450064601273378FBB189
:1035A0007278EBB2002A39D094F8232007FA05F19B
:1035B0000A4384F82320B17894F824200A4384F83D
:1035C0002420062B07D8DFE803F004120615181B89
:1035D000230014F0F1F8B2784148294614F069F953
:1035E0000135072D06F10506D8D1BDE8F88314F0A2
:1035F0008CF8F0E7FEF76CFDEDE714F0E1F8EAE790
:103600000120002114F092F8012014F050F8E2E7B4
:103610000220002114F08AF80220F6E7013B052B76
:1036200004D8DFE803F02D3C3240545794F803806F
:10363000A8F12003032B18D8DFE803F0020B1B1EB0
:10364000C8220121002014F08EF80121C82208466A
:1036500009E0C8224FF0FF31002014F084F8C8229E
:103660004FF0FF31012014F07EF81E48C822414679
:10367000B4E7C8220121EFE7C8224FF0FF31E1E7AC
:10368000617A207AFFF734FFAAE7A37C322B03D1BB
:10369000E07CFEF7F7FCA3E7FEF71AFDA0E7A27BAC
:1036A000617B11489AE794F81780B8F1240F14BF92
:1036B0004FF0FF394FF00109484614F080F8B9F196
:1036C000010F0A4814BF02220122414686E7617FAA
:1036D000207FD7E794F8221094F82100D2E700BFAA
:1036E00065D001006ED0010072D001007BD00100D6
:1036F000014B1B68184700BF20020020014B1860D7
:10370000704700BF2002002030B5044685B00D464A
:1037100010220021684618F0EAFC02238DF80230DE
:103720002A46044B01932146684613F02FFD05B04D
:1037300030BD00BFF136000080B505460E46174685
:10374000984613F0C7F9034600F0D2FCDFF8189052
:10375000044649F80030424630463946A84754F8F6
:10376000090000F067FC00BF080000002DE9F047E9
:10377000858B0446280717460CD501290CBF45F058
:10378000100545F02005A58387F31188BFF36F8FDF
:10379000BDE8F087022905F0070540F09480204637
:1037A00014F097FB052864D801A353F820F000BF5C
:1037B00089370000C7380000733800003538000032
:1037C0004F3800006138000001F007035A1F012A3A
:1037D0001FD8002221F00701062BD4F8008089B2FF
:1037E000C4E9002209D1434603E0E28B0132E283BF
:1037F0001B68002BF9D141F00201A183204614F08F
:1038000068FB4FF0000900286DD041F02001A18332
:1038100069E0042B0AD121F0070189B2A183204677
:1038200014F057FB10B141F02001A1834FF00008C4
:10383000C14658E02369D3F80090A38B23F0070317
:1038400043F00603A3834FF0000846464BE023698C
:10385000D3F80490A38B23F0070343F00403F1E7AC
:103860002369D3F80890A38B23F0070343F00503E3
:10387000E8E74FF00008C146E7E7012243F00803FC
:10388000A38387F31188BFF36F8F002A3BD1B8F170
:10389000000F4AD1B9F1000F02D02D492046C84788
:1038A000EFF31187202383F31288BFF36F8FA38B6D
:1038B00023F008039BB2A383D9063FD523F010025F
:1038C000A28303F00705A669A18B002EBFF67CAF8B
:1038D0000023D4F8008021F00701C4E9003341F04F
:1038E0000101A1839946A38B03F0070AAA4502D0E0
:1038F000A268002AC1D1B8F1000F02D1B9F1000FBE
:10390000DAD00022BAE7A1680029C0D00D680029EA
:10391000BDD04F68334652462046B8471DB12B688C
:1039200029461D46F3E72B46FAE741463346524601
:103930002046D8F8008014F0F8FAA8E79A067FF538
:1039400023AF23F02002A28303F0070527E700BF7F
:10395000577F010010B5DFF824C086B04FF428145B
:10396000CDE904C40824029404AC0194BDF82040BD
:10397000009416F021FA06B010BD00BF1800280010
:1039800008B50348034A0021121A14F055FD08BD7A
:1039900008080020F43800200748084A084908B5FC
:1039A000121A14F04BFD0748074A0849BDE80840C1
:1039B000121A14F043BD00BF0000002004080020CC
:1039C000A0D901000000002000000020A0D90100C3
:1039D00038B505460C4699B1D1E901230F4809686D
:1039E00014F042FAD4E90423E1680D4814F03CFADB
:1039F000E1690C4814F038FAA1690B4814F034FA64
:103A0000012D05D1EFF305810848103914F02CFA87
:103A100021462846BDE8384012F094B87FD0010016
:103A2000AFD00100DFD00100EFD001001ED10100B6
:103A300030BFFFF7FDBF00BF2DE9F0410B4EDFF8AF
:103A4000308006EB0807CC1B054632460949204664
:103A500018F026FBA01942460021083C18F047FB4D
:103A60006C6607F10800BDE8F08100BF00000000AF
:103A700004000000E0C6010010B51D4C1D4814F004
:103A8000F3F9A36A990130D51B4814F0EDF91E2013
:103A9000A36ADA0103D5194814F0E6F91F20144C83
:103AA000A36A1B0303D5164814F0DEF92120A36A8C
:103AB000590303D5134814F0D7F922200C4CA36AFC
:103AC0009A0303D5104814F0CFF92320A36ADB032F
:103AD00003D50E4814F0C8F92420054A936A6FEA0A
:103AE00003436FEA1343936210BD1D20D0E700BF6C
:103AF00000ED00E032D101004BD101005FD10100A7
:103B00007AD1010099D10100BFD10100DAD10100C1
:103B100070B5244C064624480D4614F0A5F9A36A56
:103B2000D90435D5214814F09FF91720A36A1A0546
:103B300003D51F4814F098F918201A4CA36A9B0566
:103B40000FD51C4814F090F9A16BA36A180407D58F
:103B5000194814F089F91EB1A36A23F40043A36243
:103B60001920104CA36A590503D5144814F07CF9A8
:103B70001A20A36ADA050DD5114814F075F91B2037
:103B8000084A936A43F47F43936200232B7070BD0D
:103B90001620CBE7A36A9B04F2D50A4814F064F917
:103BA0001C20EDE700ED00E006D201001DD201006F
:103BB0002FD2010043D201005DD2010073D2010077
:103BC0008FD20100A8D2010070B5264C06462648C7
:103BD0000D4614F049F9A36AD80640D5234814F0DD
:103BE00043F91120A36A190703D5214814F03CF9C1
:103BF00012201C4CA36A9A070FD51E4814F034F902
:103C0000616BA36A1B0607D51B4814F02DF91EB182
:103C1000A36A23F08003A3621320124CA36ADE0779
:103C200003D5164814F020F91420A36A9C0603D586
:103C3000134814F019F915200A4B9A6AD10658BF97
:103C40009A6A9A6A920642BF5A6A22F400525A62EB
:103C50009A6A42F0FF029A6200232B7070BD102016
:103C6000C0E700BF00ED00E0D8D20100EFD20100B4
:103C70002FD2010023D301003CD3010053D3010014
:103C8000A8D201002DE9F0415D4B5F688AB004467F
:103C9000C7F30806002585F31188BFF36F8F02F084
:103CA0007F43B3F17F4F06D102F00C03082B13D1F1
:103CB000544814F0D9F800252C464FF00008F31EA4
:103CC0008DF80780092B00F28B80DFE803F00A7F74
:103CD000837B89898989898710074CBF0C46012518
:103CE000EBE74948464E14F0BFF88DF80780F36AB9
:103CF0009A0704D5454814F0B7F800232AE0F36A80
:103D0000002B01DA4248F6E7F36A5B00F5D541483B
:103D100014F0AAF87369A26943F480737361BFF366
:103D20004F8FBFF36F8F32F8023C726922F48072BA
:103D30007261BFF34F8FBFF36F8F03F47F42B2F511
:103D40005F4F27D1DBB2022B24D12168324814F017
:103D50008BF823689DF80720CAB902AE04F120074A
:103D600020686168324603C20834BC421646F7D167
:103D7000099A002D40D0C2F3080121B96FEA5222FE
:103D80006FEA4222099202A91846FFF721FE0AB003
:103D9000BDE8F0811A4B9A6AD2B22AB10DF107013F
:103DA0000120FFF711FF0FE09A6A12F47F4F05D050
:103DB0000DF107010120FFF7ABFE05E09B6AB3F5AB
:103DC000803F9AD3FFF758FE0346C3E70DF1070182
:103DD0000020E6E70DF107010020ECE70F488AE735
:103DE0000F4B1049104817F4F87FA6F1100208BFD6
:103DF000194614F039F880E76FF30802C2E700BFF4
:103E000000ED00E0A1D30100CDD30100E5D3010016
:103E100007D4010016D4010036D4010053D40100A8
:103E200073D3010088D3010078D40100044B5A6990
:103E300042F010025A615A6922F008025A61704732
:103E400000ED00E0EFF30880EFF3098101B5724661
:103E5000FFF718FF01BD00BF0B4880F3088811F081
:103E600065F8202080F3118808484FF4006140185D
:103E700080F30988EFF314800221084380F314884B
:103E8000BFF36F8F00F06CF8D0580020904B0020EB
:103E90001EF0040F0CBFEFF30880EFF30980816977
:103EA00011F8021C0229FFD001B5724614F0C8FABD
:103EB00001BD00BF40B2002807DB044A41090123CD
:103EC00000F01F00834042F82130704700E100E01D
:103ED00040B200280CDB4309064900F01F002033E4
:103EE0000122824041F82320BFF34F8FBFF36F8F31
:103EF000704700BF00E100E0054B420900F01F00E1
:103F000053F82220012303FA00F01040704700BF4D
:103F100000E100E040B20028A8BF00F1604001F1DC
:103F20000101B8BF064B4FEA4111ACBF00F561403B
:103F300000F00F00C9B2B4BF195480F800137047E5
:103F400014ED00E0044B054A23F07F039360BFF3B8
:103F50004F8FBFF36F8F70470000000000ED00E04F
:103F600008B5FFF7EFFF0B4AD2F8883023F470034F
:103F7000C2F88830EFF3148323F0040383F314882A
:103F8000BFF36F8FFFF7FCFCFFF706FD00F092F820
:103F900011F0AAFE00ED00E042F8203C009B42F840
:103FA0001C3C0A49019B42F8183C029B42F8143C15
:103FB00021F001014FF0807342F8043C42F8081CE4
:103FC0000023203A02658366704700BF393700003E
:103FD00000B50B4B98600B4B1546426E1A600E46AF
:103FE0002C4686F309880020034B98472046002181
:103FF00000220023014C204765840100393700006E
:104000005831002004110020014B10221A61704722
:1040100000ED00E0054B5A699B689A421FBF044AB5
:10402000536843F080535360704700BF58310020FD
:1040300000ED00E0084B9B6883420BD1EFF3058352
:1040400043B1064B5A6842F080525A605A6A22F4D1
:1040500000425A6212F044BD5831002000ED00E0E9
:1040600011498A684FF030001044EFF3098C80E862
:10407000F01F202080F31288BFF36F8F0B4F4FF09B
:1040800000664A698A603E60506E094C2060906EFE
:104090000023936680F3118802F1300090E8F01F4E
:1040A0008CF30988704700005831002004ED00E0CF
:1040B00004110020044800232021C2180133302BB2
:1040C00082F80013F9D1704700E100E008B5EFF382
:1040D0000583064A103B02EBC30152F833004968DE
:1040E0008847BDE80840FFF795BF00BFFCC301004B
:1040F00001480068704700000411002008B5024B19
:104100001B689847002008BD08110020034B044A93
:104110001860937843F002039370704708110020F1
:104120003C02002008B50649064821F00701C1F10C
:10413000005202F5003213F054FE002008BD00BF0B
:10414000AF7400200C11002070B54169867A0B4DC8
:10415000044659B1437ADB0706D4282303FB0653F0
:104160001B6A1B689B6898470023636128202146CF
:1041700000FB0650BDE8704017F09BBCEC06002029
:10418000024B282202FB0030704700BFEC060020E3
:10419000827A064B282101FB02335A6A9B7E1B332D
:1041A000801A23F00303B0FBF3F07047EC06002005
:1041B00038B5074B827A282404FB02331B6AD3E903
:1041C00001240C601568FFF7E3FF04FB005038BDC5
:1041D000EC0600202DE9F04385B0054668460391C2
:1041E00090461C4617F0F3FEDDE90067EFF31189F6
:1041F000202383F31288BFF36F8F2B8B002B41D0CA
:10420000EA8A9A4225D900220023284611F0E4FECA
:104210000446F0B189F31188BFF36F8F039B002B25
:1042200041D032463B46684617F0F6FEA27A264B4E
:10423000282101FB023320461B6A1B6803A91D6865
:10424000DDE90023A847606170BB2046FFF77CFFD3
:1042500024E0298B4B1E2B8389F31188BFF36F8FCA
:10426000AB7EEA8A6C6A1B3323F00303521A02FB0B
:104270000344154B154AEB1ADB105343A372AB7E74
:10428000E372CBE789F31188BFF36F8F2346424671
:10429000284611F0A1FE04460028BFD10024204684
:1042A00005B0BDE8F0836361012300252381039BF2
:1042B0006382E27A6560294604F1180017F017FF5F
:1042C00063692582E360EAE7EC060020CDCCCCCC24
:1042D00070B50D4C282500B970BD037A4668002BD7
:1042E000FAD0013BDBB20372002BF5D1C36043600F
:1042F000837A05FB0343DB6913B198473046EAE74D
:10430000FFF722FFFAE700BFEC060020024B012274
:10431000C3F840250020704700E0014048B1054B3C
:10432000054A1B68B3FBF2F35843044B43F0010307
:10433000184770474805002040420F0010C7010091
:1043400008B5054A054B136010463C23536010F036
:104350005FFE002008BD00BF181100203FC00F0005
:1043600030B50378012B11D0022B21D06BB9154B3E
:104370000A4603F1100453F8045B42F8045BA342BD
:10438000F9D143881A0A8A70CB7030BD0D4B0A46AA
:1043900003F1100453F8045B42F8045BA342F9D123
:1043A00043681A0C180E4A700870C3F30722EAE734
:1043B00000F11003013913F8012901F8012F984287
:1043C000F9D1E2E773D7010010B514F097F917F0AF
:1043D00097FC044608B912F0B9FABFF35B8F064B9D
:1043E0001B68BFF35B8F0BB10A2098471CB9BDE86F
:1043F000104012F0BFBA10BD2011002038B504469D
:10440000084814F05DF8054648B1631EDBB21F2B67
:1044100096BF054A0021D15C0C3014F0CCF8284638
:1044200038BD00BFB407002083D701000F2810B5A6
:104430000CD80D280CD90A4814F042F8044618B1DB
:1044400004210C3014F0B7F8204610BD1328F2D028
:1044500009B10448F0E7BDE810400220FFF7CEBFE5
:10446000DC0700203C07002038B5C5682B7893B9DD
:10447000B5F801400F21204601F048FDEB780546D4
:1044800050B90A4A118831B96FEA04506FEA1050E6
:104490001080074A137038BD4372012101F09EFC61
:1044A0002846BDE8384001F043BC00BF1835002065
:1044B000B838002010B586B003AB0024009307493C
:1044C000074805944FF0FF334FF48062CDE9034471
:1044D00011F0B0FF204606B010BD00BFF83C002030
:1044E0007808002010B5084C0146062294F86F00A9
:1044F00001F0C0FF38B994F86F000449BDE81040DE
:10450000052201F0B7BF10BD6000002059D701009F
:1045100010B5012104460C3014F06EF82146034A10
:104520000078BDE81040002314F0B5B91CC90100A3
:1045300010B5012104460C3014F05EF82146034A00
:104540000078BDE81040072314F0A5B9E4C80100C5
:1045500070B5314813F0CDFF044600285AD000F161
:104560000C05284614F050F8022805D004282FD056
:104570002046FFF7ADFE21E0238A032BF8D9042162
:10458000284614F039F8FF22438806882276228ACA
:10459000C6F30B009A426083EAD10F2101F0B6FC0A
:1045A00005460028E4D001F0CDFC320B20762146F0
:1045B000284614F0C3FC284601F0BAFB174BD3F889
:1045C00034313BB3BDE870401549164817F01DBBA8
:1045D0002846022114F010F8054600783E2812D033
:1045E00014F0E9F810F002060DD10F4A0F491048F7
:1045F00040F69A4313F045FC86F31188BFF36F8FA2
:104600000323184602DF0B4A28780423214614F0BE
:1046100042F9ADE770BD00BF9401002060000020AA
:10462000E0020020080900208CD40100C0D4010061
:10463000EED40100C4C8010010B5012104460C30BD
:1046400013F0DAFF2146034A0078BDE81040022348
:1046500014F021B9B4C801002DE9F0470C4612F05E
:1046600075F9E5682B78022B67D0042B05D020461E
:10467000FFF72EFE6FF0150408E0B4F81080B8F1D3
:10468000020F08D82046FFF723FE002412F072F92B
:104690002046BDE8F08768783E2809D1B8F1030FBD
:1046A000F0D0EB78012B01D00A2B46D1032704E090
:1046B00014F081F80746F8073FD504F10C060121F4
:1046C0003046D4F814A013F08FFF0221304613F0C7
:1046D00093FF814600783E2807D1E3681B78012BC1
:1046E00001D00A2B06D1032614E014F064F8C107A8
:1046F00006460FD4174A1849184841F2681313F0B8
:10470000C0FB002383F31188BFF36F8F0323184688
:1047100002DF0226124A99F800000623214614F00F
:10472000BAF8B20712D56369A4F81080A5EB0A05A0
:1047300013FA85F5E560BB07A7D52146094813F0B4
:10474000C3FE0949094817F060FA9EE72046FFF7C3
:10475000BFFDF0E78CD401000BD50100EED40100C1
:1047600084C8010094010020E00200200809002014
:104770002DE9F047884616468246002870D0BFF3E0
:104780005B8FDFF8E090002359E8004F49E80032E2
:10479000002AF9D1BFF35B8F002C61D02046FFF7D0
:1047A000F7FC314D0C2303FB00502746438853454B
:1047B00011D0BFF35B8F59E8003F49E80072002A2F
:1047C000F9D1BFF35B8F002B4AD01F463846BDE8B6
:1047D000F047FFF77DBDA64208D0204613F06BFEE0
:1047E000328AF16804F10C0013F0DCFE2046FFF77A
:1047F000CFFC0C2606FB00504368ABB1B8F1000FAC
:1048000012D12046FFF7C4FC06FB0050012142688C
:10481000536803F01F00814010685B0900EB8300C0
:10482000137ACBB114F006F82046FFF7B1FC0C2642
:1048300006FB00508368002BC8D02046FFF7A8FC79
:10484000704305F800802046FFF7A2FC06FB0055E8
:10485000A86811F0F3FBB9E7C94314F033F8E3E7B4
:10486000BDE8F0879001002024110020094BBFF320
:104870005B8F1A68BFF35B8F02F00B02BFF35B8F95
:1048800053E8001F43E800200028F9D1BFF35B8FF5
:10489000704700BF3401002010B5C1E900239DF826
:1048A00008300B720C46FFF773FC034B0C2202FB23
:1048B00000335C6010BD00BF24110020F8B5024633
:1048C0000B46104813F0FCFD0446C0B104210C3027
:1048D00013F057FE2046FFF75BFC0B4D0C2707FB40
:1048E0000050002646802046FFF752FC07FB005090
:1048F00086602046FFF74CFC07FB00556E602046A3
:10490000F8BD00BF8C07002024110020034B014696
:10491000D3F8500182689268104700BF6000002001
:104920000148042113F086BF3401002038B5054644
:10493000FBF75AFC1428044610D80A482946FBF70E
:1049400049FC48B122460748294617F0A9FB064B07
:104950002344002283F85421002038BD6FF00B005F
:10496000FBE700BFB4010020600000200048704752
:10497000B40100200149024817F047B9D0020020D5
:104980007808002070B505460C4639B1CB684A69F5
:104990009B1A032B0ED86FF0150509E04FF0FF307E
:1049A0004FF0FF31FFF78AFF044618B96FF0680532
:1049B000284670BD2046FFF7EBFB144B0C2202FB90
:1049C0000033A618032130465D8013F0FCFD0580FE
:1049D000238A033B83700121304613F0FCFD40F62F
:1049E00035439D4209D12046FFF790FF0546002838
:1049F000DED02046FFF76CFCDAE70548214617F0C9
:104A00004DF80025FFF7B6FFD2E700BF24110020C4
:104A10009C0100202DE9F043064685B017460C4660
:104A200069B94FF0FF304FF0FF31FFF747FF044601
:104A300058B96FF06805284605B0BDE8F083887A5C
:104A4000FFF79EFB304B834258D10122002168467C
:104A500017F03DF82046FFF79BFBDFF8B0900C23E2
:104A600003FB0090C0F808D0204613F058FD014623
:104A70003046FFF787FF054618B12046FFF728FCB0
:104A8000D9E74FF4A0220023684611F00BFB8046C3
:104A900090B14FF4F1731E4A1E491F4813F0F1F90B
:104AA0001E484246314613F0ECF985F31188BFF3F6
:104AB0006F8F0323184602DF2046FFF769FB0C23A4
:104AC000584319F80060AEB12046093EFFF700FCDC
:104AD000092E0CD8DFE806F0050B0B08150B0B0BA5
:104AE0000B126FF06E05A6E76FF00C05A3E76FF0F1
:104AF0000405A0E7002FC0D03C609CE76FF01505CF
:104B000099E76FF00B0596E78C0700202411002031
:104B10008CD4010024D50100EED401002DD5010074
:104B20002DE9F0434F4BB0F80180198848F47042EA
:104B300091424FF0000685B002BF1E804A4B1E789E
:104B4000C378012B08BF494B00F1040405462046F9
:104B50000CBF93F86F904FF0000913F0CBFD02AF3C
:104B60002146B0B1384613F0BAFDD5F81130CDF872
:104B70000130B5F81530ADF805304FF00109EB788C
:104B8000012B1BD01321404613F0C8FF05B0BDE830
:104B9000F083484614F0BEF80346006802909A88F5
:104BA0009B796868BA80BB71A288A37995F8049054
:104BB0000090ADF804208DF80630E0E73846FFF7A6
:104BC00091FC04460028DDD00346B5F8012023F807
:104BD000702B0298BA79B98820679A719980B5F8D4
:104BE000173040F2E2425343C4F88830B5F8193028
:104BF000A4F89030B5F81B30A4F89230EB78E3704D
:104C00000022012B62721CD18DF80090BDF80420A7
:104C10009DF806300098A4F87B2084F87D30C4F815
:104C2000770000F0EDFD237A1049C3EBC3035A1857
:104C3000CB58C4F87E309388A4F88230937984F8F6
:104C400084300721204601F0C9F826B1667201219F
:104C5000204601F0C3F8204601F0A6F9204601F0F5
:104C600067F893E718350020B8380020600000206E
:104C700000B5C3681A7889B032B13C2A32D109B084
:104C80005DF804EB13F0F4BE8DF80020B3F80120BA
:104C9000ADF80120DA788DF80320B3F80B20ADF8D9
:104CA0001720B3F80D20ADF81920B3F80F20ADF898
:104CB0001B205A7C8DF81D20586801901A899B7A18
:104CC0008DF80A30094BADF8082068461A689B88B1
:104CD000CDF80B20ADF80F30CDF81120ADF8153020
:104CE000FFF71EFF09B05DF804FB00BF6DD70100A0
:104CF000F7B50022114640F60340FFF78BFE04464D
:104D0000002853D1FFF7B2FD214601AA41F203006A
:104D1000FFF780FE0446002848D1019A254DD1684E
:104D2000D1F80100D1F8051005F1780303C310464E
:104D3000FFF7CEFA214601AA41F20100FFF76AFE11
:104D4000044698BB0198C3685A7885F870205A8841
:104D5000A5F872201A7985F87120B3F80720A5F814
:104D60007420B3F80530A5F87630FFF7B1FA214684
:104D700001AA41F20200FFF74DFE0446B0B9019FBF
:104D8000FA6805F18006531C4132186859683446A8
:104D900003C4083393422646F7D13846FFF798FA02
:104DA00095F87C305A0607D46FF01204204603B001
:104DB000F0BD00BF6000002001AA002142F2030004
:104DC000FFF728FE04460028F0D1019BB64EDA68B2
:104DD000D2F80100D2F8051003C61846FFF778FA9A
:104DE000214601AA42F20200FFF714FE0446002801
:104DF000DCD1019CE368B3F8012091B249B1D978C4
:104E000039B1A5F8FC20DA78114606F1200016F039
:104E10005EFE2046FFF75CFA95F87C601F2316F0D3
:104E20002006A5F8103119D14FF0FF304FF0FF31B7
:104E3000FFF744FD0446002800F01B8102210C30DE
:104E400013F0AAFB0123037046702146324640F658
:104E50006D40FFF7DFFD04460028A7D195F89C3090
:104E60001B0712D501AA002142F21C00FFF7D2FD58
:104E7000044600289AD10198C368D3F80120D3F8DA
:104E80000530C5E93823FFF723FA95F8D8309F0697
:104E900025D50DF10201684613F028FE04460028CE
:104EA00084D14FF0FF304FF0FF31FFF707FD06468A
:104EB000002800F0DE8004210C3013F06DFBBDF8FB
:104EC00000300380BDF8023043802246314642F272
:104ED0002400FFF79FFD044600287FF467AF4FF0E2
:104EE000FF304FF0FF31FFF7E9FC0446002800F0E7
:104EF000C08008210C3013F04FFB95F8D82012F039
:104F0000020F14BF2F230F23960695F8D92048BF10
:104F100043F0400312F0090F18BF43F4006300226E
:104F20000370C3F3072343708270C2700271427131
:104F30008271C271214642F20100FFF76BFD044607
:104F400000287FF433AF95F87C30B5F8FC10980654
:104F50007BD4C9B901AA41F20500FFF75BFD044605
:104F600000287FF423AFB5F8FC30019C4BB9E3680F
:104F7000B3F80120A5F8FC209A884C48114616F099
:104F8000A6FD2046FFF7A4F94FF0FF304FF0FF31A8
:104F9000FFF794FC044600286BD008210C3013F076
:104FA000FBFA102303708823437002230022C3708E
:104FB00020238270027142718271C371214640F6D2
:104FC0000140FFF727FD044600287FF4EFAE0146BD
:104FD00001AA4FF60140FFF71DFD044620BB0198D2
:104FE000FFF776F9214601AA4FF60240FFF712FDBE
:104FF0000446C8B90198C368B3F80130A5F8C130B8
:10500000FFF766F995F8C1305A070DD501AA214678
:105010004FF60340FFF7FEFC30B90198C3685B7898
:1050200085F8C030FFF754F9EB799BB900F02EFBFF
:10503000044600287FF4BAAE01F0F2FA04460028D4
:105040007FF4B4AEFFF76CFCB0E600299CD16FF0A2
:105050000404ABE62E78002EE8D195F8C1309B060B
:105060001ED54FF0FF304FF0FF31FFF727FC04460D
:1050700010B96FF0680499E606210C3013F08CFA31
:10508000D5F8013003600A4B9B8883802146324665
:105090004FF60640FFF7BEFC04460028C6D085E662
:1050A0006FF0850482E600BF380100206001002017
:1050B0006100002010B5FFF71BFE034B1B6813B106
:1050C000BDE81040184710BD4811002073B5274DAA
:1050D0000646D5F8500116F080FB00283FD06FF04F
:1050E000020105F1D40013F0EDFB012113F0A2FB46
:1050F00010EA010436D11E48FFF718FC1D4B1E6054
:105100000122114605F5907016F0E1FC05F59E7040
:1051100016F093FC184816F0A3FD184916480094A1
:105120006FF007034FF4966211F084F914491248A6
:1051300016F0ECFDD5F85001124983681B689847BA
:10514000044648B926B902B0BDE87040FFF7D0BDAB
:1051500005F1C40011F068F9204602B070BD6FF08F
:105160001204F9E76FF07704F6E700BF6000002053
:1051700072D501004811002008090020F8400020E5
:105180007CD501005946000038B5032104460C3097
:1051900013F032FA0346B0F8010040F6354290426F
:1051A0000DD01D78E36822461978FFF7E1FA35B192
:1051B000034810F043FFBDE83840FFF7DBBB38BDC4
:1051C0008001002038B511F0C1FB284DD5F83C31E5
:1051D000002B48D00022002305F5907010F062FFEC
:1051E000002840D10022002305F59E7010F0F4FE47
:1051F000044668B91E4A1F491F4840F6AA4312F0E8
:1052000040FE84F31188BFF36F8F0323184602DF3B
:10521000D5F8300120B1FFF75BF80023C5F8303135
:10522000204613F07CF9C5F830012046FFF76EFBED
:1052300098B1124810F002FF2046FEF7A9FF104B6C
:105240000C2202FB00301F2140882246FFF790FA13
:105250002046FFF73DF8FFF78DFBFFF78BFBBDE81E
:10526000384011F087BB00F0AFFEF8E76000002087
:105270008CD4010085D50100EED40100800100200E
:105280002411002038B5042104460C3013F0B4F981
:105290004578017840882246FFF76AFA35B104481C
:1052A00010F0CCFEBDE83840FFF764BB38BD00BF4E
:1052B0008001002070B54FF0FF320D464FF0FF33F4
:1052C00000210646FFF7B2F8044660B90A4A0B49C6
:1052D0000B481A2312F0D5FD84F31188BFF36F8FAA
:1052E0000323184602DF022104F10C0013F054F9E5
:1052F00006704570204670BD89D5010085D5010036
:10530000EED40100F8B50A4DEF7906460024E3B269
:105310009F4202D86FF0010007E02946304613F0A3
:10532000F1FC0735631C08B12046F8BD1C46EEE7CA
:105330006000002070B5144E06223146044616F077
:10534000DEFEE0B14FF0FF304FF0FF31FFF7B6FA6D
:105350000546A8B1062221460C3013F023F900229D
:10536000294642F20500FFF755FB40B93346226853
:1053700043F86929A288B280012283F8682070BDB1
:105380006FF06800FBE700BFC900002073B504465A
:105390000D4689B11749284613F0B4FC60B9164A86
:1053A0002968C4EBC404A3181151AA889A80AA7969
:1053B0009A71002002B070BD6E46304613F081F93C
:1053C0000028F7D13046FFF79DFF0028F5DA0A4A9A
:1053D0000098B179C4EBC404A3181051B088988028
:1053E0009971002DE5D012592A609A88AA809B797C
:1053F000AB71DEE760D701006000002070B50446A5
:1054000011B16FF0150070BDF0B1234913F07AFCB3
:10541000D0B92046FFF776FF002837DA237863B942
:105420001E4AD37993BB20681060A179A08891713E
:1054300001219080D1711846E5E7012BE1D1A379D4
:1054400003F0C003C02BDCD1144DEB79012B20D02D
:10545000BFF35B8FD5F8D430BFF35B8FDB0707D486
:10546000002CCED00C49204613F04CFC0028C8D1AB
:10547000EE792146731C3046EB71FFF787FF08B9C0
:105480003046C0E7EB79013BEB71BCE76FF077008A
:10549000B9E76FF00B00B6E760D7010060000020AD
:1054A0002DE9F3410446D8B101AA002141F20900D7
:1054B000FFF7B0FA054698B9019E1249D6F80C805C
:1054C00008F101070622384616F019FE28B10E49E8
:1054D0000622384616F013FE30B93046FEF7F8FEC5
:1054E000002002B0BDE8F081D8F80130C4F80130E6
:1054F000BB88A4F8053030462570FEF7E9FE012090
:10550000EFE700BF6DD7010067D7010007B5684618
:10551000FFF7C6FF044BD87118B169460020FFF7AA
:1055200035FF03B05DF804FB60000020F0B5294DA5
:10553000EE7989B0002E46D195F8C230DB0722D52E
:105540006A4631464FF60940FFF764FAD8B9DDF8EC
:1055500000C0DCF80C406378012B1E4628BF0126F2
:1055600073B1A31C02AA123418685968174603C7FE
:105570000833A3423A46F7D1186838609B88BB804D
:105580006046FEF7A5FEEE71002416260127EB7992
:10559000E0B2984202D3B3B1002012E008AB06FBA0
:1055A0000033694653F8182C33F8143CCDF8012029
:1055B000ADF805308DF80070FFF7E8FE01340028E3
:1055C000E5D009B0F0BD0021084609B0BDE8F040C3
:1055D000FFF714BF600000202DE9F0411D460E4684
:1055E00017460346002849D0002D47D00A0307D5A7
:1055F0004C0743D413F09BFB10BB01232B701FE01F
:10560000B10704781ED020492FB1B20603D591F816
:10561000D820500635D5C4EBC40411F80480B8F185
:10562000010F08D101342144184613F078FB38B932
:1056300085F8008002E0B8F1000FF9D0A7B900208A
:10564000BDE8F081720716D50F49C4EBC4040F5DA5
:10565000012F07D10134214413F061FB0028EFD161
:105660002F7001E0002FFBD0B306E8D52B7843F074
:1056700002032B70E3E713F05AFBBEE76FF015004F
:10568000DEE76FF08500DBE76000002010B50A4C14
:10569000E3790BB1002010BDFFF738FF0028FAD1E5
:1056A000E379002BF6D1FFF741FF0028F3D1601C0E
:1056B000BDE81040FFF73EBE60000020F8B5456829
:1056C0006A05064633D4046914B115F003032ED0DD
:1056D000184F3078FB79834229D9C0EBC0001649B6
:1056E0000722384416F00BFDA8B115F0030306D1CC
:1056F00097F87020082A02D8B2689F2A17D915F0A7
:10570000300F09D09CB1EB0608D405F46035B5F52F
:10571000603018BF0120F8BD002CF6D1D6E9022375
:105720009A4204D81F2A02D9B3F5804FEDD9002040
:10573000F1E700BF6000002060D70100F7B5CDE9B8
:105740000001694642F208009DF8207016461D4689
:1057500013F01DFB044668B97FB9BFF35B8F0C4B98
:1057600053E8001F41F0040143E80012002AF7D17A
:10577000BFF35B8F204603B0F0BD694642F20900DB
:10578000CDE9006513F003FB0028E6D00446F1E7FD
:1057900088000020F8B50446164B14F8097B83F8FE
:1057A0006F7006460D4607221349204616F0A7FCE7
:1057B00070B91249384600F019FE044610B96FF06E
:1057C0000B00F8BD052100F009FB2C600020F8E774
:1057D0002146384613F05EFC40B92146307800F08F
:1057E00005FE04460028EAD00621ECE76FF015001C
:1057F000E7E700BF6000002060D7010059D7010033
:1058000000487047780000202DE9F04F884ED0F80E
:1058100010A089B09B460023BAEB0304054630462E
:1058200018BF0124039313F0ACFA0F4641079146C9
:1058300040F1DE802846FFF741FF60B96FF01504A4
:105840003846002340F20111994540F0DA802046A5
:1058500009B0BDE8F08F284613F080FA8046002892
:10586000ECD0A6F1AC0013F08CFAC205C0F3002313
:1058700000F1C180CDE90533CDF81B30AB68686815
:10588000ADF81030EB68ADF8123013F06BFA8DF80C
:105890001D00BFF35B8F56E8003F23F4807346E89A
:1058A0000032002AF7D1BFF35B8F2A7806F8BC2CB0
:1058B00006F8652C696822460DF11503A6F1BC00B7
:1058C000FFF78AFE04460028BAD1A6F1B303BAF165
:1058D000000F21D02A69116846F8B31C918899807D
:1058E00092799A716B689C0718D0BAF1000F1CD09E
:1058F00013F0100F0CBF012304238DF814302B6913
:105900001A68CDF816209A88ADF81A209B798DF880
:105910001C304FF000080BE0464ADCE7980502D443
:10592000BBF1000F34D0022300E053468DF8143051
:105930004FF0FF304FF0FF31FEF7C0FF0446002864
:105940005CD00F2204A90C3012F02CFE214600225C
:1059500042F20600FFF75EF8044600287FF470AFBD
:10596000BAF1000F18D06B68990721D13248012194
:1059700013F082FA039E044610B3002E3FF460AF8A
:105980003046002100F02AFA304600F0D1F957E7FE
:1059900003238DF81430BCE7129BCDF800805A46E3
:1059A00049463846FFF7CAFE04460028DBD047E7E1
:1059B000214803A9FFF7EEFE04460028D6D03FE7B2
:1059C00016B1304600F0B4F96A681C4812F00302C0
:1059D00018BF0122092113F034FA42460A2113F0BC
:1059E00030FA2A790C21C2F3800213F02AFA27E751
:1059F0006FF00A0424E76FF0770421E76FF0680482
:105A00001EE702888A4204D1426812B11278D20796
:105A100002D40133083017E709490A4816F026F97D
:105A20004FF470220023074810F0A0FD0FE700BFDD
:105A30003401002060D70100780000208800002099
:105A4000CB8E01009000002010B5184813F03AFAF0
:105A5000174813F096F90346DA05C0F3002023D562
:105A6000134813F08EF9830515D512491248072201
:105A700016F045FB11490346087E93B910490522EB
:105A800000F0F8FC044630B10021417200F0A6F9A4
:105A9000204600F04DF9BDE810400448002113F005
:105AA000EBB906222131EBE710BD00BF78000020E2
:105AB0008800002060D701008100002060000020E5
:105AC00059D7010070B50C4B1C68054644B154F819
:105AD000143C143C13B1697A284698476469F5E789
